{
  "contractName": "DEFXVestingSchedule",
  "abi": [
    {
      "inputs": [
        {
          "internalType": "address",
          "name": "_tokenContractAddress",
          "type": "address"
        },
        {
          "internalType": "uint256[]",
          "name": "_seedScheduleEvents",
          "type": "uint256[]"
        },
        {
          "internalType": "uint256[]",
          "name": "_seedSchedulePercentages",
          "type": "uint256[]"
        },
        {
          "internalType": "uint256[]",
          "name": "_privateScheduleEvents",
          "type": "uint256[]"
        },
        {
          "internalType": "uint256[]",
          "name": "_privateSchedulePercentages",
          "type": "uint256[]"
        },
        {
          "internalType": "address[]",
          "name": "_investors",
          "type": "address[]"
        },
        {
          "internalType": "uint256[]",
          "name": "_seedInvestments",
          "type": "uint256[]"
        },
        {
          "internalType": "uint256[]",
          "name": "_privateInvestments",
          "type": "uint256[]"
        },
        {
          "internalType": "uint256[]",
          "name": "_withdrawnTokens",
          "type": "uint256[]"
        }
      ],
      "stateMutability": "nonpayable",
      "type": "constructor"
    },
    {
      "anonymous": false,
      "inputs": [
        {
          "indexed": true,
          "internalType": "address",
          "name": "previousOwner",
          "type": "address"
        },
        {
          "indexed": true,
          "internalType": "address",
          "name": "newOwner",
          "type": "address"
        }
      ],
      "name": "OwnershipTransferred",
      "type": "event"
    },
    {
      "inputs": [],
      "name": "defxToken",
      "outputs": [
        {
          "internalType": "contract DEFX",
          "name": "",
          "type": "address"
        }
      ],
      "stateMutability": "view",
      "type": "function"
    },
    {
      "inputs": [],
      "name": "isRestricted",
      "outputs": [
        {
          "internalType": "bool",
          "name": "",
          "type": "bool"
        }
      ],
      "stateMutability": "view",
      "type": "function"
    },
    {
      "inputs": [],
      "name": "owner",
      "outputs": [
        {
          "internalType": "address",
          "name": "",
          "type": "address"
        }
      ],
      "stateMutability": "view",
      "type": "function"
    },
    {
      "inputs": [
        {
          "internalType": "address",
          "name": "",
          "type": "address"
        }
      ],
      "name": "privateInvestments",
      "outputs": [
        {
          "internalType": "uint256",
          "name": "",
          "type": "uint256"
        }
      ],
      "stateMutability": "view",
      "type": "function"
    },
    {
      "inputs": [
        {
          "internalType": "uint256",
          "name": "",
          "type": "uint256"
        }
      ],
      "name": "privateSchedule",
      "outputs": [
        {
          "internalType": "uint256",
          "name": "time",
          "type": "uint256"
        },
        {
          "internalType": "uint256",
          "name": "percentage",
          "type": "uint256"
        }
      ],
      "stateMutability": "view",
      "type": "function"
    },
    {
      "inputs": [],
      "name": "renounceOwnership",
      "outputs": [],
      "stateMutability": "nonpayable",
      "type": "function"
    },
    {
      "inputs": [
        {
          "internalType": "address",
          "name": "",
          "type": "address"
        }
      ],
      "name": "seedInvestments",
      "outputs": [
        {
          "internalType": "uint256",
          "name": "",
          "type": "uint256"
        }
      ],
      "stateMutability": "view",
      "type": "function"
    },
    {
      "inputs": [
        {
          "internalType": "uint256",
          "name": "",
          "type": "uint256"
        }
      ],
      "name": "seedSchedule",
      "outputs": [
        {
          "internalType": "uint256",
          "name": "time",
          "type": "uint256"
        },
        {
          "internalType": "uint256",
          "name": "percentage",
          "type": "uint256"
        }
      ],
      "stateMutability": "view",
      "type": "function"
    },
    {
      "inputs": [
        {
          "internalType": "address",
          "name": "newOwner",
          "type": "address"
        }
      ],
      "name": "transferOwnership",
      "outputs": [],
      "stateMutability": "nonpayable",
      "type": "function"
    },
    {
      "inputs": [
        {
          "internalType": "address",
          "name": "",
          "type": "address"
        }
      ],
      "name": "withdrawnTokens",
      "outputs": [
        {
          "internalType": "uint256",
          "name": "",
          "type": "uint256"
        }
      ],
      "stateMutability": "view",
      "type": "function"
    },
    {
      "inputs": [
        {
          "internalType": "address",
          "name": "_investor",
          "type": "address"
        }
      ],
      "name": "getAvailableTokens",
      "outputs": [
        {
          "internalType": "uint256",
          "name": "",
          "type": "uint256"
        }
      ],
      "stateMutability": "view",
      "type": "function"
    },
    {
      "inputs": [
        {
          "internalType": "address",
          "name": "_investor",
          "type": "address"
        },
        {
          "internalType": "uint256",
          "name": "_amount",
          "type": "uint256"
        }
      ],
      "name": "withdrawTokensToInvestor",
      "outputs": [],
      "stateMutability": "nonpayable",
      "type": "function"
    },
    {
      "inputs": [
        {
          "internalType": "uint256",
          "name": "_amount",
          "type": "uint256"
        }
      ],
      "name": "withdrawTokens",
      "outputs": [],
      "stateMutability": "nonpayable",
      "type": "function"
    },
    {
      "inputs": [
        {
          "internalType": "uint256",
          "name": "_amount",
          "type": "uint256"
        }
      ],
      "name": "withdrawRestrictedTokens",
      "outputs": [],
      "stateMutability": "nonpayable",
      "type": "function"
    },
    {
      "inputs": [
        {
          "internalType": "bool",
          "name": "_isRestricted",
          "type": "bool"
        }
      ],
      "name": "setRestrictedState",
      "outputs": [],
      "stateMutability": "nonpayable",
      "type": "function"
    },
    {
      "inputs": [
        {
          "internalType": "uint256",
          "name": "_amount",
          "type": "uint256"
        }
      ],
      "name": "drainStrayEther",
      "outputs": [
        {
          "internalType": "bool",
          "name": "",
          "type": "bool"
        }
      ],
      "stateMutability": "nonpayable",
      "type": "function"
    },
    {
      "inputs": [
        {
          "internalType": "contract IERC20",
          "name": "_token",
          "type": "address"
        },
        {
          "internalType": "uint256",
          "name": "_amount",
          "type": "uint256"
        }
      ],
      "name": "drainStrayTokens",
      "outputs": [
        {
          "internalType": "bool",
          "name": "",
          "type": "bool"
        }
      ],
      "stateMutability": "nonpayable",
      "type": "function"
    }
  ],
  "bytecode": "0x60806040523480156200001157600080fd5b506040516200301c3803806200301c833981810160405281019062000037919062000b55565b620000576200004b620008ff60201b60201c565b6200090760201b60201c565b86518851146200009e576040517f08c379a0000000000000000000000000000000000000000000000000000000008152600401620000959062001124565b60405180910390fd5b8451865114620000e5576040517f08c379a0000000000000000000000000000000000000000000000000000000008152600401620000dc90620010e0565b60405180910390fd5b82518451146200012c576040517f08c379a0000000000000000000000000000000000000000000000000000000008152600401620001239062001036565b60405180910390fd5b815184511462000173576040517f08c379a00000000000000000000000000000000000000000000000000000000081526004016200016a90620010be565b60405180910390fd5b8051845114620001ba576040517f08c379a0000000000000000000000000000000000000000000000000000000008152600401620001b19062001058565b60405180910390fd5b88600160006101000a81548173ffffffffffffffffffffffffffffffffffffffff021916908373ffffffffffffffffffffffffffffffffffffffff1602179055506000805b895181101562000354576200026489828151811062000247577f4e487b7100000000000000000000000000000000000000000000000000000000600052603260045260246000fd5b602002602001015183620009cb60201b62000f931790919060201c565b9150600260405180604001604052808c8481518110620002ad577f4e487b7100000000000000000000000000000000000000000000000000000000600052603260045260246000fd5b602002602001015181526020018b8481518110620002f4577f4e487b7100000000000000000000000000000000000000000000000000000000600052603260045260246000fd5b602002602001015181525090806001815401808255809150506001900390600052602060002090600202016000909190919091506000820151816000015560208201518160010155505080806200034b9062001284565b915050620001ff565b506000805b8851811015620004ae57620003be888281518110620003a1577f4e487b7100000000000000000000000000000000000000000000000000000000600052603260045260246000fd5b602002602001015183620009cb60201b62000f931790919060201c565b9150600360405180604001604052808b848151811062000407577f4e487b7100000000000000000000000000000000000000000000000000000000600052603260045260246000fd5b602002602001015181526020018a84815181106200044e577f4e487b7100000000000000000000000000000000000000000000000000000000600052603260045260246000fd5b60200260200101518152509080600181540180825580915050600190039060005260206000209060020201600090919091909150600082015181600001556020820151816001015550508080620004a59062001284565b91505062000359565b5060648214620004f5576040517f08c379a0000000000000000000000000000000000000000000000000000000008152600401620004ec9062001102565b60405180910390fd5b606481146200053b576040517f08c379a000000000000000000000000000000000000000000000000000000000815260040162000532906200109c565b60405180910390fd5b60005b8651811015620008d25783818151811062000582577f4e487b7100000000000000000000000000000000000000000000000000000000600052603260045260246000fd5b602002602001015162000626868381518110620005c8577f4e487b7100000000000000000000000000000000000000000000000000000000600052603260045260246000fd5b60200260200101518884815181106200060a577f4e487b7100000000000000000000000000000000000000000000000000000000600052603260045260246000fd5b6020026020010151620009cb60201b62000f931790919060201c565b10156200066a576040517f08c379a000000000000000000000000000000000000000000000000000000000815260040162000661906200107a565b60405180910390fd5b858181518110620006a4577f4e487b7100000000000000000000000000000000000000000000000000000000600052603260045260246000fd5b602002602001015160046000898481518110620006ea577f4e487b7100000000000000000000000000000000000000000000000000000000600052603260045260246000fd5b602002602001015173ffffffffffffffffffffffffffffffffffffffff1673ffffffffffffffffffffffffffffffffffffffff168152602001908152602001600020819055508481815181106200076a577f4e487b7100000000000000000000000000000000000000000000000000000000600052603260045260246000fd5b602002602001015160056000898481518110620007b0577f4e487b7100000000000000000000000000000000000000000000000000000000600052603260045260246000fd5b602002602001015173ffffffffffffffffffffffffffffffffffffffff1673ffffffffffffffffffffffffffffffffffffffff1681526020019081526020016000208190555083818151811062000830577f4e487b7100000000000000000000000000000000000000000000000000000000600052603260045260246000fd5b60200260200101516006600089848151811062000876577f4e487b7100000000000000000000000000000000000000000000000000000000600052603260045260246000fd5b602002602001015173ffffffffffffffffffffffffffffffffffffffff1673ffffffffffffffffffffffffffffffffffffffff168152602001908152602001600020819055508080620008c99062001284565b9150506200053e565b506000600760006101000a81548160ff021916908315150217905550505050505050505050505062001364565b600033905090565b60008060009054906101000a900473ffffffffffffffffffffffffffffffffffffffff169050816000806101000a81548173ffffffffffffffffffffffffffffffffffffffff021916908373ffffffffffffffffffffffffffffffffffffffff1602179055508173ffffffffffffffffffffffffffffffffffffffff168173ffffffffffffffffffffffffffffffffffffffff167f8be0079c531659141344cd1fd0a4f28419497f9722a3daafe3b4186f6b6457e060405160405180910390a35050565b60008183620009db9190620011e9565b905092915050565b6000620009fa620009f4846200117a565b62001146565b9050808382526020820190508285602086028201111562000a1a57600080fd5b60005b8581101562000a4e578162000a33888262000acd565b84526020840193506020830192505060018101905062000a1d565b5050509392505050565b600062000a6f62000a6984620011a9565b62001146565b9050808382526020820190508285602086028201111562000a8f57600080fd5b60005b8581101562000ac3578162000aa8888262000b3e565b84526020840193506020830192505060018101905062000a92565b5050509392505050565b60008151905062000ade8162001330565b92915050565b600082601f83011262000af657600080fd5b815162000b08848260208601620009e3565b91505092915050565b600082601f83011262000b2357600080fd5b815162000b3584826020860162000a58565b91505092915050565b60008151905062000b4f816200134a565b92915050565b60008060008060008060008060006101208a8c03121562000b7557600080fd5b600062000b858c828d0162000acd565b99505060208a015167ffffffffffffffff81111562000ba357600080fd5b62000bb18c828d0162000b11565b98505060408a015167ffffffffffffffff81111562000bcf57600080fd5b62000bdd8c828d0162000b11565b97505060608a015167ffffffffffffffff81111562000bfb57600080fd5b62000c098c828d0162000b11565b96505060808a015167ffffffffffffffff81111562000c2757600080fd5b62000c358c828d0162000b11565b95505060a08a015167ffffffffffffffff81111562000c5357600080fd5b62000c618c828d0162000ae4565b94505060c08a015167ffffffffffffffff81111562000c7f57600080fd5b62000c8d8c828d0162000b11565b93505060e08a015167ffffffffffffffff81111562000cab57600080fd5b62000cb98c828d0162000b11565b9250506101008a015167ffffffffffffffff81111562000cd857600080fd5b62000ce68c828d0162000b11565b9150509295985092959850929598565b600062000d05602783620011d8565b91507f5365656420696e766573746d656e74206172726179206861732077726f6e672060008301527f6c656e6774682e000000000000000000000000000000000000000000000000006020830152604082019050919050565b600062000d6d602883620011d8565b91507f57697468647261776e20746f6b656e73206172726179206861732077726f6e6760008301527f206c656e6774682e0000000000000000000000000000000000000000000000006020830152604082019050919050565b600062000dd5603283620011d8565b91507f496e766573746d656e742073686f756c6420626520677265617465722074686160008301527f6e2077697468647261776e20616d6f756e7400000000000000000000000000006020830152604082019050919050565b600062000e3d602583620011d8565b91507f496e636f727265637420707269766174652072656c656173652070657263656e60008301527f74616765730000000000000000000000000000000000000000000000000000006020830152604082019050919050565b600062000ea5602a83620011d8565b91507f5072697661746520696e766573746d656e74206172726179206861732077726f60008301527f6e67206c656e6774682e000000000000000000000000000000000000000000006020830152604082019050919050565b600062000f0d603283620011d8565b91507f50726976617465207363686564756c6520617272617973206861766520696e6360008301527f6f6e73697374656e74206c656e677468732e00000000000000000000000000006020830152604082019050919050565b600062000f75602283620011d8565b91507f496e636f727265637420736565642072656c656173652070657263656e74616760008301527f65730000000000000000000000000000000000000000000000000000000000006020830152604082019050919050565b600062000fdd602f83620011d8565b91507f53656564207363686564756c6520617272617973206861766520696e636f6e7360008301527f697374656e74206c656e677468732e00000000000000000000000000000000006020830152604082019050919050565b60006020820190508181036000830152620010518162000cf6565b9050919050565b60006020820190508181036000830152620010738162000d5e565b9050919050565b60006020820190508181036000830152620010958162000dc6565b9050919050565b60006020820190508181036000830152620010b78162000e2e565b9050919050565b60006020820190508181036000830152620010d98162000e96565b9050919050565b60006020820190508181036000830152620010fb8162000efe565b9050919050565b600060208201905081810360008301526200111d8162000f66565b9050919050565b600060208201905081810360008301526200113f8162000fce565b9050919050565b6000604051905081810181811067ffffffffffffffff8211171562001170576200116f62001301565b5b8060405250919050565b600067ffffffffffffffff82111562001198576200119762001301565b5b602082029050602081019050919050565b600067ffffffffffffffff821115620011c757620011c662001301565b5b602082029050602081019050919050565b600082825260208201905092915050565b6000620011f6826200127a565b915062001203836200127a565b9250827fffffffffffffffffffffffffffffffffffffffffffffffffffffffffffffffff038211156200123b576200123a620012d2565b5b828201905092915050565b600062001253826200125a565b9050919050565b600073ffffffffffffffffffffffffffffffffffffffff82169050919050565b6000819050919050565b600062001291826200127a565b91507fffffffffffffffffffffffffffffffffffffffffffffffffffffffffffffffff821415620012c757620012c6620012d2565b5b600182019050919050565b7f4e487b7100000000000000000000000000000000000000000000000000000000600052601160045260246000fd5b7f4e487b7100000000000000000000000000000000000000000000000000000000600052604160045260246000fd5b6200133b8162001246565b81146200134757600080fd5b50565b62001355816200127a565b81146200136157600080fd5b50565b611ca880620013746000396000f3fe608060405234801561001057600080fd5b506004361061010b5760003560e01c806372e496f3116100a2578063abd2171c11610071578063abd2171c146102cd578063d4c589d9146102fe578063e8c9a3e51461031a578063ecf8ade41461034a578063f2fde38b146103665761010b565b806372e496f31461023357806380f22ae11461024f5780638da5cb5b1461027f578063a2ca5f9e1461029d5761010b565b8063315a095d116100de578063315a095d146101ad57806342bf41ae146101c95780635aba37c7146101f9578063715018a6146102295761010b565b8063050b8c661461011057806309d0cc00146101405780631f5e8f4c1461015e57806320967cf11461017c575b600080fd5b61012a600480360381019061012591906114ab565b610382565b6040516101379190611851565b60405180910390f35b61014861052d565b604051610155919061186c565b60405180910390f35b610166610553565b6040516101739190611851565b60405180910390f35b610196600480360381019061019191906114e7565b610566565b6040516101a49291906119a2565b60405180910390f35b6101c760048036038101906101c291906114e7565b61059a565b005b6101e360048036038101906101de91906114e7565b6105fe565b6040516101f09190611851565b60405180910390f35b610213600480360381019061020e91906113f4565b6106d3565b6040516102209190611987565b60405180910390f35b6102316106eb565b005b61024d60048036038101906102489190611459565b610773565b005b610269600480360381019061026491906113f4565b61080c565b6040516102769190611987565b60405180910390f35b610287610b71565b604051610294919061180d565b60405180910390f35b6102b760048036038101906102b291906113f4565b610b9a565b6040516102c49190611987565b60405180910390f35b6102e760048036038101906102e291906114e7565b610bb2565b6040516102f59291906119a2565b60405180910390f35b610318600480360381019061031391906114e7565b610be6565b005b610334600480360381019061032f91906113f4565b610da9565b6040516103419190611987565b60405180910390f35b610364600480360381019061035f919061141d565b610dc1565b005b610380600480360381019061037b91906113f4565b610e9b565b005b600061038c610fa9565b73ffffffffffffffffffffffffffffffffffffffff166103aa610b71565b73ffffffffffffffffffffffffffffffffffffffff1614610400576040517f08c379a00000000000000000000000000000000000000000000000000000000081526004016103f7906118e7565b60405180910390fd5b600160009054906101000a900473ffffffffffffffffffffffffffffffffffffffff1673ffffffffffffffffffffffffffffffffffffffff168373ffffffffffffffffffffffffffffffffffffffff161415610491576040517f08c379a000000000000000000000000000000000000000000000000000000000815260040161048890611887565b60405180910390fd5b8273ffffffffffffffffffffffffffffffffffffffff1663a9059cbb6104b5610b71565b846040518363ffffffff1660e01b81526004016104d3929190611828565b602060405180830381600087803b1580156104ed57600080fd5b505af1158015610501573d6000803e3d6000fd5b505050506040513d601f19601f820116820180604052508101906105259190611482565b905092915050565b600160009054906101000a900473ffffffffffffffffffffffffffffffffffffffff1681565b600760009054906101000a900460ff1681565b6003818154811061057657600080fd5b90600052602060002090600202016000915090508060000154908060010154905082565b600760009054906101000a900460ff16156105ea576040517f08c379a00000000000000000000000000000000000000000000000000000000081526004016105e190611907565b60405180910390fd5b6105fb6105f5610fa9565b82610fb1565b50565b6000610608610fa9565b73ffffffffffffffffffffffffffffffffffffffff16610626610b71565b73ffffffffffffffffffffffffffffffffffffffff161461067c576040517f08c379a0000000000000000000000000000000000000000000000000000000008152600401610673906118e7565b60405180910390fd5b610684610b71565b73ffffffffffffffffffffffffffffffffffffffff166108fc839081150290604051600060405180830381858888f193505050501580156106c9573d6000803e3d6000fd5b5060019050919050565b60046020528060005260406000206000915090505481565b6106f3610fa9565b73ffffffffffffffffffffffffffffffffffffffff16610711610b71565b73ffffffffffffffffffffffffffffffffffffffff1614610767576040517f08c379a000000000000000000000000000000000000000000000000000000000815260040161075e906118e7565b60405180910390fd5b6107716000611270565b565b61077b610fa9565b73ffffffffffffffffffffffffffffffffffffffff16610799610b71565b73ffffffffffffffffffffffffffffffffffffffff16146107ef576040517f08c379a00000000000000000000000000000000000000000000000000000000081526004016107e6906118e7565b60405180910390fd5b80600760006101000a81548160ff02191690831515021790555050565b6000806000905060005b6002805490508110156108f2576002818154811061085d577f4e487b7100000000000000000000000000000000000000000000000000000000600052603260045260246000fd5b90600052602060002090600202016000015442106108da576108d3600282815481106108b2577f4e487b7100000000000000000000000000000000000000000000000000000000600052603260045260246000fd5b90600052602060002090600202016001015483610f9390919063ffffffff16565b91506108df565b6108f2565b80806108ea90611b6f565b915050610816565b50600061095a606461094c84600460008973ffffffffffffffffffffffffffffffffffffffff1673ffffffffffffffffffffffffffffffffffffffff1681526020019081526020016000205461133490919063ffffffff16565b61134a90919063ffffffff16565b90506000805b600380549050811015610a3c57600381815481106109a7577f4e487b7100000000000000000000000000000000000000000000000000000000600052603260045260246000fd5b9060005260206000209060020201600001544210610a2457610a1d600382815481106109fc577f4e487b7100000000000000000000000000000000000000000000000000000000600052603260045260246000fd5b90600052602060002090600202016001015483610f9390919063ffffffff16565b9150610a29565b610a3c565b8080610a3490611b6f565b915050610960565b506000610aa46064610a9684600560008b73ffffffffffffffffffffffffffffffffffffffff1673ffffffffffffffffffffffffffffffffffffffff1681526020019081526020016000205461133490919063ffffffff16565b61134a90919063ffffffff16565b90506000610abb8285610f9390919063ffffffff16565b9050600660008873ffffffffffffffffffffffffffffffffffffffff1673ffffffffffffffffffffffffffffffffffffffff16815260200190815260200160002054811115610b6257610b56600660008973ffffffffffffffffffffffffffffffffffffffff1673ffffffffffffffffffffffffffffffffffffffff168152602001908152602001600020548261136090919063ffffffff16565b95505050505050610b6c565b6000955050505050505b919050565b60008060009054906101000a900473ffffffffffffffffffffffffffffffffffffffff16905090565b60056020528060005260406000206000915090505481565b60028181548110610bc257600080fd5b90600052602060002090600202016000915090508060000154908060010154905082565b610bee610fa9565b73ffffffffffffffffffffffffffffffffffffffff16610c0c610b71565b73ffffffffffffffffffffffffffffffffffffffff1614610c62576040517f08c379a0000000000000000000000000000000000000000000000000000000008152600401610c59906118e7565b60405180910390fd5b600760009054906101000a900460ff16610cb1576040517f08c379a0000000000000000000000000000000000000000000000000000000008152600401610ca890611967565b60405180910390fd5b600160009054906101000a900473ffffffffffffffffffffffffffffffffffffffff1673ffffffffffffffffffffffffffffffffffffffff1663a9059cbb610cf7610b71565b836040518363ffffffff1660e01b8152600401610d15929190611828565b602060405180830381600087803b158015610d2f57600080fd5b505af1158015610d43573d6000803e3d6000fd5b505050506040513d601f19601f82011682018060405250810190610d679190611482565b610da6576040517f08c379a0000000000000000000000000000000000000000000000000000000008152600401610d9d90611927565b60405180910390fd5b50565b60066020528060005260406000206000915090505481565b610dc9610fa9565b73ffffffffffffffffffffffffffffffffffffffff16610de7610b71565b73ffffffffffffffffffffffffffffffffffffffff1614610e3d576040517f08c379a0000000000000000000000000000000000000000000000000000000008152600401610e34906118e7565b60405180910390fd5b600760009054906101000a900460ff1615610e8d576040517f08c379a0000000000000000000000000000000000000000000000000000000008152600401610e8490611907565b60405180910390fd5b610e978282610fb1565b5050565b610ea3610fa9565b73ffffffffffffffffffffffffffffffffffffffff16610ec1610b71565b73ffffffffffffffffffffffffffffffffffffffff1614610f17576040517f08c379a0000000000000000000000000000000000000000000000000000000008152600401610f0e906118e7565b60405180910390fd5b600073ffffffffffffffffffffffffffffffffffffffff168173ffffffffffffffffffffffffffffffffffffffff161415610f87576040517f08c379a0000000000000000000000000000000000000000000000000000000008152600401610f7e906118a7565b60405180910390fd5b610f9081611270565b50565b60008183610fa191906119dc565b905092915050565b600033905090565b610fba8261080c565b811115610ffc576040517f08c379a0000000000000000000000000000000000000000000000000000000008152600401610ff390611947565b60405180910390fd5b600160009054906101000a900473ffffffffffffffffffffffffffffffffffffffff1673ffffffffffffffffffffffffffffffffffffffff166370a08231306040518263ffffffff1660e01b8152600401611057919061180d565b60206040518083038186803b15801561106f57600080fd5b505afa158015611083573d6000803e3d6000fd5b505050506040513d601f19601f820116820180604052508101906110a79190611510565b8111156110e9576040517f08c379a00000000000000000000000000000000000000000000000000000000081526004016110e0906118c7565b60405180910390fd5b61113b81600660008573ffffffffffffffffffffffffffffffffffffffff1673ffffffffffffffffffffffffffffffffffffffff16815260200190815260200160002054610f9390919063ffffffff16565b600660008473ffffffffffffffffffffffffffffffffffffffff1673ffffffffffffffffffffffffffffffffffffffff16815260200190815260200160002081905550600160009054906101000a900473ffffffffffffffffffffffffffffffffffffffff1673ffffffffffffffffffffffffffffffffffffffff1663a9059cbb83836040518363ffffffff1660e01b81526004016111db929190611828565b602060405180830381600087803b1580156111f557600080fd5b505af1158015611209573d6000803e3d6000fd5b505050506040513d601f19601f8201168201806040525081019061122d9190611482565b61126c576040517f08c379a000000000000000000000000000000000000000000000000000000000815260040161126390611927565b60405180910390fd5b5050565b60008060009054906101000a900473ffffffffffffffffffffffffffffffffffffffff169050816000806101000a81548173ffffffffffffffffffffffffffffffffffffffff021916908373ffffffffffffffffffffffffffffffffffffffff1602179055508173ffffffffffffffffffffffffffffffffffffffff168173ffffffffffffffffffffffffffffffffffffffff167f8be0079c531659141344cd1fd0a4f28419497f9722a3daafe3b4186f6b6457e060405160405180910390a35050565b600081836113429190611a63565b905092915050565b600081836113589190611a32565b905092915050565b6000818361136e9190611abd565b905092915050565b60008135905061138581611c16565b92915050565b60008135905061139a81611c2d565b92915050565b6000815190506113af81611c2d565b92915050565b6000813590506113c481611c44565b92915050565b6000813590506113d981611c5b565b92915050565b6000815190506113ee81611c5b565b92915050565b60006020828403121561140657600080fd5b600061141484828501611376565b91505092915050565b6000806040838503121561143057600080fd5b600061143e85828601611376565b925050602061144f858286016113ca565b9150509250929050565b60006020828403121561146b57600080fd5b60006114798482850161138b565b91505092915050565b60006020828403121561149457600080fd5b60006114a2848285016113a0565b91505092915050565b600080604083850312156114be57600080fd5b60006114cc858286016113b5565b92505060206114dd858286016113ca565b9150509250929050565b6000602082840312156114f957600080fd5b6000611507848285016113ca565b91505092915050565b60006020828403121561152257600080fd5b6000611530848285016113df565b91505092915050565b61154281611af1565b82525050565b61155181611b03565b82525050565b61156081611b4b565b82525050565b60006115736016836119cb565b91507f444546582063616e6e6f7420626520647261696e6564000000000000000000006000830152602082019050919050565b60006115b36026836119cb565b91507f4f776e61626c653a206e6577206f776e657220697320746865207a65726f206160008301527f64647265737300000000000000000000000000000000000000000000000000006020830152604082019050919050565b6000611619601e836119cb565b91507f496e73756666696369656e7420636f6e74726163742062616c616e63652e00006000830152602082019050919050565b60006116596020836119cb565b91507f4f776e61626c653a2063616c6c6572206973206e6f7420746865206f776e65726000830152602082019050919050565b6000611699602d836119cb565b91507f5769746864726177696e6720746f6b656e732069732074656d706f726172696c60008301527f7920726573747269637465642e000000000000000000000000000000000000006020830152604082019050919050565b60006116ff6010836119cb565b91507f5472616e73666572206661696c65642e000000000000000000000000000000006000830152602082019050919050565b600061173f6028836119cb565b91507f4d6178696d756d20776974686472617761626c6520616d6f756e74206973206560008301527f786365656465642e0000000000000000000000000000000000000000000000006020830152604082019050919050565b60006117a5603a836119cb565b91507f54656d706f72617279207769746864726177616c206973206f6e6c7920706f7360008301527f7369626c6520696e20726573747269637465642073746174652e0000000000006020830152604082019050919050565b61180781611b41565b82525050565b60006020820190506118226000830184611539565b92915050565b600060408201905061183d6000830185611539565b61184a60208301846117fe565b9392505050565b60006020820190506118666000830184611548565b92915050565b60006020820190506118816000830184611557565b92915050565b600060208201905081810360008301526118a081611566565b9050919050565b600060208201905081810360008301526118c0816115a6565b9050919050565b600060208201905081810360008301526118e08161160c565b9050919050565b600060208201905081810360008301526119008161164c565b9050919050565b600060208201905081810360008301526119208161168c565b9050919050565b60006020820190508181036000830152611940816116f2565b9050919050565b6000602082019050818103600083015261196081611732565b9050919050565b6000602082019050818103600083015261198081611798565b9050919050565b600060208201905061199c60008301846117fe565b92915050565b60006040820190506119b760008301856117fe565b6119c460208301846117fe565b9392505050565b600082825260208201905092915050565b60006119e782611b41565b91506119f283611b41565b9250827fffffffffffffffffffffffffffffffffffffffffffffffffffffffffffffffff03821115611a2757611a26611bb8565b5b828201905092915050565b6000611a3d82611b41565b9150611a4883611b41565b925082611a5857611a57611be7565b5b828204905092915050565b6000611a6e82611b41565b9150611a7983611b41565b9250817fffffffffffffffffffffffffffffffffffffffffffffffffffffffffffffffff0483118215151615611ab257611ab1611bb8565b5b828202905092915050565b6000611ac882611b41565b9150611ad383611b41565b925082821015611ae657611ae5611bb8565b5b828203905092915050565b6000611afc82611b21565b9050919050565b60008115159050919050565b6000611b1a82611af1565b9050919050565b600073ffffffffffffffffffffffffffffffffffffffff82169050919050565b6000819050919050565b6000611b5682611b5d565b9050919050565b6000611b6882611b21565b9050919050565b6000611b7a82611b41565b91507fffffffffffffffffffffffffffffffffffffffffffffffffffffffffffffffff821415611bad57611bac611bb8565b5b600182019050919050565b7f4e487b7100000000000000000000000000000000000000000000000000000000600052601160045260246000fd5b7f4e487b7100000000000000000000000000000000000000000000000000000000600052601260045260246000fd5b611c1f81611af1565b8114611c2a57600080fd5b50565b611c3681611b03565b8114611c4157600080fd5b50565b611c4d81611b0f565b8114611c5857600080fd5b50565b611c6481611b41565b8114611c6f57600080fd5b5056fea26469706673582212205eae77704e152e135e3d4d2b6e4f989a2c8aa9995b1c9106623eab2a98f01cca64736f6c63430008000033",
  "immutableReferences": {},
  "source": "// SPDX-License-Identifier: MIT\r\npragma solidity 0.8.0;\r\n\r\nimport '@openzeppelin/contracts/access/Ownable.sol';\r\nimport '@openzeppelin/contracts/utils/math/SafeMath.sol';\r\nimport './DEFXToken.sol';\r\n\r\ncontract DEFXVestingSchedule is Ownable {\r\n    using SafeMath for uint;\r\n    struct ReleaseEvent { uint time; uint percentage; }\r\n\r\n    DEFX public defxToken;\r\n\r\n    ReleaseEvent[] public seedSchedule;\r\n    ReleaseEvent[] public privateSchedule;\r\n\r\n    mapping (address => uint) public seedInvestments;\r\n    mapping (address => uint) public privateInvestments;\r\n    mapping (address => uint) public withdrawnTokens;\r\n\r\n    bool public isRestricted;\r\n\r\n    constructor(\r\n        address _tokenContractAddress, \r\n        uint[] memory _seedScheduleEvents,\r\n        uint[] memory _seedSchedulePercentages,\r\n        uint[] memory _privateScheduleEvents,\r\n        uint[] memory _privateSchedulePercentages,\r\n        address[] memory _investors, \r\n        uint[] memory _seedInvestments, \r\n        uint[] memory _privateInvestments, \r\n        uint[] memory _withdrawnTokens)\r\n        public\r\n    {\r\n        require(_seedScheduleEvents.length == _seedSchedulePercentages.length, \"Seed schedule arrays have inconsistent lengths.\");\r\n        require(_privateScheduleEvents.length == _privateSchedulePercentages.length, \"Private schedule arrays have inconsistent lengths.\");\r\n\r\n        require(_investors.length == _seedInvestments.length, \"Seed investment array has wrong length.\");\r\n        require(_investors.length == _privateInvestments.length, \"Private investment array has wrong length.\");\r\n        require(_investors.length == _withdrawnTokens.length, \"Withdrawn tokens array has wrong length.\");\r\n\r\n        defxToken = DEFX(_tokenContractAddress);\r\n\r\n        uint totalSeedPercentage = 0;\r\n        for (uint i = 0; i < _seedScheduleEvents.length; i++) {\r\n            totalSeedPercentage = totalSeedPercentage.add(_seedSchedulePercentages[i]);\r\n            seedSchedule.push(ReleaseEvent(_seedScheduleEvents[i], _seedSchedulePercentages[i]));\r\n        }\r\n\r\n        uint totalPrivatePercentage = 0;\r\n        for (uint i = 0; i < _privateScheduleEvents.length; i++) {\r\n            totalPrivatePercentage = totalPrivatePercentage.add(_privateSchedulePercentages[i]);\r\n            privateSchedule.push(ReleaseEvent(_privateScheduleEvents[i], _privateSchedulePercentages[i]));\r\n        }\r\n\r\n        require(totalSeedPercentage == 100, \"Incorrect seed release percentages\");\r\n        require(totalPrivatePercentage == 100, \"Incorrect private release percentages\");\r\n\r\n        for (uint i = 0; i < _investors.length; i++) {\r\n            require(_seedInvestments[i].add(_privateInvestments[i]) >= _withdrawnTokens[i], \"Investment should be greater than withdrawn amount\");\r\n\r\n            seedInvestments[_investors[i]] = _seedInvestments[i];\r\n            privateInvestments[_investors[i]] = _privateInvestments[i];\r\n            withdrawnTokens[_investors[i]] = _withdrawnTokens[i];\r\n        }\r\n\r\n        isRestricted = false;\r\n    }\r\n\r\n    ////////////////////////////////////////////////////////////////////////////////////////////////////\r\n    // Withdrawing\r\n    ////////////////////////////////////////////////////////////////////////////////////////////////////\r\n\r\n    /**\r\n     * @return DEFX amount available for withdrawal to specified investor's address\r\n     */\r\n    function getAvailableTokens(address _investor)\r\n        public\r\n        view\r\n        returns(uint)\r\n    {\r\n        uint seedPercentage = 0;\r\n        for(uint i = 0; i < seedSchedule.length; i++) \r\n        {\r\n            if (block.timestamp >= seedSchedule[i].time)\r\n                seedPercentage = seedPercentage.add(seedSchedule[i].percentage);\r\n            else\r\n                break;\r\n        }\r\n        uint earnedSeedAmount = seedInvestments[_investor].mul(seedPercentage).div(100);\r\n\r\n        uint privatePercentage = 0;\r\n        for(uint i = 0; i < privateSchedule.length; i++) \r\n        {\r\n            if (block.timestamp >= privateSchedule[i].time)\r\n                privatePercentage = privatePercentage.add(privateSchedule[i].percentage);\r\n            else\r\n                break;\r\n        }\r\n        uint earnedPrivateAmount = privateInvestments[_investor].mul(privatePercentage).div(100);\r\n        uint totalEarnedAmount = earnedSeedAmount.add(earnedPrivateAmount);\r\n\r\n        if (totalEarnedAmount > withdrawnTokens[_investor])\r\n            return totalEarnedAmount.sub(withdrawnTokens[_investor]);\r\n        else\r\n            return 0;\r\n    }\r\n\r\n    /**\r\n     * @notice Allows investors to transfer available DEFX amount to themselves.\r\n     */\r\n    function withdrawTokens(uint _amount)\r\n        external\r\n        notRestricted\r\n    {\r\n        withdrawTokens(_msgSender(), _amount);\r\n    }\r\n\r\n    /**\r\n     * @notice Allows contract owner to transfer available DEFX amount to the investor.\r\n     */\r\n    function withdrawTokensToInvestor(address _investor, uint _amount)\r\n        external\r\n        onlyOwner\r\n        notRestricted\r\n    {\r\n        withdrawTokens(_investor, _amount);\r\n    }\r\n\r\n    function withdrawTokens(address _investor, uint _amount)\r\n        private\r\n    {\r\n        require(_amount <= getAvailableTokens(_investor), \"Maximum withdrawable amount is exceeded.\");\r\n        require(_amount <= defxToken.balanceOf(address(this)), \"Insufficient contract balance.\");\r\n\r\n        withdrawnTokens[_investor] = withdrawnTokens[_investor].add(_amount);\r\n\r\n        require(defxToken.transfer(_investor, _amount), \"Transfer failed.\");\r\n    }\r\n\r\n    ////////////////////////////////////////////////////////////////////////////////////////////////////\r\n    // Restrictions\r\n    ////////////////////////////////////////////////////////////////////////////////////////////////////\r\n\r\n    function withdrawRestrictedTokens(uint _amount)\r\n        external\r\n        onlyOwner\r\n    {\r\n        require(isRestricted, \"Temporary withdrawal is only possible in restricted state.\");\r\n        require(defxToken.transfer(owner(), _amount), \"Transfer failed.\");\r\n    }\r\n\r\n\r\n    function setRestrictedState(bool _isRestricted)\r\n        external\r\n        onlyOwner\r\n    {\r\n        isRestricted = _isRestricted;\r\n    }\r\n\r\n    modifier notRestricted() {\r\n        require(!isRestricted, \"Withdrawing tokens is temporarily restricted.\");\r\n        _;\r\n    }\r\n\r\n    ////////////////////////////////////////////////////////////////////////////////////////////////////\r\n    // Miscellaneous\r\n    ////////////////////////////////////////////////////////////////////////////////////////////////////\r\n\r\n    /**\r\n     * @notice Enable recovery of ether sent by mistake to this contract's address.\r\n     */\r\n    function drainStrayEther(uint _amount)\r\n        external\r\n        onlyOwner\r\n        returns (bool)\r\n    {\r\n        payable(owner()).transfer(_amount);\r\n        return true;\r\n    }\r\n\r\n    /**\r\n     * @notice Enable recovery of any ERC20 compatible token sent by mistake to this contract's address.\r\n     * The only token that cannot be drained is DEFX.\r\n     */\r\n    function drainStrayTokens(IERC20 _token, uint _amount)\r\n        external\r\n        onlyOwner\r\n        returns (bool)\r\n    {\r\n        require(address(_token) != address(defxToken), \"DEFX cannot be drained\");\r\n        return _token.transfer(owner(), _amount);\r\n    }\r\n}\r\n",
  "sourcePath": "C:/Users/User/Source/Repos/SmartContracts-1/src/contracts/DEFXVestingSchedule.sol",
  "compiler": {
    "name": "solc",
    "version": "0.8.0+commit.c7dfd78e.Emscripten.clang"
  },
  "schemaVersion": "3.3.3",
  "updatedAt": "2022-01-26T14:26:29.244Z",
  "devdoc": {
    "kind": "dev",
    "methods": {
      "getAvailableTokens(address)": {
        "returns": {
          "_0": "DEFX amount available for withdrawal to specified investor's address"
        }
      },
      "owner()": {
        "details": "Returns the address of the current owner."
      },
      "renounceOwnership()": {
        "details": "Leaves the contract without owner. It will not be possible to call `onlyOwner` functions anymore. Can only be called by the current owner. NOTE: Renouncing ownership will leave the contract without an owner, thereby removing any functionality that is only available to the owner."
      },
      "transferOwnership(address)": {
        "details": "Transfers ownership of the contract to a new account (`newOwner`). Can only be called by the current owner."
      }
    },
    "version": 1
  },
  "userdoc": {
    "kind": "user",
    "methods": {
      "drainStrayEther(uint256)": {
        "notice": "Enable recovery of ether sent by mistake to this contract's address."
      },
      "drainStrayTokens(address,uint256)": {
        "notice": "Enable recovery of any ERC20 compatible token sent by mistake to this contract's address. The only token that cannot be drained is DEFX."
      },
      "withdrawTokens(uint256)": {
        "notice": "Allows investors to transfer available DEFX amount to themselves."
      },
      "withdrawTokensToInvestor(address,uint256)": {
        "notice": "Allows contract owner to transfer available DEFX amount to the investor."
      }
    },
    "version": 1
  }
}