{
  "contractName": "DEFXMasterFarm",
  "abi": [
    {
      "inputs": [
        {
          "internalType": "address",
          "name": "_rewardToken",
          "type": "address"
        },
        {
          "internalType": "uint256",
          "name": "_rewardPerBlock",
          "type": "uint256"
        }
      ],
      "stateMutability": "nonpayable",
      "type": "constructor"
    },
    {
      "anonymous": false,
      "inputs": [
        {
          "indexed": true,
          "internalType": "address",
          "name": "previousOwner",
          "type": "address"
        },
        {
          "indexed": true,
          "internalType": "address",
          "name": "newOwner",
          "type": "address"
        }
      ],
      "name": "OwnershipTransferred",
      "type": "event"
    },
    {
      "inputs": [
        {
          "internalType": "uint256",
          "name": "",
          "type": "uint256"
        }
      ],
      "name": "farmList",
      "outputs": [
        {
          "internalType": "address",
          "name": "",
          "type": "address"
        }
      ],
      "stateMutability": "view",
      "type": "function"
    },
    {
      "inputs": [
        {
          "internalType": "address",
          "name": "",
          "type": "address"
        }
      ],
      "name": "farms",
      "outputs": [
        {
          "internalType": "uint256",
          "name": "farmWeight",
          "type": "uint256"
        },
        {
          "internalType": "uint256",
          "name": "lastBlock",
          "type": "uint256"
        },
        {
          "internalType": "bool",
          "name": "initialized",
          "type": "bool"
        }
      ],
      "stateMutability": "view",
      "type": "function"
    },
    {
      "inputs": [],
      "name": "owner",
      "outputs": [
        {
          "internalType": "address",
          "name": "",
          "type": "address"
        }
      ],
      "stateMutability": "view",
      "type": "function"
    },
    {
      "inputs": [],
      "name": "renounceOwnership",
      "outputs": [],
      "stateMutability": "nonpayable",
      "type": "function"
    },
    {
      "inputs": [],
      "name": "rewardPerBlock",
      "outputs": [
        {
          "internalType": "uint256",
          "name": "",
          "type": "uint256"
        }
      ],
      "stateMutability": "view",
      "type": "function"
    },
    {
      "inputs": [],
      "name": "rewardToken",
      "outputs": [
        {
          "internalType": "contract ERC20",
          "name": "",
          "type": "address"
        }
      ],
      "stateMutability": "view",
      "type": "function"
    },
    {
      "inputs": [],
      "name": "totalFarmWeight",
      "outputs": [
        {
          "internalType": "uint256",
          "name": "",
          "type": "uint256"
        }
      ],
      "stateMutability": "view",
      "type": "function"
    },
    {
      "inputs": [
        {
          "internalType": "address",
          "name": "newOwner",
          "type": "address"
        }
      ],
      "name": "transferOwnership",
      "outputs": [],
      "stateMutability": "nonpayable",
      "type": "function"
    },
    {
      "inputs": [
        {
          "internalType": "address",
          "name": "_lpToken",
          "type": "address"
        },
        {
          "internalType": "uint256",
          "name": "_farmWeight",
          "type": "uint256"
        }
      ],
      "name": "addFarm",
      "outputs": [],
      "stateMutability": "nonpayable",
      "type": "function"
    },
    {
      "inputs": [
        {
          "internalType": "address",
          "name": "_lpToken",
          "type": "address"
        },
        {
          "internalType": "uint256",
          "name": "_farmWeight",
          "type": "uint256"
        }
      ],
      "name": "setFarmWeight",
      "outputs": [],
      "stateMutability": "nonpayable",
      "type": "function"
    },
    {
      "inputs": [
        {
          "internalType": "uint256",
          "name": "_rewardPerBlock",
          "type": "uint256"
        }
      ],
      "name": "setReward",
      "outputs": [],
      "stateMutability": "nonpayable",
      "type": "function"
    },
    {
      "inputs": [
        {
          "internalType": "address",
          "name": "_lpToken",
          "type": "address"
        },
        {
          "internalType": "uint256",
          "name": "_amount",
          "type": "uint256"
        }
      ],
      "name": "deposit",
      "outputs": [],
      "stateMutability": "nonpayable",
      "type": "function"
    },
    {
      "inputs": [
        {
          "internalType": "address",
          "name": "_lpToken",
          "type": "address"
        },
        {
          "internalType": "uint256",
          "name": "_amount",
          "type": "uint256"
        }
      ],
      "name": "withdraw",
      "outputs": [],
      "stateMutability": "nonpayable",
      "type": "function"
    },
    {
      "inputs": [
        {
          "internalType": "address",
          "name": "_lpToken",
          "type": "address"
        },
        {
          "internalType": "uint256",
          "name": "_amount",
          "type": "uint256"
        }
      ],
      "name": "harvest",
      "outputs": [],
      "stateMutability": "nonpayable",
      "type": "function"
    },
    {
      "inputs": [
        {
          "internalType": "address",
          "name": "_lpToken",
          "type": "address"
        },
        {
          "internalType": "address",
          "name": "_user",
          "type": "address"
        }
      ],
      "name": "getEarnedReward",
      "outputs": [
        {
          "internalType": "uint256",
          "name": "",
          "type": "uint256"
        }
      ],
      "stateMutability": "view",
      "type": "function"
    },
    {
      "inputs": [
        {
          "internalType": "address",
          "name": "_lpToken",
          "type": "address"
        },
        {
          "internalType": "address",
          "name": "_user",
          "type": "address"
        }
      ],
      "name": "getDepositedAmount",
      "outputs": [
        {
          "internalType": "uint256",
          "name": "",
          "type": "uint256"
        }
      ],
      "stateMutability": "view",
      "type": "function"
    },
    {
      "inputs": [
        {
          "internalType": "uint256",
          "name": "_amount",
          "type": "uint256"
        }
      ],
      "name": "drainStrayEther",
      "outputs": [
        {
          "internalType": "bool",
          "name": "",
          "type": "bool"
        }
      ],
      "stateMutability": "nonpayable",
      "type": "function"
    },
    {
      "inputs": [
        {
          "internalType": "contract IERC20",
          "name": "_token",
          "type": "address"
        },
        {
          "internalType": "uint256",
          "name": "_amount",
          "type": "uint256"
        }
      ],
      "name": "drainStrayTokens",
      "outputs": [
        {
          "internalType": "bool",
          "name": "",
          "type": "bool"
        }
      ],
      "stateMutability": "nonpayable",
      "type": "function"
    }
  ],
  "bytecode": "0x60806040523480156200001157600080fd5b50604051620028e1380380620028e18339818101604052810190620000379190620002e1565b620000576200004b6200013960201b60201c565b6200014160201b60201c565b81600360006101000a81548173ffffffffffffffffffffffffffffffffffffffff021916908373ffffffffffffffffffffffffffffffffffffffff160217905550806004819055506000600581905550600067ffffffffffffffff811115620000e9577f4e487b7100000000000000000000000000000000000000000000000000000000600052604160045260246000fd5b604051908082528060200260200182016040528015620001185781602001602082028036833780820191505090505b50600290805190602001906200013092919062000205565b50505062000394565b600033905090565b60008060009054906101000a900473ffffffffffffffffffffffffffffffffffffffff169050816000806101000a81548173ffffffffffffffffffffffffffffffffffffffff021916908373ffffffffffffffffffffffffffffffffffffffff1602179055508173ffffffffffffffffffffffffffffffffffffffff168173ffffffffffffffffffffffffffffffffffffffff167f8be0079c531659141344cd1fd0a4f28419497f9722a3daafe3b4186f6b6457e060405160405180910390a35050565b82805482825590600052602060002090810192821562000281579160200282015b82811115620002805782518260006101000a81548173ffffffffffffffffffffffffffffffffffffffff021916908373ffffffffffffffffffffffffffffffffffffffff1602179055509160200191906001019062000226565b5b50905062000290919062000294565b5090565b5b80821115620002af57600081600090555060010162000295565b5090565b600081519050620002c48162000360565b92915050565b600081519050620002db816200037a565b92915050565b60008060408385031215620002f557600080fd5b60006200030585828601620002b3565b92505060206200031885828601620002ca565b9150509250929050565b60006200032f8262000336565b9050919050565b600073ffffffffffffffffffffffffffffffffffffffff82169050919050565b6000819050919050565b6200036b8162000322565b81146200037757600080fd5b50565b620003858162000356565b81146200039157600080fd5b50565b61253d80620003a46000396000f3fe608060405234801561001057600080fd5b50600436106101165760003560e01c80635b75a7c4116100a25780638da5cb5b116100715780638da5cb5b146102df578063a9f38c71146102fd578063f2fde38b1461032d578063f3fef3a314610349578063f7c618c11461036557610116565b80635b75a7c41461027d578063715018a614610299578063796034f6146102a35780638ae39cac146102c157610116565b8063208badd1116100e9578063208badd1146101b3578063293be456146101e3578063421adfa0146101ff57806342bf41ae1461023157806347e7ef241461026157610116565b8063018ee9b71461011b578063050b8c6614610137578063098c4aaf146101675780630fefc25114610183575b600080fd5b61013560048036038101906101309190611cbc565b610383565b005b610151600480360381019061014c9190611d21565b610601565b60405161015e91906120d8565b60405180910390f35b610181600480360381019061017c9190611cbc565b6107ab565b005b61019d60048036038101906101989190611c80565b610a3a565b6040516101aa919061220e565b60405180910390f35b6101cd60048036038101906101c89190611c80565b610ac7565b6040516101da919061220e565b60405180910390f35b6101fd60048036038101906101f89190611d5d565b610d0d565b005b61021960048036038101906102149190611c57565b610d9b565b60405161022893929190612229565b60405180910390f35b61024b60048036038101906102469190611d5d565b610dd2565b60405161025891906120d8565b60405180910390f35b61027b60048036038101906102769190611cbc565b610ea7565b005b61029760048036038101906102929190611cbc565b61116d565b005b6102a1611332565b005b6102ab6113ba565b6040516102b8919061220e565b60405180910390f35b6102c96113c0565b6040516102d6919061220e565b60405180910390f35b6102e76113c6565b6040516102f4919061205d565b60405180910390f35b61031760048036038101906103129190611d5d565b6113ef565b604051610324919061205d565b60405180910390f35b61034760048036038101906103429190611c57565b61142e565b005b610363600480360381019061035e9190611cbc565b611526565b005b61036d611782565b60405161037a91906120f3565b60405180910390f35b600160008373ffffffffffffffffffffffffffffffffffffffff1673ffffffffffffffffffffffffffffffffffffffff16815260200190815260200160002060040160009054906101000a900460ff16610412576040517f08c379a0000000000000000000000000000000000000000000000000000000008152600401610409906121ae565b60405180910390fd5b61041b826117a8565b6000600160008473ffffffffffffffffffffffffffffffffffffffff1673ffffffffffffffffffffffffffffffffffffffff16815260200190815260200160002060030160006104696119e8565b73ffffffffffffffffffffffffffffffffffffffff1673ffffffffffffffffffffffffffffffffffffffff168152602001908152602001600020905081816001015410156104ec576040517f08c379a00000000000000000000000000000000000000000000000000000000081526004016104e3906121ee565b60405180910390fd5b818160010160008282546105009190612352565b92505081905550600360009054906101000a900473ffffffffffffffffffffffffffffffffffffffff1673ffffffffffffffffffffffffffffffffffffffff1663a9059cbb61054d6119e8565b846040518363ffffffff1660e01b815260040161056b9291906120af565b602060405180830381600087803b15801561058557600080fd5b505af1158015610599573d6000803e3d6000fd5b505050506040513d601f19601f820116820180604052508101906105bd9190611cf8565b6105fc576040517f08c379a00000000000000000000000000000000000000000000000000000000081526004016105f39061212e565b60405180910390fd5b505050565b600061060b6119e8565b73ffffffffffffffffffffffffffffffffffffffff166106296113c6565b73ffffffffffffffffffffffffffffffffffffffff161461067f576040517f08c379a00000000000000000000000000000000000000000000000000000000081526004016106769061218e565b60405180910390fd5b600160008473ffffffffffffffffffffffffffffffffffffffff1673ffffffffffffffffffffffffffffffffffffffff16815260200190815260200160002060040160009054906101000a900460ff161561070f576040517f08c379a0000000000000000000000000000000000000000000000000000000008152600401610706906121ce565b60405180910390fd5b8273ffffffffffffffffffffffffffffffffffffffff1663a9059cbb6107336113c6565b846040518363ffffffff1660e01b81526004016107519291906120af565b602060405180830381600087803b15801561076b57600080fd5b505af115801561077f573d6000803e3d6000fd5b505050506040513d601f19601f820116820180604052508101906107a39190611cf8565b905092915050565b6107b36119e8565b73ffffffffffffffffffffffffffffffffffffffff166107d16113c6565b73ffffffffffffffffffffffffffffffffffffffff1614610827576040517f08c379a000000000000000000000000000000000000000000000000000000000815260040161081e9061218e565b60405180910390fd5b600160008373ffffffffffffffffffffffffffffffffffffffff1673ffffffffffffffffffffffffffffffffffffffff16815260200190815260200160002060040160009054906101000a900460ff16156108b7576040517f08c379a00000000000000000000000000000000000000000000000000000000081526004016108ae9061216e565b60405180910390fd5b6108bf6119f0565b6000600160008473ffffffffffffffffffffffffffffffffffffffff1673ffffffffffffffffffffffffffffffffffffffff1681526020019081526020016000209050818160000181905550438160010181905550600067ffffffffffffffff811115610955577f4e487b7100000000000000000000000000000000000000000000000000000000600052604160045260246000fd5b6040519080825280602002602001820160405280156109835781602001602082028036833780820191505090505b5081600201908051906020019061099b929190611b47565b5060018160040160006101000a81548160ff0219169083151502179055506002839080600181540180825580915050600190039060005260206000200160009091909190916101000a81548173ffffffffffffffffffffffffffffffffffffffff021916908373ffffffffffffffffffffffffffffffffffffffff1602179055508160056000828254610a2e9190612271565b92505081905550505050565b6000600160008473ffffffffffffffffffffffffffffffffffffffff1673ffffffffffffffffffffffffffffffffffffffff16815260200190815260200160002060030160008373ffffffffffffffffffffffffffffffffffffffff1673ffffffffffffffffffffffffffffffffffffffff16815260200190815260200160002060000154905092915050565b6000808373ffffffffffffffffffffffffffffffffffffffff166370a08231306040518263ffffffff1660e01b8152600401610b03919061205d565b60206040518083038186803b158015610b1b57600080fd5b505afa158015610b2f573d6000803e3d6000fd5b505050506040513d601f19601f82011682018060405250810190610b539190611d86565b90506000600160008673ffffffffffffffffffffffffffffffffffffffff1673ffffffffffffffffffffffffffffffffffffffff1681526020019081526020016000206001015443610ba59190612352565b90506000600160008773ffffffffffffffffffffffffffffffffffffffff1673ffffffffffffffffffffffffffffffffffffffff16815260200190815260200160002060030160008673ffffffffffffffffffffffffffffffffffffffff1673ffffffffffffffffffffffffffffffffffffffff1681526020019081526020016000206040518060400160405290816000820154815260200160018201548152505090506000806005541480610c5b5750600084145b610ce65783600554610c6d91906122f8565b83600454600160008b73ffffffffffffffffffffffffffffffffffffffff1673ffffffffffffffffffffffffffffffffffffffff168152602001908152602001600020600001548560000151610cc391906122f8565b610ccd91906122f8565b610cd791906122f8565b610ce191906122c7565b610ce9565b60005b90506000818360200151610cfd9190612271565b9050809550505050505092915050565b610d156119e8565b73ffffffffffffffffffffffffffffffffffffffff16610d336113c6565b73ffffffffffffffffffffffffffffffffffffffff1614610d89576040517f08c379a0000000000000000000000000000000000000000000000000000000008152600401610d809061218e565b60405180910390fd5b610d916119f0565b8060048190555050565b60016020528060005260406000206000915090508060000154908060010154908060040160009054906101000a900460ff16905083565b6000610ddc6119e8565b73ffffffffffffffffffffffffffffffffffffffff16610dfa6113c6565b73ffffffffffffffffffffffffffffffffffffffff1614610e50576040517f08c379a0000000000000000000000000000000000000000000000000000000008152600401610e479061218e565b60405180910390fd5b610e586113c6565b73ffffffffffffffffffffffffffffffffffffffff166108fc839081150290604051600060405180830381858888f19350505050158015610e9d573d6000803e3d6000fd5b5060019050919050565b6000600160008473ffffffffffffffffffffffffffffffffffffffff1673ffffffffffffffffffffffffffffffffffffffff168152602001908152602001600020600001541415610f2d576040517f08c379a0000000000000000000000000000000000000000000000000000000008152600401610f24906121ae565b60405180910390fd5b610f36826117a8565b8173ffffffffffffffffffffffffffffffffffffffff166323b872dd610f5a6119e8565b30846040518463ffffffff1660e01b8152600401610f7a93929190612078565b602060405180830381600087803b158015610f9457600080fd5b505af1158015610fa8573d6000803e3d6000fd5b505050506040513d601f19601f82011682018060405250810190610fcc9190611cf8565b61100b576040517f08c379a00000000000000000000000000000000000000000000000000000000081526004016110029061212e565b60405180910390fd5b6000600160008473ffffffffffffffffffffffffffffffffffffffff1673ffffffffffffffffffffffffffffffffffffffff16815260200190815260200160002060030160006110596119e8565b73ffffffffffffffffffffffffffffffffffffffff1673ffffffffffffffffffffffffffffffffffffffff168152602001908152602001600020905060008160000154141561114d57600160008473ffffffffffffffffffffffffffffffffffffffff1673ffffffffffffffffffffffffffffffffffffffff1681526020019081526020016000206002016110ec6119e8565b9080600181540180825580915050600190039060005260206000200160009091909190916101000a81548173ffffffffffffffffffffffffffffffffffffffff021916908373ffffffffffffffffffffffffffffffffffffffff1602179055505b818160000160008282546111619190612271565b92505081905550505050565b6111756119e8565b73ffffffffffffffffffffffffffffffffffffffff166111936113c6565b73ffffffffffffffffffffffffffffffffffffffff16146111e9576040517f08c379a00000000000000000000000000000000000000000000000000000000081526004016111e09061218e565b60405180910390fd5b600160008373ffffffffffffffffffffffffffffffffffffffff1673ffffffffffffffffffffffffffffffffffffffff16815260200190815260200160002060040160009054906101000a900460ff16611278576040517f08c379a000000000000000000000000000000000000000000000000000000000815260040161126f906121ae565b60405180910390fd5b6112806119f0565b6000600160008473ffffffffffffffffffffffffffffffffffffffff1673ffffffffffffffffffffffffffffffffffffffff16815260200190815260200160002060000154905081600160008573ffffffffffffffffffffffffffffffffffffffff1673ffffffffffffffffffffffffffffffffffffffff16815260200190815260200160002060000181905550808260055461131d9190612271565b6113279190612352565b600581905550505050565b61133a6119e8565b73ffffffffffffffffffffffffffffffffffffffff166113586113c6565b73ffffffffffffffffffffffffffffffffffffffff16146113ae576040517f08c379a00000000000000000000000000000000000000000000000000000000081526004016113a59061218e565b60405180910390fd5b6113b86000611a83565b565b60055481565b60045481565b60008060009054906101000a900473ffffffffffffffffffffffffffffffffffffffff16905090565b600281815481106113ff57600080fd5b906000526020600020016000915054906101000a900473ffffffffffffffffffffffffffffffffffffffff1681565b6114366119e8565b73ffffffffffffffffffffffffffffffffffffffff166114546113c6565b73ffffffffffffffffffffffffffffffffffffffff16146114aa576040517f08c379a00000000000000000000000000000000000000000000000000000000081526004016114a19061218e565b60405180910390fd5b600073ffffffffffffffffffffffffffffffffffffffff168173ffffffffffffffffffffffffffffffffffffffff16141561151a576040517f08c379a00000000000000000000000000000000000000000000000000000000081526004016115119061210e565b60405180910390fd5b61152381611a83565b50565b600160008373ffffffffffffffffffffffffffffffffffffffff1673ffffffffffffffffffffffffffffffffffffffff16815260200190815260200160002060040160009054906101000a900460ff166115b5576040517f08c379a00000000000000000000000000000000000000000000000000000000081526004016115ac906121ae565b60405180910390fd5b6115be826117a8565b6000600160008473ffffffffffffffffffffffffffffffffffffffff1673ffffffffffffffffffffffffffffffffffffffff168152602001908152602001600020600301600061160c6119e8565b73ffffffffffffffffffffffffffffffffffffffff1673ffffffffffffffffffffffffffffffffffffffff1681526020019081526020016000209050818160000154101561168f576040517f08c379a00000000000000000000000000000000000000000000000000000000081526004016116869061214e565b60405180910390fd5b818160000160008282546116a39190612352565b925050819055508273ffffffffffffffffffffffffffffffffffffffff1663a9059cbb6116ce6119e8565b846040518363ffffffff1660e01b81526004016116ec9291906120af565b602060405180830381600087803b15801561170657600080fd5b505af115801561171a573d6000803e3d6000fd5b505050506040513d601f19601f8201168201806040525081019061173e9190611cf8565b61177d576040517f08c379a00000000000000000000000000000000000000000000000000000000081526004016117749061212e565b60405180910390fd5b505050565b600360009054906101000a900473ffffffffffffffffffffffffffffffffffffffff1681565b6000600160008373ffffffffffffffffffffffffffffffffffffffff1673ffffffffffffffffffffffffffffffffffffffff168152602001908152602001600020905060008273ffffffffffffffffffffffffffffffffffffffff166370a08231306040518263ffffffff1660e01b8152600401611826919061205d565b60206040518083038186803b15801561183e57600080fd5b505afa158015611852573d6000803e3d6000fd5b505050506040513d601f19601f820116820180604052508101906118769190611d86565b9050600082600101544361188a9190612352565b90506000600554141580156118a0575060008214155b156119d95760005b83600201805490508110156119d75760008460030160008660020184815481106118fb577f4e487b7100000000000000000000000000000000000000000000000000000000600052603260045260246000fd5b9060005260206000200160009054906101000a900473ffffffffffffffffffffffffffffffffffffffff1673ffffffffffffffffffffffffffffffffffffffff1673ffffffffffffffffffffffffffffffffffffffff168152602001908152602001600020905060008460055461197291906122f8565b846004548860000154856000015461198a91906122f8565b61199491906122f8565b61199e91906122f8565b6119a891906122c7565b90508082600101546119ba9190612271565b8260010181905550505080806119cf90612404565b9150506118a8565b505b43836001018190555050505050565b600033905090565b60005b600280549050811015611a8057611a6d60028281548110611a3d577f4e487b7100000000000000000000000000000000000000000000000000000000600052603260045260246000fd5b9060005260206000200160009054906101000a900473ffffffffffffffffffffffffffffffffffffffff166117a8565b8080611a7890612404565b9150506119f3565b50565b60008060009054906101000a900473ffffffffffffffffffffffffffffffffffffffff169050816000806101000a81548173ffffffffffffffffffffffffffffffffffffffff021916908373ffffffffffffffffffffffffffffffffffffffff1602179055508173ffffffffffffffffffffffffffffffffffffffff168173ffffffffffffffffffffffffffffffffffffffff167f8be0079c531659141344cd1fd0a4f28419497f9722a3daafe3b4186f6b6457e060405160405180910390a35050565b828054828255906000526020600020908101928215611bc0579160200282015b82811115611bbf5782518260006101000a81548173ffffffffffffffffffffffffffffffffffffffff021916908373ffffffffffffffffffffffffffffffffffffffff16021790555091602001919060010190611b67565b5b509050611bcd9190611bd1565b5090565b5b80821115611bea576000816000905550600101611bd2565b5090565b600081359050611bfd816124ab565b92915050565b600081519050611c12816124c2565b92915050565b600081359050611c27816124d9565b92915050565b600081359050611c3c816124f0565b92915050565b600081519050611c51816124f0565b92915050565b600060208284031215611c6957600080fd5b6000611c7784828501611bee565b91505092915050565b60008060408385031215611c9357600080fd5b6000611ca185828601611bee565b9250506020611cb285828601611bee565b9150509250929050565b60008060408385031215611ccf57600080fd5b6000611cdd85828601611bee565b9250506020611cee85828601611c2d565b9150509250929050565b600060208284031215611d0a57600080fd5b6000611d1884828501611c03565b91505092915050565b60008060408385031215611d3457600080fd5b6000611d4285828601611c18565b9250506020611d5385828601611c2d565b9150509250929050565b600060208284031215611d6f57600080fd5b6000611d7d84828501611c2d565b91505092915050565b600060208284031215611d9857600080fd5b6000611da684828501611c42565b91505092915050565b611db881612386565b82525050565b611dc781612398565b82525050565b611dd6816123e0565b82525050565b6000611de9602683612260565b91507f4f776e61626c653a206e6577206f776e657220697320746865207a65726f206160008301527f64647265737300000000000000000000000000000000000000000000000000006020830152604082019050919050565b6000611e4f600f83612260565b91507f5472616e73666572206661696c656400000000000000000000000000000000006000830152602082019050919050565b6000611e8f602c83612260565b91507f5769746864726177616c20616d6f756e7420697320677265617465722074686160008301527f6e206465706f73697465642e00000000000000000000000000000000000000006020830152604082019050919050565b6000611ef5601483612260565b91507f4661726d20616c7265616479206578697374732e0000000000000000000000006000830152602082019050919050565b6000611f35602083612260565b91507f4f776e61626c653a2063616c6c6572206973206e6f7420746865206f776e65726000830152602082019050919050565b6000611f75601483612260565b91507f4661726d20646f6573206e6f742065786973742e0000000000000000000000006000830152602082019050919050565b6000611fb5601b83612260565b91507f4c5020746f6b656e732063616e6e6f7420626520647261696e656400000000006000830152602082019050919050565b6000611ff5602983612260565b91507f4861727665737420616d6f756e742069732067726561746572207468616e206360008301527f6f6c6c65637465642e00000000000000000000000000000000000000000000006020830152604082019050919050565b612057816123d6565b82525050565b60006020820190506120726000830184611daf565b92915050565b600060608201905061208d6000830186611daf565b61209a6020830185611daf565b6120a7604083018461204e565b949350505050565b60006040820190506120c46000830185611daf565b6120d1602083018461204e565b9392505050565b60006020820190506120ed6000830184611dbe565b92915050565b60006020820190506121086000830184611dcd565b92915050565b6000602082019050818103600083015261212781611ddc565b9050919050565b6000602082019050818103600083015261214781611e42565b9050919050565b6000602082019050818103600083015261216781611e82565b9050919050565b6000602082019050818103600083015261218781611ee8565b9050919050565b600060208201905081810360008301526121a781611f28565b9050919050565b600060208201905081810360008301526121c781611f68565b9050919050565b600060208201905081810360008301526121e781611fa8565b9050919050565b6000602082019050818103600083015261220781611fe8565b9050919050565b6000602082019050612223600083018461204e565b92915050565b600060608201905061223e600083018661204e565b61224b602083018561204e565b6122586040830184611dbe565b949350505050565b600082825260208201905092915050565b600061227c826123d6565b9150612287836123d6565b9250827fffffffffffffffffffffffffffffffffffffffffffffffffffffffffffffffff038211156122bc576122bb61244d565b5b828201905092915050565b60006122d2826123d6565b91506122dd836123d6565b9250826122ed576122ec61247c565b5b828204905092915050565b6000612303826123d6565b915061230e836123d6565b9250817fffffffffffffffffffffffffffffffffffffffffffffffffffffffffffffffff04831182151516156123475761234661244d565b5b828202905092915050565b600061235d826123d6565b9150612368836123d6565b92508282101561237b5761237a61244d565b5b828203905092915050565b6000612391826123b6565b9050919050565b60008115159050919050565b60006123af82612386565b9050919050565b600073ffffffffffffffffffffffffffffffffffffffff82169050919050565b6000819050919050565b60006123eb826123f2565b9050919050565b60006123fd826123b6565b9050919050565b600061240f826123d6565b91507fffffffffffffffffffffffffffffffffffffffffffffffffffffffffffffffff8214156124425761244161244d565b5b600182019050919050565b7f4e487b7100000000000000000000000000000000000000000000000000000000600052601160045260246000fd5b7f4e487b7100000000000000000000000000000000000000000000000000000000600052601260045260246000fd5b6124b481612386565b81146124bf57600080fd5b50565b6124cb81612398565b81146124d657600080fd5b50565b6124e2816123a4565b81146124ed57600080fd5b50565b6124f9816123d6565b811461250457600080fd5b5056fea2646970667358221220bbcf7044af7ff7a962220fb517d562934d64358d0729123326c21ebbb9676cd464736f6c63430008000033",
  "immutableReferences": {},
  "source": "// SPDX-License-Identifier: MIT\r\npragma solidity 0.8.0;\r\n\r\nimport '@openzeppelin/contracts/access/Ownable.sol';\r\nimport '@openzeppelin/contracts/token/ERC20/ERC20.sol';\r\n\r\n/**\r\n * @notice This contract is used to manage farms for which DEFX is provided as a reward. Contract owner\r\n * can add any number of farms which are based on ERC20 tokens. Initial intent is to only accept LP tokens,\r\n * but smart contract can accept any ERC20 token for farm establishment. Users deposit their tokens in the farm,\r\n * and are rewareded with DEFX token in return.\r\n *\r\n * Fixed amount of DEFX, determined by contract owner, is distributed in every block and is divided accross all farms,\r\n * in ratio defined by weight of every farm. All users who deposited token in the farm receive reward proportional\r\n * to amount they have deposited in current block. \r\n */\r\ncontract DEFXMasterFarm is Ownable {\r\n\r\n    struct UserInfo \r\n    {  \r\n        uint depositedAmount;\r\n        uint earnedReward;\r\n    }\r\n\r\n    struct FarmInfo \r\n    { \r\n        uint farmWeight; \r\n        uint lastBlock;\r\n        address[] userList;\r\n        mapping(address => UserInfo) users;\r\n        bool initialized;\r\n    }\r\n\r\n    mapping(address => FarmInfo) public farms;\r\n    address[] public farmList;\r\n    \r\n    ERC20 public rewardToken;\r\n    uint public rewardPerBlock;\r\n    uint public totalFarmWeight;\r\n\r\n    constructor(address _rewardToken, uint _rewardPerBlock)\r\n    {\r\n        rewardToken = ERC20(_rewardToken);\r\n        rewardPerBlock = _rewardPerBlock;\r\n        totalFarmWeight = 0;\r\n        farmList = new address[](0);\r\n    }\r\n\r\n    ////////////////////////////////////////////////////////////////////////////////////////////////////\r\n    // Farm management\r\n    ////////////////////////////////////////////////////////////////////////////////////////////////////\r\n\r\n    /**\r\n     * @notice Allows contract owner to add new farm. Reward earned up to that moment is calculated\r\n     * using previous distribution of farm weight.\r\n     */\r\n    /// @param _lpToken Address of LP token which will be farmed\r\n    /// @param _farmWeight Weight of newly added farm\r\n    function addFarm(address _lpToken, uint _farmWeight) \r\n        external\r\n        onlyOwner\r\n    {\r\n        require(!farms[_lpToken].initialized, \"Farm already exists.\");\r\n        collectRewards();\r\n\r\n        FarmInfo storage farm = farms[_lpToken];\r\n        farm.farmWeight = _farmWeight;\r\n        farm.lastBlock = block.number;\r\n        farm.userList = new address[](0);\r\n        farm.initialized = true;\r\n\r\n        farmList.push(_lpToken);\r\n        totalFarmWeight += _farmWeight;\r\n    }\r\n\r\n    /**\r\n     * @notice Allows contract owner to change farm weight. Reward earned up to that moment is calculated\r\n     * using previous distribution of farm weight. By setting farm weight to 0, it is effectively deactivated\r\n     * and further deposits are blocked.\r\n     */\r\n    /// @param _lpToken Address of LP token whose farm weight is updated \r\n    /// @param _farmWeight New weight of the farm\r\n    function setFarmWeight(address _lpToken, uint _farmWeight) \r\n        external\r\n        onlyOwner\r\n    {\r\n        require(farms[_lpToken].initialized, \"Farm does not exist.\");\r\n        collectRewards();\r\n\r\n        uint oldFarmWeight = farms[_lpToken].farmWeight;\r\n        farms[_lpToken].farmWeight = _farmWeight;\r\n        totalFarmWeight = totalFarmWeight + _farmWeight - oldFarmWeight;\r\n    }\r\n\r\n    /**\r\n     * @notice Allows contract owner to change reward distributed in each block. Reward earned up to that moment\r\n     * is calculated using previous reward per block.\r\n     */\r\n    /// @param _rewardPerBlock New reward per block\r\n    function setReward(uint _rewardPerBlock) \r\n        external\r\n        onlyOwner\r\n    {\r\n        collectRewards();\r\n        rewardPerBlock = _rewardPerBlock;\r\n    }\r\n\r\n    ////////////////////////////////////////////////////////////////////////////////////////////////////\r\n    // Staking\r\n    ////////////////////////////////////////////////////////////////////////////////////////////////////\r\n\r\n    /**\r\n     * @notice Allows liquidity providers to deposit LP tokens to earn reward. In order that deposit succeeds,\r\n     * farm for specific LP token needs to be added by contract owner and liquidity provider needs to approve\r\n     * farm as spender of their LP tokens, at least to amount they wish to deposit.\r\n     */\r\n    /// @param _lpToken Address of LP token which is being deposited\r\n    /// @param _amount Amount of LP tokens that is being deposited\r\n    function deposit(address _lpToken, uint _amount) \r\n        external\r\n    {\r\n        require(farms[_lpToken].farmWeight != 0, \"Farm does not exist.\");\r\n        collectRewardsForFarm(_lpToken);\r\n\r\n        require(ERC20(_lpToken).transferFrom(_msgSender(), address(this), _amount), \"Transfer failed\");\r\n\r\n        UserInfo storage userInfo = farms[_lpToken].users[_msgSender()];\r\n        if (userInfo.depositedAmount == 0) {\r\n            farms[_lpToken].userList.push(_msgSender());\r\n        }\r\n        userInfo.depositedAmount += _amount;\r\n    }\r\n\r\n    /**\r\n     * @notice Allows liquidity providers to withdraw deposited LP tokens. In order that withdraw succeeds,\r\n     * farm for specific LP token needs to be added by contract owner and amount of LP tokens already deposited\r\n     * needs to be equal or greater than amount they wish to withdraw.\r\n     */\r\n    /// @param _lpToken Address of LP token which is being withdrawn \r\n    /// @param _amount Amount of LP tokens that is being withdrawn\r\n    function withdraw(address _lpToken, uint _amount) \r\n        external\r\n    {\r\n        require(farms[_lpToken].initialized, \"Farm does not exist.\");\r\n        collectRewardsForFarm(_lpToken);\r\n        \r\n        UserInfo storage userInfo = farms[_lpToken].users[_msgSender()];\r\n        require(userInfo.depositedAmount >= _amount, \"Withdrawal amount is greater than deposited.\");\r\n        userInfo.depositedAmount -= _amount;\r\n\r\n        require(ERC20(_lpToken).transfer(_msgSender(), _amount), \"Transfer failed\");\r\n    }\r\n\r\n    ////////////////////////////////////////////////////////////////////////////////////////////////////\r\n    // Redeeming reward\r\n    ////////////////////////////////////////////////////////////////////////////////////////////////////\r\n\r\n    /**\r\n     * @notice Allows liquidity providers to harvest their reward from depositing LP tokens. Farm for specific\r\n     * LP token needs to be added by contract owner and liquidity provider needs to have some tokens already deposited.\r\n     * Specified amount to be harvested needs to be smaller or equal to reward collected through specific farm.\r\n     * As a result, specified amount of reward token will be transferred to liquidity provider's wallet.\r\n     */\r\n    /// @param _lpToken Address of LP token for which reward is calculated\r\n    /// @param _amount Amount of reward token that is being harvested\r\n    function harvest(address _lpToken, uint _amount) \r\n        external\r\n    {\r\n        require(farms[_lpToken].initialized, \"Farm does not exist.\");\r\n        collectRewardsForFarm(_lpToken);\r\n        \r\n        UserInfo storage userInfo = farms[_lpToken].users[_msgSender()];\r\n        require(userInfo.earnedReward >= _amount, \"Harvest amount is greater than collected.\");\r\n        userInfo.earnedReward -= _amount;\r\n\r\n        require(rewardToken.transfer(_msgSender(), _amount), \"Transfer failed\");\r\n    }\r\n\r\n    ////////////////////////////////////////////////////////////////////////////////////////////////////\r\n    // Reading functions\r\n    ////////////////////////////////////////////////////////////////////////////////////////////////////\r\n\r\n    /// @param _lpToken Address of LP token which is being farmed\r\n    /// @param _user Address of liquidity provider for who reward is calculated\r\n    /// @return Earned amount of reward token\r\n    function getEarnedReward(address _lpToken, address _user) \r\n        external\r\n        view\r\n        returns (uint)\r\n    {\r\n        uint farmBalance = ERC20(_lpToken).balanceOf(address(this));\r\n        uint blockNumber = block.number - farms[_lpToken].lastBlock;\r\n\r\n        UserInfo memory userInfo = farms[_lpToken].users[_user];\r\n        uint newReward = totalFarmWeight == 0 || farmBalance == 0 ?\r\n            0 :\r\n            userInfo.depositedAmount * farms[_lpToken].farmWeight * rewardPerBlock * blockNumber / (totalFarmWeight * farmBalance); \r\n        uint totalReward = userInfo.earnedReward + newReward;\r\n\r\n        return totalReward;\r\n    }\r\n\r\n    /// @param _lpToken Address of LP token which is being farmed\r\n    /// @param _user Address of liquidity provider/user\r\n    /// @return Amount of LP tokens deposited by specified user\r\n    function getDepositedAmount(address _lpToken, address _user) \r\n        external\r\n        view\r\n        returns (uint)\r\n    {\r\n        return farms[_lpToken].users[_user].depositedAmount;\r\n    }\r\n\r\n    ////////////////////////////////////////////////////////////////////////////////////////////////////\r\n    // Helper functions\r\n    ////////////////////////////////////////////////////////////////////////////////////////////////////\r\n\r\n    function collectRewardsForFarm(address _lpToken) \r\n        private\r\n    {\r\n        FarmInfo storage farmInfo = farms[_lpToken];\r\n        uint farmBalance = ERC20(_lpToken).balanceOf(address(this));\r\n        uint blockNumber = block.number - farmInfo.lastBlock;\r\n\r\n        if (totalFarmWeight != 0 && farmBalance != 0) {\r\n            for(uint i = 0; i < farmInfo.userList.length; i++) \r\n            {\r\n                UserInfo storage userInfo = farmInfo.users[farmInfo.userList[i]];\r\n\r\n                uint reward = userInfo.depositedAmount * farmInfo.farmWeight * rewardPerBlock * blockNumber / (totalFarmWeight * farmBalance); \r\n\r\n                userInfo.earnedReward = userInfo.earnedReward + reward;\r\n            }\r\n        }\r\n\r\n        farmInfo.lastBlock = block.number;\r\n    }\r\n\r\n    function collectRewards()\r\n        private\r\n    {\r\n        for(uint i = 0; i < farmList.length; i++) \r\n        {\r\n            collectRewardsForFarm(farmList[i]);\r\n        }\r\n    }\r\n\r\n    ////////////////////////////////////////////////////////////////////////////////////////////////////\r\n    // Miscellaneous\r\n    ////////////////////////////////////////////////////////////////////////////////////////////////////\r\n\r\n    /**\r\n     * @notice Enable recovery of ether sent by mistake to this contract's address.\r\n     */\r\n    function drainStrayEther(uint _amount)\r\n        external\r\n        onlyOwner\r\n        returns (bool)\r\n    {\r\n        payable(owner()).transfer(_amount);\r\n        return true;\r\n    }\r\n\r\n    /**\r\n     * @notice Enable recovery of any ERC20 compatible token sent by mistake to this contract's address.\r\n     * The only token that cannot be drained is LP token for which farm is established.\r\n     */\r\n    function drainStrayTokens(IERC20 _token, uint _amount)\r\n        external\r\n        onlyOwner\r\n        returns (bool)\r\n    {\r\n        require(!farms[address(_token)].initialized, \"LP tokens cannot be drained\");\r\n        return _token.transfer(owner(), _amount);\r\n    }\r\n}\r\n",
  "sourcePath": "C:/Users/User/Source/Repos/SmartContracts-1/src/contracts/CHXMasterFarm.sol",
  "compiler": {
    "name": "solc",
    "version": "0.8.0+commit.c7dfd78e.Emscripten.clang"
  },
  "schemaVersion": "3.3.3",
  "updatedAt": "2022-02-09T14:40:19.095Z",
  "devdoc": {
    "kind": "dev",
    "methods": {
      "addFarm(address,uint256)": {
        "params": {
          "_farmWeight": "Weight of newly added farm",
          "_lpToken": "Address of LP token which will be farmed"
        }
      },
      "deposit(address,uint256)": {
        "params": {
          "_amount": "Amount of LP tokens that is being deposited",
          "_lpToken": "Address of LP token which is being deposited"
        }
      },
      "getDepositedAmount(address,address)": {
        "params": {
          "_lpToken": "Address of LP token which is being farmed",
          "_user": "Address of liquidity provider/user"
        },
        "returns": {
          "_0": "Amount of LP tokens deposited by specified user"
        }
      },
      "getEarnedReward(address,address)": {
        "params": {
          "_lpToken": "Address of LP token which is being farmed",
          "_user": "Address of liquidity provider for who reward is calculated"
        },
        "returns": {
          "_0": "Earned amount of reward token"
        }
      },
      "harvest(address,uint256)": {
        "params": {
          "_amount": "Amount of reward token that is being harvested",
          "_lpToken": "Address of LP token for which reward is calculated"
        }
      },
      "owner()": {
        "details": "Returns the address of the current owner."
      },
      "renounceOwnership()": {
        "details": "Leaves the contract without owner. It will not be possible to call `onlyOwner` functions anymore. Can only be called by the current owner. NOTE: Renouncing ownership will leave the contract without an owner, thereby removing any functionality that is only available to the owner."
      },
      "setFarmWeight(address,uint256)": {
        "params": {
          "_farmWeight": "New weight of the farm",
          "_lpToken": "Address of LP token whose farm weight is updated "
        }
      },
      "setReward(uint256)": {
        "params": {
          "_rewardPerBlock": "New reward per block"
        }
      },
      "transferOwnership(address)": {
        "details": "Transfers ownership of the contract to a new account (`newOwner`). Can only be called by the current owner."
      },
      "withdraw(address,uint256)": {
        "params": {
          "_amount": "Amount of LP tokens that is being withdrawn",
          "_lpToken": "Address of LP token which is being withdrawn "
        }
      }
    },
    "version": 1
  },
  "userdoc": {
    "kind": "user",
    "methods": {
      "drainStrayEther(uint256)": {
        "notice": "Enable recovery of ether sent by mistake to this contract's address."
      },
      "drainStrayTokens(address,uint256)": {
        "notice": "Enable recovery of any ERC20 compatible token sent by mistake to this contract's address. The only token that cannot be drained is LP token for which farm is established."
      }
    },
    "notice": "This contract is used to manage farms for which DEFX is provided as a reward. Contract owner can add any number of farms which are based on ERC20 tokens. Initial intent is to only accept LP tokens, but smart contract can accept any ERC20 token for farm establishment. Users deposit their tokens in the farm, and are rewareded with DEFX token in return. Fixed amount of DEFX, determined by contract owner, is distributed in every block and is divided accross all farms, in ratio defined by weight of every farm. All users who deposited token in the farm receive reward proportional to amount they have deposited in current block. ",
    "version": 1
  }
}