{
  "contractName": "DEFXStakingPool",
  "abi": [
    {
      "inputs": [
        {
          "internalType": "address",
          "name": "_tokenContractAddress",
          "type": "address"
        },
        {
          "internalType": "uint256",
          "name": "_annualInterestRate",
          "type": "uint256"
        },
        {
          "internalType": "uint256",
          "name": "_rewardTimeSpan",
          "type": "uint256"
        }
      ],
      "stateMutability": "nonpayable",
      "type": "constructor"
    },
    {
      "anonymous": false,
      "inputs": [
        {
          "indexed": true,
          "internalType": "address",
          "name": "previousOwner",
          "type": "address"
        },
        {
          "indexed": true,
          "internalType": "address",
          "name": "newOwner",
          "type": "address"
        }
      ],
      "name": "OwnershipTransferred",
      "type": "event"
    },
    {
      "inputs": [],
      "name": "annualInterestRate",
      "outputs": [
        {
          "internalType": "uint256",
          "name": "",
          "type": "uint256"
        }
      ],
      "stateMutability": "view",
      "type": "function"
    },
    {
      "inputs": [],
      "name": "defxToken",
      "outputs": [
        {
          "internalType": "contract DEFX",
          "name": "",
          "type": "address"
        }
      ],
      "stateMutability": "view",
      "type": "function"
    },
    {
      "inputs": [],
      "name": "owner",
      "outputs": [
        {
          "internalType": "address",
          "name": "",
          "type": "address"
        }
      ],
      "stateMutability": "view",
      "type": "function"
    },
    {
      "inputs": [],
      "name": "renounceOwnership",
      "outputs": [],
      "stateMutability": "nonpayable",
      "type": "function"
    },
    {
      "inputs": [],
      "name": "rewardTimeSpan",
      "outputs": [
        {
          "internalType": "uint256",
          "name": "",
          "type": "uint256"
        }
      ],
      "stateMutability": "view",
      "type": "function"
    },
    {
      "inputs": [
        {
          "internalType": "address",
          "name": "",
          "type": "address"
        },
        {
          "internalType": "uint256",
          "name": "",
          "type": "uint256"
        }
      ],
      "name": "stakedBalances",
      "outputs": [
        {
          "internalType": "uint256",
          "name": "time",
          "type": "uint256"
        },
        {
          "internalType": "uint256",
          "name": "amount",
          "type": "uint256"
        }
      ],
      "stateMutability": "view",
      "type": "function"
    },
    {
      "inputs": [],
      "name": "totalStakedAmount",
      "outputs": [
        {
          "internalType": "uint256",
          "name": "",
          "type": "uint256"
        }
      ],
      "stateMutability": "view",
      "type": "function"
    },
    {
      "inputs": [
        {
          "internalType": "address",
          "name": "newOwner",
          "type": "address"
        }
      ],
      "name": "transferOwnership",
      "outputs": [],
      "stateMutability": "nonpayable",
      "type": "function"
    },
    {
      "inputs": [
        {
          "internalType": "uint256",
          "name": "_interestRate",
          "type": "uint256"
        }
      ],
      "name": "setAnnualInterestRate",
      "outputs": [],
      "stateMutability": "nonpayable",
      "type": "function"
    },
    {
      "inputs": [
        {
          "internalType": "uint256",
          "name": "_timeSpan",
          "type": "uint256"
        }
      ],
      "name": "setRewardTimeSpan",
      "outputs": [],
      "stateMutability": "nonpayable",
      "type": "function"
    },
    {
      "inputs": [
        {
          "internalType": "uint256",
          "name": "_amount",
          "type": "uint256"
        }
      ],
      "name": "withdrawUnusedBalance",
      "outputs": [],
      "stateMutability": "nonpayable",
      "type": "function"
    },
    {
      "inputs": [
        {
          "internalType": "uint256",
          "name": "_amount",
          "type": "uint256"
        }
      ],
      "name": "stake",
      "outputs": [],
      "stateMutability": "nonpayable",
      "type": "function"
    },
    {
      "inputs": [
        {
          "internalType": "uint256",
          "name": "_amount",
          "type": "uint256"
        }
      ],
      "name": "unstake",
      "outputs": [],
      "stateMutability": "nonpayable",
      "type": "function"
    },
    {
      "inputs": [
        {
          "internalType": "address",
          "name": "_staker",
          "type": "address"
        },
        {
          "internalType": "uint256",
          "name": "_amount",
          "type": "uint256"
        }
      ],
      "name": "redeemRewardToStaker",
      "outputs": [],
      "stateMutability": "nonpayable",
      "type": "function"
    },
    {
      "inputs": [
        {
          "internalType": "uint256",
          "name": "_amount",
          "type": "uint256"
        }
      ],
      "name": "redeemReward",
      "outputs": [],
      "stateMutability": "nonpayable",
      "type": "function"
    },
    {
      "inputs": [
        {
          "internalType": "address",
          "name": "_staker",
          "type": "address"
        }
      ],
      "name": "getEarnedReward",
      "outputs": [
        {
          "internalType": "uint256",
          "name": "",
          "type": "uint256"
        }
      ],
      "stateMutability": "view",
      "type": "function"
    },
    {
      "inputs": [
        {
          "internalType": "address",
          "name": "_staker",
          "type": "address"
        }
      ],
      "name": "getStakedAmount",
      "outputs": [
        {
          "internalType": "uint256",
          "name": "",
          "type": "uint256"
        }
      ],
      "stateMutability": "view",
      "type": "function"
    },
    {
      "inputs": [
        {
          "internalType": "uint256",
          "name": "_amount",
          "type": "uint256"
        }
      ],
      "name": "drainStrayEther",
      "outputs": [
        {
          "internalType": "bool",
          "name": "",
          "type": "bool"
        }
      ],
      "stateMutability": "nonpayable",
      "type": "function"
    },
    {
      "inputs": [
        {
          "internalType": "contract IERC20",
          "name": "_token",
          "type": "address"
        },
        {
          "internalType": "uint256",
          "name": "_amount",
          "type": "uint256"
        }
      ],
      "name": "drainStrayTokens",
      "outputs": [
        {
          "internalType": "bool",
          "name": "",
          "type": "bool"
        }
      ],
      "stateMutability": "nonpayable",
      "type": "function"
    }
  ],
  "bytecode": "0x60806040523480156200001157600080fd5b5060405162002b9c38038062002b9c833981810160405260608110156200003757600080fd5b8101908080519060200190929190805190602001909291908051906020019092919050505060006200006e620001c660201b60201c565b9050806000806101000a81548173ffffffffffffffffffffffffffffffffffffffff021916908373ffffffffffffffffffffffffffffffffffffffff1602179055508073ffffffffffffffffffffffffffffffffffffffff16600073ffffffffffffffffffffffffffffffffffffffff167f8be0079c531659141344cd1fd0a4f28419497f9722a3daafe3b4186f6b6457e060405160405180910390a35082600160006101000a81548173ffffffffffffffffffffffffffffffffffffffff021916908373ffffffffffffffffffffffffffffffffffffffff1602179055508160038190555080600281905550600067ffffffffffffffff811180156200017457600080fd5b50604051908082528060200260200182016040528015620001a45781602001602082028036833780820191505090505b5060049080519060200190620001bc929190620001ce565b505050506200029a565b600033905090565b8280548282559060005260206000209081019282156200024a579160200282015b82811115620002495782518260006101000a81548173ffffffffffffffffffffffffffffffffffffffff021916908373ffffffffffffffffffffffffffffffffffffffff16021790555091602001919060010190620001ef565b5b5090506200025991906200025d565b5090565b5b808211156200029657600081816101000a81549073ffffffffffffffffffffffffffffffffffffffff0219169055506001016200025e565b5090565b6128f280620002aa6000396000f3fe608060405234801561001057600080fd5b50600436106101215760003560e01c806351a71b17116100ad5780638da5cb5b116100715780638da5cb5b14610437578063a694fc3a1461046b578063de1670f514610499578063e2210f47146104c7578063f2fde38b1461051557610121565b806351a71b171461036b578063567e98f914610399578063715018a6146103b75780637c7bd7a3146103c1578063846a4b58146103df57610121565b80632e17de78116100f45780632e17de781461020a5780633582c4c81461023857806342bf41ae146102665780634da6a556146102aa5780634e94cc221461030257610121565b8063029d74cb14610126578063050b8c661461015457806309d0cc00146101b85780631a9703da146101ec575b600080fd5b6101526004803603602081101561013c57600080fd5b8101908080359060200190929190505050610559565b005b6101a06004803603604081101561016a57600080fd5b81019080803573ffffffffffffffffffffffffffffffffffffffff169060200190929190803590602001909291905050506108ad565b60405180821515815260200191505060405180910390f35b6101c0610af6565b604051808273ffffffffffffffffffffffffffffffffffffffff16815260200191505060405180910390f35b6101f4610b1c565b6040518082815260200191505060405180910390f35b6102366004803603602081101561022057600080fd5b8101908080359060200190929190505050610b22565b005b6102646004803603602081101561024e57600080fd5b8101908080359060200190929190505050610fd0565b005b6102926004803603602081101561027c57600080fd5b81019080803590602001909291905050506110aa565b60405180821515815260200191505060405180910390f35b6102ec600480360360208110156102c057600080fd5b81019080803573ffffffffffffffffffffffffffffffffffffffff1690602001909291905050506111cb565b6040518082815260200191505060405180910390f35b61034e6004803603604081101561031857600080fd5b81019080803573ffffffffffffffffffffffffffffffffffffffff16906020019092919080359060200190929190505050611214565b604051808381526020018281526020019250505060405180910390f35b6103976004803603602081101561038157600080fd5b8101908080359060200190929190505050611252565b005b6103a1611266565b6040518082815260200191505060405180910390f35b6103bf61126c565b005b6103c96113f2565b6040518082815260200191505060405180910390f35b610421600480360360208110156103f557600080fd5b81019080803573ffffffffffffffffffffffffffffffffffffffff1690602001909291905050506113f8565b6040518082815260200191505060405180910390f35b61043f611581565b604051808273ffffffffffffffffffffffffffffffffffffffff16815260200191505060405180910390f35b6104976004803603602081101561048157600080fd5b81019080803590602001909291905050506115aa565b005b6104c5600480360360208110156104af57600080fd5b8101908080359060200190929190505050611a49565b005b610513600480360360408110156104dd57600080fd5b81019080803573ffffffffffffffffffffffffffffffffffffffff16906020019092919080359060200190929190505050611b23565b005b6105576004803603602081101561052b57600080fd5b81019080803573ffffffffffffffffffffffffffffffffffffffff169060200190929190505050611bf9565b005b610561611e04565b73ffffffffffffffffffffffffffffffffffffffff1660008054906101000a900473ffffffffffffffffffffffffffffffffffffffff1673ffffffffffffffffffffffffffffffffffffffff1614610621576040517f08c379a00000000000000000000000000000000000000000000000000000000081526004018080602001828103825260208152602001807f4f776e61626c653a2063616c6c6572206973206e6f7420746865206f776e657281525060200191505060405180910390fd5b610629611e0c565b81600160009054906101000a900473ffffffffffffffffffffffffffffffffffffffff1673ffffffffffffffffffffffffffffffffffffffff166370a08231306040518263ffffffff1660e01b8152600401808273ffffffffffffffffffffffffffffffffffffffff16815260200191505060206040518083038186803b1580156106b357600080fd5b505afa1580156106c7573d6000803e3d6000fd5b505050506040513d60208110156106dd57600080fd5b8101908080519060200190929190505050031015610763576040517f08c379a000000000000000000000000000000000000000000000000000000000815260040180806020018281038252601f8152602001807f4d6178207769746864726177616c20616d6f756e742065786365656465642e0081525060200191505060405180910390fd5b600160009054906101000a900473ffffffffffffffffffffffffffffffffffffffff1673ffffffffffffffffffffffffffffffffffffffff1663a9059cbb6107a9611581565b836040518363ffffffff1660e01b8152600401808373ffffffffffffffffffffffffffffffffffffffff16815260200182815260200192505050602060405180830381600087803b1580156107fd57600080fd5b505af1158015610811573d6000803e3d6000fd5b505050506040513d602081101561082757600080fd5b81019080805190602001909291905050506108aa576040517f08c379a000000000000000000000000000000000000000000000000000000000815260040180806020018281038252600f8152602001807f5472616e73666572206661696c6564000000000000000000000000000000000081525060200191505060405180910390fd5b50565b60006108b7611e04565b73ffffffffffffffffffffffffffffffffffffffff1660008054906101000a900473ffffffffffffffffffffffffffffffffffffffff1673ffffffffffffffffffffffffffffffffffffffff1614610977576040517f08c379a00000000000000000000000000000000000000000000000000000000081526004018080602001828103825260208152602001807f4f776e61626c653a2063616c6c6572206973206e6f7420746865206f776e657281525060200191505060405180910390fd5b600160009054906101000a900473ffffffffffffffffffffffffffffffffffffffff1673ffffffffffffffffffffffffffffffffffffffff168373ffffffffffffffffffffffffffffffffffffffff161415610a3b576040517f08c379a00000000000000000000000000000000000000000000000000000000081526004018080602001828103825260168152602001807f444546582063616e6e6f7420626520647261696e65640000000000000000000081525060200191505060405180910390fd5b8273ffffffffffffffffffffffffffffffffffffffff1663a9059cbb610a5f611581565b846040518363ffffffff1660e01b8152600401808373ffffffffffffffffffffffffffffffffffffffff16815260200182815260200192505050602060405180830381600087803b158015610ab357600080fd5b505af1158015610ac7573d6000803e3d6000fd5b505050506040513d6020811015610add57600080fd5b8101908080519060200190929190505050905092915050565b600160009054906101000a900473ffffffffffffffffffffffffffffffffffffffff1681565b60035481565b60066000610b2e611e04565b73ffffffffffffffffffffffffffffffffffffffff1673ffffffffffffffffffffffffffffffffffffffff16815260200190815260200160002054811115610bc1576040517f08c379a00000000000000000000000000000000000000000000000000000000081526004018080602001828103825260228152602001806128546022913960400191505060405180910390fd5b610bd1610bcc611e04565b611e4d565b60008190506000600160056000610be6611e04565b73ffffffffffffffffffffffffffffffffffffffff1673ffffffffffffffffffffffffffffffffffffffff168152602001908152602001600020805490500390505b60008110610dc657600060056000610c3e611e04565b73ffffffffffffffffffffffffffffffffffffffff1673ffffffffffffffffffffffffffffffffffffffff1681526020019081526020016000208281548110610c8357fe5b9060005260206000209060020201600101549050808310610d2a57610cb1818461207990919063ffffffff16565b925060056000610cbf611e04565b73ffffffffffffffffffffffffffffffffffffffff1673ffffffffffffffffffffffffffffffffffffffff1681526020019081526020016000208281548110610d0457fe5b906000526020600020906002020160008082016000905560018201600090555050610da8565b610d3d838261207990919063ffffffff16565b60056000610d49611e04565b73ffffffffffffffffffffffffffffffffffffffff1673ffffffffffffffffffffffffffffffffffffffff1681526020019081526020016000208381548110610d8e57fe5b906000526020600020906002020160010181905550600092505b6000831415610db75750610dc6565b50808060019003915050610c28565b50600160009054906101000a900473ffffffffffffffffffffffffffffffffffffffff1673ffffffffffffffffffffffffffffffffffffffff1663a9059cbb610e0d611e04565b846040518363ffffffff1660e01b8152600401808373ffffffffffffffffffffffffffffffffffffffff16815260200182815260200192505050602060405180830381600087803b158015610e6157600080fd5b505af1158015610e75573d6000803e3d6000fd5b505050506040513d6020811015610e8b57600080fd5b8101908080519060200190929190505050610f0e576040517f08c379a000000000000000000000000000000000000000000000000000000000815260040180806020018281038252600f8152602001807f5472616e73666572206661696c6564000000000000000000000000000000000081525060200191505060405180910390fd5b610f678260066000610f1e611e04565b73ffffffffffffffffffffffffffffffffffffffff1673ffffffffffffffffffffffffffffffffffffffff1681526020019081526020016000205461207990919063ffffffff16565b60066000610f73611e04565b73ffffffffffffffffffffffffffffffffffffffff1673ffffffffffffffffffffffffffffffffffffffff16815260200190815260200160002081905550610fc68260075461207990919063ffffffff16565b6007819055505050565b610fd8611e04565b73ffffffffffffffffffffffffffffffffffffffff1660008054906101000a900473ffffffffffffffffffffffffffffffffffffffff1673ffffffffffffffffffffffffffffffffffffffff1614611098576040517f08c379a00000000000000000000000000000000000000000000000000000000081526004018080602001828103825260208152602001807f4f776e61626c653a2063616c6c6572206973206e6f7420746865206f776e657281525060200191505060405180910390fd5b6110a06120c3565b8060038190555050565b60006110b4611e04565b73ffffffffffffffffffffffffffffffffffffffff1660008054906101000a900473ffffffffffffffffffffffffffffffffffffffff1673ffffffffffffffffffffffffffffffffffffffff1614611174576040517f08c379a00000000000000000000000000000000000000000000000000000000081526004018080602001828103825260208152602001807f4f776e61626c653a2063616c6c6572206973206e6f7420746865206f776e657281525060200191505060405180910390fd5b61117c611581565b73ffffffffffffffffffffffffffffffffffffffff166108fc839081150290604051600060405180830381858888f193505050501580156111c1573d6000803e3d6000fd5b5060019050919050565b6000600660008373ffffffffffffffffffffffffffffffffffffffff1673ffffffffffffffffffffffffffffffffffffffff168152602001908152602001600020549050919050565b6005602052816000526040600020818154811061122d57fe5b9060005260206000209060020201600091509150508060000154908060010154905082565b61126361125d611e04565b826121a3565b50565b60075481565b611274611e04565b73ffffffffffffffffffffffffffffffffffffffff1660008054906101000a900473ffffffffffffffffffffffffffffffffffffffff1673ffffffffffffffffffffffffffffffffffffffff1614611334576040517f08c379a00000000000000000000000000000000000000000000000000000000081526004018080602001828103825260208152602001807f4f776e61626c653a2063616c6c6572206973206e6f7420746865206f776e657281525060200191505060405180910390fd5b600073ffffffffffffffffffffffffffffffffffffffff1660008054906101000a900473ffffffffffffffffffffffffffffffffffffffff1673ffffffffffffffffffffffffffffffffffffffff167f8be0079c531659141344cd1fd0a4f28419497f9722a3daafe3b4186f6b6457e060405160405180910390a360008060006101000a81548173ffffffffffffffffffffffffffffffffffffffff021916908373ffffffffffffffffffffffffffffffffffffffff160217905550565b60025481565b600080600860008473ffffffffffffffffffffffffffffffffffffffff1673ffffffffffffffffffffffffffffffffffffffff16815260200190815260200160002054905060005b600560008573ffffffffffffffffffffffffffffffffffffffff1673ffffffffffffffffffffffffffffffffffffffff16815260200190815260200160002080549050811015611577576000600560008673ffffffffffffffffffffffffffffffffffffffff1673ffffffffffffffffffffffffffffffffffffffff16815260200190815260200160002082815481106114d657fe5b90600052602060002090600202016000015490506000600560008773ffffffffffffffffffffffffffffffffffffffff1673ffffffffffffffffffffffffffffffffffffffff168152602001908152602001600020838154811061153657fe5b9060005260206000209060020201600101549050611566611557838361241d565b856124c390919063ffffffff16565b935050508080600101915050611440565b5080915050919050565b60008060009054906101000a900473ffffffffffffffffffffffffffffffffffffffff16905090565b6115bf816007546124c390919063ffffffff16565b6007819055506115cd611e0c565b81600160009054906101000a900473ffffffffffffffffffffffffffffffffffffffff1673ffffffffffffffffffffffffffffffffffffffff166370a08231306040518263ffffffff1660e01b8152600401808273ffffffffffffffffffffffffffffffffffffffff16815260200191505060206040518083038186803b15801561165757600080fd5b505afa15801561166b573d6000803e3d6000fd5b505050506040513d602081101561168157600080fd5b81019080805190602001909291905050500110156116ea576040517f08c379a00000000000000000000000000000000000000000000000000000000081526004018080602001828103825260318152602001806128236031913960400191505060405180910390fd5b600160009054906101000a900473ffffffffffffffffffffffffffffffffffffffff1673ffffffffffffffffffffffffffffffffffffffff166323b872dd611730611e04565b30846040518463ffffffff1660e01b8152600401808473ffffffffffffffffffffffffffffffffffffffff1681526020018373ffffffffffffffffffffffffffffffffffffffff1681526020018281526020019350505050602060405180830381600087803b1580156117a257600080fd5b505af11580156117b6573d6000803e3d6000fd5b505050506040513d60208110156117cc57600080fd5b810190808051906020019092919050505061184f576040517f08c379a000000000000000000000000000000000000000000000000000000000815260040180806020018281038252600f8152602001807f5472616e73666572206661696c6564000000000000000000000000000000000081525060200191505060405180910390fd5b60006006600061185d611e04565b73ffffffffffffffffffffffffffffffffffffffff1673ffffffffffffffffffffffffffffffffffffffff1681526020019081526020016000205414156119095760046118a8611e04565b9080600181540180825580915050600190039060005260206000200160009091909190916101000a81548173ffffffffffffffffffffffffffffffffffffffff021916908373ffffffffffffffffffffffffffffffffffffffff1602179055505b60056000611915611e04565b73ffffffffffffffffffffffffffffffffffffffff1673ffffffffffffffffffffffffffffffffffffffff1681526020019081526020016000206040518060400160405280428152602001838152509080600181540180825580915050600190039060005260206000209060020201600090919091909150600082015181600001556020820151816001015550506119fc81600660006119b3611e04565b73ffffffffffffffffffffffffffffffffffffffff1673ffffffffffffffffffffffffffffffffffffffff168152602001908152602001600020546124c390919063ffffffff16565b60066000611a08611e04565b73ffffffffffffffffffffffffffffffffffffffff1673ffffffffffffffffffffffffffffffffffffffff1681526020019081526020016000208190555050565b611a51611e04565b73ffffffffffffffffffffffffffffffffffffffff1660008054906101000a900473ffffffffffffffffffffffffffffffffffffffff1673ffffffffffffffffffffffffffffffffffffffff1614611b11576040517f08c379a00000000000000000000000000000000000000000000000000000000081526004018080602001828103825260208152602001807f4f776e61626c653a2063616c6c6572206973206e6f7420746865206f776e657281525060200191505060405180910390fd5b611b196120c3565b8060028190555050565b611b2b611e04565b73ffffffffffffffffffffffffffffffffffffffff1660008054906101000a900473ffffffffffffffffffffffffffffffffffffffff1673ffffffffffffffffffffffffffffffffffffffff1614611beb576040517f08c379a00000000000000000000000000000000000000000000000000000000081526004018080602001828103825260208152602001807f4f776e61626c653a2063616c6c6572206973206e6f7420746865206f776e657281525060200191505060405180910390fd5b611bf582826121a3565b5050565b611c01611e04565b73ffffffffffffffffffffffffffffffffffffffff1660008054906101000a900473ffffffffffffffffffffffffffffffffffffffff1673ffffffffffffffffffffffffffffffffffffffff1614611cc1576040517f08c379a00000000000000000000000000000000000000000000000000000000081526004018080602001828103825260208152602001807f4f776e61626c653a2063616c6c6572206973206e6f7420746865206f776e657281525060200191505060405180910390fd5b600073ffffffffffffffffffffffffffffffffffffffff168173ffffffffffffffffffffffffffffffffffffffff161415611d47576040517f08c379a00000000000000000000000000000000000000000000000000000000081526004018080602001828103825260268152602001806127fd6026913960400191505060405180910390fd5b8073ffffffffffffffffffffffffffffffffffffffff1660008054906101000a900473ffffffffffffffffffffffffffffffffffffffff1673ffffffffffffffffffffffffffffffffffffffff167f8be0079c531659141344cd1fd0a4f28419497f9722a3daafe3b4186f6b6457e060405160405180910390a3806000806101000a81548173ffffffffffffffffffffffffffffffffffffffff021916908373ffffffffffffffffffffffffffffffffffffffff16021790555050565b600033905090565b600080611e40600354611e32670de0b6b3a764000060075461254b90919063ffffffff16565b61259590919063ffffffff16565b9050806007540191505090565b60005b600560008373ffffffffffffffffffffffffffffffffffffffff1673ffffffffffffffffffffffffffffffffffffffff16815260200190815260200160002080549050811015612075576000600560008473ffffffffffffffffffffffffffffffffffffffff1673ffffffffffffffffffffffffffffffffffffffff1681526020019081526020016000208281548110611ee657fe5b90600052602060002090600202016000015490506000600560008573ffffffffffffffffffffffffffffffffffffffff1673ffffffffffffffffffffffffffffffffffffffff1681526020019081526020016000208381548110611f4657fe5b90600052602060002090600202016001015490506000611f66838361241d565b9050611fba81600860008873ffffffffffffffffffffffffffffffffffffffff1673ffffffffffffffffffffffffffffffffffffffff168152602001908152602001600020546124c390919063ffffffff16565b600860008773ffffffffffffffffffffffffffffffffffffffff1673ffffffffffffffffffffffffffffffffffffffff168152602001908152602001600020819055506120068361261b565b600560008773ffffffffffffffffffffffffffffffffffffffff1673ffffffffffffffffffffffffffffffffffffffff168152602001908152602001600020858154811061205057fe5b9060005260206000209060020201600001819055505050508080600101915050611e50565b5050565b60006120bb83836040518060400160405280601e81526020017f536166654d6174683a207375627472616374696f6e206f766572666c6f770000815250612676565b905092915050565b60005b6004805490508110156121a057600060066000600484815481106120e657fe5b9060005260206000200160009054906101000a900473ffffffffffffffffffffffffffffffffffffffff1673ffffffffffffffffffffffffffffffffffffffff1673ffffffffffffffffffffffffffffffffffffffff168152602001908152602001600020541115612193576121926004828154811061216257fe5b9060005260206000200160009054906101000a900473ffffffffffffffffffffffffffffffffffffffff16611e4d565b5b80806001019150506120c6565b50565b6121ac82611e4d565b600860008373ffffffffffffffffffffffffffffffffffffffff1673ffffffffffffffffffffffffffffffffffffffff16815260200190815260200160002054811115612244576040517f08c379a00000000000000000000000000000000000000000000000000000000081526004018080602001828103825260268152602001806128766026913960400191505060405180910390fd5b600160009054906101000a900473ffffffffffffffffffffffffffffffffffffffff1673ffffffffffffffffffffffffffffffffffffffff1663a9059cbb83836040518363ffffffff1660e01b8152600401808373ffffffffffffffffffffffffffffffffffffffff16815260200182815260200192505050602060405180830381600087803b1580156122d757600080fd5b505af11580156122eb573d6000803e3d6000fd5b505050506040513d602081101561230157600080fd5b8101908080519060200190929190505050612384576040517f08c379a00000000000000000000000000000000000000000000000000000000081526004018080602001828103825260108152602001807f5472616e73666572206661696c65642e0000000000000000000000000000000081525060200191505060405180910390fd5b6123d681600860008573ffffffffffffffffffffffffffffffffffffffff1673ffffffffffffffffffffffffffffffffffffffff1681526020019081526020016000205461207990919063ffffffff16565b600860008473ffffffffffffffffffffffffffffffffffffffff1673ffffffffffffffffffffffffffffffffffffffff168152602001908152602001600020819055505050565b600080612447600254612439864261207990919063ffffffff16565b61254b90919063ffffffff16565b905060006124786301e1338061246a60025460035461259590919063ffffffff16565b61254b90919063ffffffff16565b90506124b9670de0b6b3a76400006124ab8661249d858761259590919063ffffffff16565b61259590919063ffffffff16565b61254b90919063ffffffff16565b9250505092915050565b600080828401905083811015612541576040517f08c379a000000000000000000000000000000000000000000000000000000000815260040180806020018281038252601b8152602001807f536166654d6174683a206164646974696f6e206f766572666c6f77000000000081525060200191505060405180910390fd5b8091505092915050565b600061258d83836040518060400160405280601a81526020017f536166654d6174683a206469766973696f6e206279207a65726f000000000000815250612736565b905092915050565b6000808314156125a85760009050612615565b60008284029050828482816125b957fe5b0414612610576040517f08c379a000000000000000000000000000000000000000000000000000000000815260040180806020018281038252602181526020018061289c6021913960400191505060405180910390fd5b809150505b92915050565b600080612645600254612637854261207990919063ffffffff16565b61254b90919063ffffffff16565b905061266e61265f6002548361259590919063ffffffff16565b846124c390919063ffffffff16565b915050919050565b6000838311158290612723576040517f08c379a00000000000000000000000000000000000000000000000000000000081526004018080602001828103825283818151815260200191508051906020019080838360005b838110156126e85780820151818401526020810190506126cd565b50505050905090810190601f1680156127155780820380516001836020036101000a031916815260200191505b509250505060405180910390fd5b5060008385039050809150509392505050565b600080831182906127e2576040517f08c379a00000000000000000000000000000000000000000000000000000000081526004018080602001828103825283818151815260200191508051906020019080838360005b838110156127a757808201518184015260208101905061278c565b50505050905090810190601f1680156127d45780820380516001836020036101000a031916815260200191505b509250505060405180910390fd5b5060008385816127ee57fe5b04905080915050939250505056fe4f776e61626c653a206e6577206f776e657220697320746865207a65726f2061646472657373506f6f6c27732062616c616e636520746f6f206c6f7720666f7220636f766572696e6720616e6e75616c207265776172644d6178696d756d207374616b656420616d6f756e742069732065786365656465642e4d6178696d756d2072656465656d61626c65207265776172642069732065786365656465642e536166654d6174683a206d756c7469706c69636174696f6e206f766572666c6f77a26469706673582212201e1889a6293be98ea74ca0f664e46a4e661b9dff02078e41f3e8a09e5048763264736f6c634300060c0033",
  "immutableReferences": {},
  "source": "// SPDX-License-Identifier: MIT\r\npragma solidity 0.6.12;\r\n\r\nimport '@openzeppelin/contracts/access/Ownable.sol';\r\nimport '@openzeppelin/contracts/math/SafeMath.sol';\r\nimport './DEFXToken.sol';\r\n\r\ncontract DEFXStakingPool is Ownable {\r\n    using SafeMath for uint;\r\n    struct StakedBalance { uint time; uint amount; }\r\n\r\n    DEFX public defxToken;\r\n    uint public rewardTimeSpan;\r\n    uint public annualInterestRate;\r\n    \r\n    address[] private stakers;\r\n    mapping (address => StakedBalance[]) public stakedBalances;\r\n    mapping (address => uint) private totalStakedBalances;\r\n    uint public totalStakedAmount;\r\n    mapping (address => uint) private earnedRewards;\r\n\r\n    constructor(address _tokenContractAddress, uint _annualInterestRate, uint _rewardTimeSpan)\r\n        public\r\n    {\r\n        defxToken = DEFX(_tokenContractAddress);\r\n        annualInterestRate = _annualInterestRate;\r\n        rewardTimeSpan = _rewardTimeSpan;\r\n\r\n        stakers = new address[](0);\r\n    }\r\n\r\n    ////////////////////////////////////////////////////////////////////////////////////////////////////\r\n    // Owner configuration\r\n    ////////////////////////////////////////////////////////////////////////////////////////////////////\r\n\r\n    function setAnnualInterestRate(uint _interestRate)\r\n        external\r\n        onlyOwner\r\n    {\r\n        collectRewardForAllStakers();\r\n        annualInterestRate = _interestRate;\r\n    }\r\n\r\n    function setRewardTimeSpan(uint _timeSpan)\r\n        external\r\n        onlyOwner\r\n    {\r\n        collectRewardForAllStakers();\r\n        rewardTimeSpan = _timeSpan;\r\n    }\r\n\r\n    function withdrawUnusedBalance(uint _amount)\r\n        external\r\n        onlyOwner\r\n    {\r\n        require(defxToken.balanceOf(address(this)) - _amount >= getMinContractBalance(), \"Max withdrawal amount exceeded.\");\r\n        require(defxToken.transfer(owner(), _amount), \"Transfer failed\");\r\n    }\r\n\r\n    ////////////////////////////////////////////////////////////////////////////////////////////////////\r\n    // Staking\r\n    ////////////////////////////////////////////////////////////////////////////////////////////////////\r\n\r\n    function stake(uint _amount) \r\n        external\r\n    {\r\n        totalStakedAmount = totalStakedAmount.add(_amount);\r\n        require(defxToken.balanceOf(address(this)) + _amount >= getMinContractBalance(), \"Pool's balance too low for covering annual reward\");\r\n\r\n        require(defxToken.transferFrom(_msgSender(), address(this), _amount), \"Transfer failed\");\r\n\r\n        if(totalStakedBalances[_msgSender()] == 0)\r\n            stakers.push(_msgSender());\r\n        stakedBalances[_msgSender()].push(StakedBalance(block.timestamp, _amount));\r\n\r\n        totalStakedBalances[_msgSender()] = totalStakedBalances[_msgSender()].add(_amount);\r\n    }\r\n\r\n    function unstake(uint _amount) \r\n        external\r\n    {\r\n        require(_amount <= totalStakedBalances[_msgSender()], \"Maximum staked amount is exceeded.\");\r\n        collectReward(_msgSender());\r\n        uint amountToUnstake = _amount;\r\n\r\n        for(uint i = stakedBalances[_msgSender()].length - 1; i >= 0; i--) \r\n        {\r\n            uint amount = stakedBalances[_msgSender()][i].amount;\r\n\r\n            if (amountToUnstake >= amount) {\r\n                amountToUnstake = amountToUnstake.sub(amount);\r\n                delete stakedBalances[_msgSender()][i];\r\n            }\r\n            else { \r\n                stakedBalances[_msgSender()][i].amount = amount.sub(amountToUnstake);\r\n                amountToUnstake = 0;    \r\n            }\r\n\r\n            if (amountToUnstake == 0)\r\n                break;  \r\n        }\r\n\r\n        require(defxToken.transfer(_msgSender(), _amount), \"Transfer failed\");\r\n        totalStakedBalances[_msgSender()] = totalStakedBalances[_msgSender()].sub(_amount);\r\n        totalStakedAmount = totalStakedAmount.sub(_amount);\r\n    }\r\n\r\n    ////////////////////////////////////////////////////////////////////////////////////////////////////\r\n    // Redeeming reward\r\n    ////////////////////////////////////////////////////////////////////////////////////////////////////\r\n\r\n    function redeemRewardToStaker(address _staker, uint _amount)\r\n        external\r\n        onlyOwner\r\n    {\r\n        redeemReward(_staker, _amount);\r\n    }\r\n\r\n    function redeemReward(uint _amount)\r\n        external\r\n    {\r\n        redeemReward(_msgSender(), _amount);\r\n    }\r\n\r\n    function redeemReward(address _staker, uint _amount) \r\n        private\r\n    {\r\n        collectReward(_staker);\r\n        require(_amount <= earnedRewards[_staker], \"Maximum redeemable reward is exceeded.\");\r\n\r\n        require(defxToken.transfer(_staker, _amount), \"Transfer failed.\");\r\n        earnedRewards[_staker] = earnedRewards[_staker].sub(_amount);\r\n    }\r\n\r\n    function collectReward(address _staker)\r\n        private \r\n    {\r\n        for (uint i = 0; i < stakedBalances[_staker].length; i++) \r\n        {\r\n            uint time = stakedBalances[_staker][i].time;\r\n            uint amount = stakedBalances[_staker][i].amount;\r\n\r\n            uint reward = calculateReward(time, amount);\r\n            earnedRewards[_staker] = earnedRewards[_staker].add(reward);\r\n\r\n            stakedBalances[_staker][i].time = getNewTime(time);\r\n        }\r\n    }\r\n\r\n    function collectRewardForAllStakers()\r\n        private \r\n    {\r\n         for (uint i = 0; i < stakers.length; i++) \r\n        {\r\n            if (totalStakedBalances[stakers[i]] > 0) \r\n            {\r\n                collectReward(stakers[i]);\r\n            }\r\n        }\r\n    }\r\n\r\n    ////////////////////////////////////////////////////////////////////////////////////////////////////\r\n    // Reading functions\r\n    ////////////////////////////////////////////////////////////////////////////////////////////////////\r\n\r\n    function getEarnedReward(address _staker)\r\n        public\r\n        view\r\n        returns (uint)\r\n    {\r\n        uint totalAmount = earnedRewards[_staker];\r\n\r\n        for (uint i = 0; i < stakedBalances[_staker].length; i++) \r\n        {\r\n            uint time = stakedBalances[_staker][i].time;\r\n            uint amount = stakedBalances[_staker][i].amount;\r\n\r\n            totalAmount = totalAmount.add(calculateReward(time, amount));\r\n        }\r\n\r\n        return totalAmount;\r\n    }\r\n\r\n    function getStakedAmount(address _staker)\r\n        external\r\n        view\r\n        returns (uint)\r\n    {\r\n        return totalStakedBalances[_staker];\r\n    }\r\n\r\n    ////////////////////////////////////////////////////////////////////////////////////////////////////\r\n    // Helper functions\r\n    ////////////////////////////////////////////////////////////////////////////////////////////////////\r\n\r\n    function calculateReward(uint _time, uint _amount) \r\n        private\r\n        view\r\n        returns (uint)\r\n    {\r\n        uint timeSpanUnits = (block.timestamp.sub(_time)).div(rewardTimeSpan);\r\n        uint unitInterestRate = annualInterestRate.mul(rewardTimeSpan).div(365 days);\r\n        return timeSpanUnits.mul(unitInterestRate).mul(_amount).div(10**18);\r\n    }\r\n\r\n    function getMinContractBalance() \r\n        private\r\n        view\r\n        returns(uint)\r\n    {\r\n        uint expectedAnnualRewards = totalStakedAmount.div(10**18).mul(annualInterestRate);\r\n        return totalStakedAmount + expectedAnnualRewards;\r\n    }\r\n\r\n    function getNewTime(uint _time)\r\n        private\r\n        view\r\n        returns (uint)\r\n    {\r\n        uint timeSpanUnits = (block.timestamp.sub(_time)).div(rewardTimeSpan);\r\n        return _time.add(timeSpanUnits.mul(rewardTimeSpan));\r\n    }\r\n\r\n    ////////////////////////////////////////////////////////////////////////////////////////////////////\r\n    // Miscellaneous\r\n    ////////////////////////////////////////////////////////////////////////////////////////////////////\r\n\r\n    // Enable recovery of ether sent by mistake to this contract's address.\r\n    function drainStrayEther(uint _amount)\r\n        external\r\n        onlyOwner\r\n        returns (bool)\r\n    {\r\n        payable(owner()).transfer(_amount);\r\n        return true;\r\n    }\r\n\r\n    // Enable recovery of any ERC20 compatible token sent by mistake to this contract's address.\r\n    function drainStrayTokens(IERC20 _token, uint _amount)\r\n        external\r\n        onlyOwner\r\n        returns (bool)\r\n    {\r\n        require(address(_token) != address(defxToken), \"DEFX cannot be drained\");\r\n        return _token.transfer(owner(), _amount);\r\n    }\r\n}\r\n",
  "sourcePath": "C:/Users/User/Source/Repos/SmartContracts-1/src/contracts/DEFXStakingPool.sol",
  "compiler": {
    "name": "solc",
    "version": "0.6.12+commit.27d51765.Emscripten.clang"
  },
  "schemaVersion": "3.3.3",
  "updatedAt": "2021-06-10T12:29:06.265Z",
  "devdoc": {
    "kind": "dev",
    "methods": {
      "owner()": {
        "details": "Returns the address of the current owner."
      },
      "renounceOwnership()": {
        "details": "Leaves the contract without owner. It will not be possible to call `onlyOwner` functions anymore. Can only be called by the current owner. NOTE: Renouncing ownership will leave the contract without an owner, thereby removing any functionality that is only available to the owner."
      },
      "transferOwnership(address)": {
        "details": "Transfers ownership of the contract to a new account (`newOwner`). Can only be called by the current owner."
      }
    },
    "version": 1
  },
  "userdoc": {
    "kind": "user",
    "methods": {},
    "version": 1
  }
}