{
  "contractName": "DEFXStakingPool",
  "abi": [
    {
      "inputs": [
        {
          "internalType": "address",
          "name": "_tokenContractAddress",
          "type": "address"
        },
        {
          "internalType": "uint256",
          "name": "_annualInterestRate",
          "type": "uint256"
        },
        {
          "internalType": "uint256",
          "name": "_rewardTimeSpan",
          "type": "uint256"
        }
      ],
      "stateMutability": "nonpayable",
      "type": "constructor"
    },
    {
      "anonymous": false,
      "inputs": [
        {
          "indexed": true,
          "internalType": "address",
          "name": "previousOwner",
          "type": "address"
        },
        {
          "indexed": true,
          "internalType": "address",
          "name": "newOwner",
          "type": "address"
        }
      ],
      "name": "OwnershipTransferred",
      "type": "event"
    },
    {
      "inputs": [],
      "name": "annualInterestRate",
      "outputs": [
        {
          "internalType": "uint256",
          "name": "",
          "type": "uint256"
        }
      ],
      "stateMutability": "view",
      "type": "function"
    },
    {
      "inputs": [],
      "name": "defxToken",
      "outputs": [
        {
          "internalType": "contract DEFX",
          "name": "",
          "type": "address"
        }
      ],
      "stateMutability": "view",
      "type": "function"
    },
    {
      "inputs": [],
      "name": "owner",
      "outputs": [
        {
          "internalType": "address",
          "name": "",
          "type": "address"
        }
      ],
      "stateMutability": "view",
      "type": "function"
    },
    {
      "inputs": [],
      "name": "renounceOwnership",
      "outputs": [],
      "stateMutability": "nonpayable",
      "type": "function"
    },
    {
      "inputs": [],
      "name": "rewardTimeSpan",
      "outputs": [
        {
          "internalType": "uint256",
          "name": "",
          "type": "uint256"
        }
      ],
      "stateMutability": "view",
      "type": "function"
    },
    {
      "inputs": [],
      "name": "totalStakedAmount",
      "outputs": [
        {
          "internalType": "uint256",
          "name": "",
          "type": "uint256"
        }
      ],
      "stateMutability": "view",
      "type": "function"
    },
    {
      "inputs": [
        {
          "internalType": "address",
          "name": "newOwner",
          "type": "address"
        }
      ],
      "name": "transferOwnership",
      "outputs": [],
      "stateMutability": "nonpayable",
      "type": "function"
    },
    {
      "inputs": [
        {
          "internalType": "uint256",
          "name": "_interestRate",
          "type": "uint256"
        }
      ],
      "name": "setAnnualInterestRate",
      "outputs": [],
      "stateMutability": "nonpayable",
      "type": "function"
    },
    {
      "inputs": [
        {
          "internalType": "uint256",
          "name": "_timeSpan",
          "type": "uint256"
        }
      ],
      "name": "setRewardTimeSpan",
      "outputs": [],
      "stateMutability": "nonpayable",
      "type": "function"
    },
    {
      "inputs": [
        {
          "internalType": "uint256",
          "name": "_amount",
          "type": "uint256"
        }
      ],
      "name": "withdrawUnusedBalance",
      "outputs": [],
      "stateMutability": "nonpayable",
      "type": "function"
    },
    {
      "inputs": [
        {
          "internalType": "uint256",
          "name": "_amount",
          "type": "uint256"
        }
      ],
      "name": "stake",
      "outputs": [],
      "stateMutability": "nonpayable",
      "type": "function"
    },
    {
      "inputs": [
        {
          "internalType": "uint256",
          "name": "_amount",
          "type": "uint256"
        }
      ],
      "name": "unstake",
      "outputs": [],
      "stateMutability": "nonpayable",
      "type": "function"
    },
    {
      "inputs": [
        {
          "internalType": "address",
          "name": "_staker",
          "type": "address"
        },
        {
          "internalType": "uint256",
          "name": "_amount",
          "type": "uint256"
        }
      ],
      "name": "redeemRewardToStaker",
      "outputs": [],
      "stateMutability": "nonpayable",
      "type": "function"
    },
    {
      "inputs": [
        {
          "internalType": "uint256",
          "name": "_amount",
          "type": "uint256"
        }
      ],
      "name": "redeemReward",
      "outputs": [],
      "stateMutability": "nonpayable",
      "type": "function"
    },
    {
      "inputs": [
        {
          "internalType": "address",
          "name": "_staker",
          "type": "address"
        }
      ],
      "name": "getEarnedReward",
      "outputs": [
        {
          "internalType": "uint256",
          "name": "",
          "type": "uint256"
        }
      ],
      "stateMutability": "view",
      "type": "function"
    },
    {
      "inputs": [
        {
          "internalType": "address",
          "name": "_staker",
          "type": "address"
        }
      ],
      "name": "getStakedAmount",
      "outputs": [
        {
          "internalType": "uint256",
          "name": "",
          "type": "uint256"
        }
      ],
      "stateMutability": "view",
      "type": "function"
    },
    {
      "inputs": [
        {
          "internalType": "uint256",
          "name": "_amount",
          "type": "uint256"
        }
      ],
      "name": "drainStrayEther",
      "outputs": [
        {
          "internalType": "bool",
          "name": "",
          "type": "bool"
        }
      ],
      "stateMutability": "nonpayable",
      "type": "function"
    },
    {
      "inputs": [
        {
          "internalType": "contract IERC20",
          "name": "_token",
          "type": "address"
        },
        {
          "internalType": "uint256",
          "name": "_amount",
          "type": "uint256"
        }
      ],
      "name": "drainStrayTokens",
      "outputs": [
        {
          "internalType": "bool",
          "name": "",
          "type": "bool"
        }
      ],
      "stateMutability": "nonpayable",
      "type": "function"
    }
  ],
  "bytecode": "0x60806040523480156200001157600080fd5b5060405162002cd938038062002cd98339818101604052810190620000379190620002e1565b620000576200004b6200013960201b60201c565b6200014160201b60201c565b82600160006101000a81548173ffffffffffffffffffffffffffffffffffffffff021916908373ffffffffffffffffffffffffffffffffffffffff1602179055508160038190555080600281905550600067ffffffffffffffff811115620000e8577f4e487b7100000000000000000000000000000000000000000000000000000000600052604160045260246000fd5b604051908082528060200260200182016040528015620001175781602001602082028036833780820191505090505b50600490805190602001906200012f92919062000205565b50505050620003a9565b600033905090565b60008060009054906101000a900473ffffffffffffffffffffffffffffffffffffffff169050816000806101000a81548173ffffffffffffffffffffffffffffffffffffffff021916908373ffffffffffffffffffffffffffffffffffffffff1602179055508173ffffffffffffffffffffffffffffffffffffffff168173ffffffffffffffffffffffffffffffffffffffff167f8be0079c531659141344cd1fd0a4f28419497f9722a3daafe3b4186f6b6457e060405160405180910390a35050565b82805482825590600052602060002090810192821562000281579160200282015b82811115620002805782518260006101000a81548173ffffffffffffffffffffffffffffffffffffffff021916908373ffffffffffffffffffffffffffffffffffffffff1602179055509160200191906001019062000226565b5b50905062000290919062000294565b5090565b5b80821115620002af57600081600090555060010162000295565b5090565b600081519050620002c48162000375565b92915050565b600081519050620002db816200038f565b92915050565b600080600060608486031215620002f757600080fd5b60006200030786828701620002b3565b93505060206200031a86828701620002ca565b92505060406200032d86828701620002ca565b9150509250925092565b600062000344826200034b565b9050919050565b600073ffffffffffffffffffffffffffffffffffffffff82169050919050565b6000819050919050565b620003808162000337565b81146200038c57600080fd5b50565b6200039a816200036b565b8114620003a657600080fd5b50565b61292080620003b96000396000f3fe608060405234801561001057600080fd5b50600436106101165760003560e01c8063567e98f9116100a25780638da5cb5b116100715780638da5cb5b146102cd578063a694fc3a146102eb578063de1670f514610307578063e2210f4714610323578063f2fde38b1461033f57610116565b8063567e98f914610257578063715018a6146102755780637c7bd7a31461027f578063846a4b581461029d57610116565b80632e17de78116100e95780632e17de78146101a35780633582c4c8146101bf57806342bf41ae146101db5780634da6a5561461020b57806351a71b171461023b57610116565b8063029d74cb1461011b578063050b8c661461013757806309d0cc00146101675780631a9703da14610185575b600080fd5b610135600480360381019061013091906120c7565b61035b565b005b610151600480360381019061014c919061208b565b6105ce565b60405161015e91906124a8565b60405180910390f35b61016f610779565b60405161017c91906124c3565b60405180910390f35b61018d61079f565b60405161019a91906125fe565b60405180910390f35b6101bd60048036038101906101b891906120c7565b6107a5565b005b6101d960048036038101906101d491906120c7565b610c99565b005b6101f560048036038101906101f091906120c7565b610d27565b60405161020291906124a8565b60405180910390f35b61022560048036038101906102209190611ffd565b610dfc565b60405161023291906125fe565b60405180910390f35b610255600480360381019061025091906120c7565b610e45565b005b61025f610e59565b60405161026c91906125fe565b60405180910390f35b61027d610e5f565b005b610287610ee7565b60405161029491906125fe565b60405180910390f35b6102b760048036038101906102b29190611ffd565b610eed565b6040516102c491906125fe565b60405180910390f35b6102d56110d6565b6040516102e2919061242d565b60405180910390f35b610305600480360381019061030091906120c7565b6110ff565b005b610321600480360381019061031c91906120c7565b61150a565b005b61033d60048036038101906103389190612026565b611598565b005b61035960048036038101906103549190611ffd565b611622565b005b61036361171a565b73ffffffffffffffffffffffffffffffffffffffff166103816110d6565b73ffffffffffffffffffffffffffffffffffffffff16146103d7576040517f08c379a00000000000000000000000000000000000000000000000000000000081526004016103ce906125be565b60405180910390fd5b6103df611722565b81600160009054906101000a900473ffffffffffffffffffffffffffffffffffffffff1673ffffffffffffffffffffffffffffffffffffffff166370a08231306040518263ffffffff1660e01b815260040161043b919061242d565b60206040518083038186803b15801561045357600080fd5b505afa158015610467573d6000803e3d6000fd5b505050506040513d601f19601f8201168201806040525081019061048b91906120f0565b610495919061270b565b10156104d6576040517f08c379a00000000000000000000000000000000000000000000000000000000081526004016104cd906124de565b60405180910390fd5b600160009054906101000a900473ffffffffffffffffffffffffffffffffffffffff1673ffffffffffffffffffffffffffffffffffffffff1663a9059cbb61051c6110d6565b836040518363ffffffff1660e01b815260040161053a92919061247f565b602060405180830381600087803b15801561055457600080fd5b505af1158015610568573d6000803e3d6000fd5b505050506040513d601f19601f8201168201806040525081019061058c9190612062565b6105cb576040517f08c379a00000000000000000000000000000000000000000000000000000000081526004016105c29061255e565b60405180910390fd5b50565b60006105d861171a565b73ffffffffffffffffffffffffffffffffffffffff166105f66110d6565b73ffffffffffffffffffffffffffffffffffffffff161461064c576040517f08c379a0000000000000000000000000000000000000000000000000000000008152600401610643906125be565b60405180910390fd5b600160009054906101000a900473ffffffffffffffffffffffffffffffffffffffff1673ffffffffffffffffffffffffffffffffffffffff168373ffffffffffffffffffffffffffffffffffffffff1614156106dd576040517f08c379a00000000000000000000000000000000000000000000000000000000081526004016106d4906124fe565b60405180910390fd5b8273ffffffffffffffffffffffffffffffffffffffff1663a9059cbb6107016110d6565b846040518363ffffffff1660e01b815260040161071f92919061247f565b602060405180830381600087803b15801561073957600080fd5b505af115801561074d573d6000803e3d6000fd5b505050506040513d601f19601f820116820180604052508101906107719190612062565b905092915050565b600160009054906101000a900473ffffffffffffffffffffffffffffffffffffffff1681565b60035481565b600660006107b161171a565b73ffffffffffffffffffffffffffffffffffffffff1673ffffffffffffffffffffffffffffffffffffffff1681526020019081526020016000205481111561082e576040517f08c379a00000000000000000000000000000000000000000000000000000000081526004016108259061257e565b60405180910390fd5b61083e61083961171a565b61176c565b600081905060006005600061085161171a565b73ffffffffffffffffffffffffffffffffffffffff1673ffffffffffffffffffffffffffffffffffffffff1681526020019081526020016000208054905090505b6000811115610ae1576000600560006108a961171a565b73ffffffffffffffffffffffffffffffffffffffff1673ffffffffffffffffffffffffffffffffffffffff1681526020019081526020016000206001836108f0919061270b565b81548110610927577f4e487b7100000000000000000000000000000000000000000000000000000000600052603260045260246000fd5b9060005260206000209060020201600101549050808310610a07576109558184611a2590919063ffffffff16565b92506005600061096361171a565b73ffffffffffffffffffffffffffffffffffffffff1673ffffffffffffffffffffffffffffffffffffffff1681526020019081526020016000206001836109aa919061270b565b815481106109e1577f4e487b7100000000000000000000000000000000000000000000000000000000600052603260045260246000fd5b906000526020600020906002020160008082016000905560018201600090555050610abe565b610a1a8382611a2590919063ffffffff16565b60056000610a2661171a565b73ffffffffffffffffffffffffffffffffffffffff1673ffffffffffffffffffffffffffffffffffffffff168152602001908152602001600020600184610a6d919061270b565b81548110610aa4577f4e487b7100000000000000000000000000000000000000000000000000000000600052603260045260246000fd5b906000526020600020906002020160010181905550600092505b6000831415610acd5750610ae1565b508080610ad9906127bd565b915050610892565b50610b3b8260066000610af261171a565b73ffffffffffffffffffffffffffffffffffffffff1673ffffffffffffffffffffffffffffffffffffffff16815260200190815260200160002054611a2590919063ffffffff16565b60066000610b4761171a565b73ffffffffffffffffffffffffffffffffffffffff1673ffffffffffffffffffffffffffffffffffffffff16815260200190815260200160002081905550610b9a82600754611a2590919063ffffffff16565b600781905550600160009054906101000a900473ffffffffffffffffffffffffffffffffffffffff1673ffffffffffffffffffffffffffffffffffffffff1663a9059cbb610be661171a565b846040518363ffffffff1660e01b8152600401610c0492919061247f565b602060405180830381600087803b158015610c1e57600080fd5b505af1158015610c32573d6000803e3d6000fd5b505050506040513d601f19601f82011682018060405250810190610c569190612062565b610c95576040517f08c379a0000000000000000000000000000000000000000000000000000000008152600401610c8c9061255e565b60405180910390fd5b5050565b610ca161171a565b73ffffffffffffffffffffffffffffffffffffffff16610cbf6110d6565b73ffffffffffffffffffffffffffffffffffffffff1614610d15576040517f08c379a0000000000000000000000000000000000000000000000000000000008152600401610d0c906125be565b60405180910390fd5b610d1d611a3b565b8060038190555050565b6000610d3161171a565b73ffffffffffffffffffffffffffffffffffffffff16610d4f6110d6565b73ffffffffffffffffffffffffffffffffffffffff1614610da5576040517f08c379a0000000000000000000000000000000000000000000000000000000008152600401610d9c906125be565b60405180910390fd5b610dad6110d6565b73ffffffffffffffffffffffffffffffffffffffff166108fc839081150290604051600060405180830381858888f19350505050158015610df2573d6000803e3d6000fd5b5060019050919050565b6000600660008373ffffffffffffffffffffffffffffffffffffffff1673ffffffffffffffffffffffffffffffffffffffff168152602001908152602001600020549050919050565b610e56610e5061171a565b82611b7b565b50565b60075481565b610e6761171a565b73ffffffffffffffffffffffffffffffffffffffff16610e856110d6565b73ffffffffffffffffffffffffffffffffffffffff1614610edb576040517f08c379a0000000000000000000000000000000000000000000000000000000008152600401610ed2906125be565b60405180910390fd5b610ee56000611d8d565b565b60025481565b600080600860008473ffffffffffffffffffffffffffffffffffffffff1673ffffffffffffffffffffffffffffffffffffffff16815260200190815260200160002054905060005b600560008573ffffffffffffffffffffffffffffffffffffffff1673ffffffffffffffffffffffffffffffffffffffff168152602001908152602001600020805490508110156110cc576000600560008673ffffffffffffffffffffffffffffffffffffffff1673ffffffffffffffffffffffffffffffffffffffff1681526020019081526020016000208281548110610ff8577f4e487b7100000000000000000000000000000000000000000000000000000000600052603260045260246000fd5b90600052602060002090600202016000015490506000600560008773ffffffffffffffffffffffffffffffffffffffff1673ffffffffffffffffffffffffffffffffffffffff1681526020019081526020016000208381548110611085577f4e487b7100000000000000000000000000000000000000000000000000000000600052603260045260246000fd5b90600052602060002090600202016001015490506110b56110a68383611e51565b85611ef790919063ffffffff16565b9350505080806110c4906127e7565b915050610f35565b5080915050919050565b60008060009054906101000a900473ffffffffffffffffffffffffffffffffffffffff16905090565b61111481600754611ef790919063ffffffff16565b600781905550611122611722565b81600160009054906101000a900473ffffffffffffffffffffffffffffffffffffffff1673ffffffffffffffffffffffffffffffffffffffff166370a08231306040518263ffffffff1660e01b815260040161117e919061242d565b60206040518083038186803b15801561119657600080fd5b505afa1580156111aa573d6000803e3d6000fd5b505050506040513d601f19601f820116820180604052508101906111ce91906120f0565b6111d8919061262a565b1015611219576040517f08c379a00000000000000000000000000000000000000000000000000000000081526004016112109061253e565b60405180910390fd5b60006006600061122761171a565b73ffffffffffffffffffffffffffffffffffffffff1673ffffffffffffffffffffffffffffffffffffffff1681526020019081526020016000205414156112d357600461127261171a565b9080600181540180825580915050600190039060005260206000200160009091909190916101000a81548173ffffffffffffffffffffffffffffffffffffffff021916908373ffffffffffffffffffffffffffffffffffffffff1602179055505b600560006112df61171a565b73ffffffffffffffffffffffffffffffffffffffff1673ffffffffffffffffffffffffffffffffffffffff1681526020019081526020016000206040518060400160405280428152602001838152509080600181540180825580915050600190039060005260206000209060020201600090919091909150600082015181600001556020820151816001015550506113c6816006600061137d61171a565b73ffffffffffffffffffffffffffffffffffffffff1673ffffffffffffffffffffffffffffffffffffffff16815260200190815260200160002054611ef790919063ffffffff16565b600660006113d261171a565b73ffffffffffffffffffffffffffffffffffffffff1673ffffffffffffffffffffffffffffffffffffffff16815260200190815260200160002081905550600160009054906101000a900473ffffffffffffffffffffffffffffffffffffffff1673ffffffffffffffffffffffffffffffffffffffff166323b872dd61145661171a565b30846040518463ffffffff1660e01b815260040161147693929190612448565b602060405180830381600087803b15801561149057600080fd5b505af11580156114a4573d6000803e3d6000fd5b505050506040513d601f19601f820116820180604052508101906114c89190612062565b611507576040517f08c379a00000000000000000000000000000000000000000000000000000000081526004016114fe9061255e565b60405180910390fd5b50565b61151261171a565b73ffffffffffffffffffffffffffffffffffffffff166115306110d6565b73ffffffffffffffffffffffffffffffffffffffff1614611586576040517f08c379a000000000000000000000000000000000000000000000000000000000815260040161157d906125be565b60405180910390fd5b61158e611a3b565b8060028190555050565b6115a061171a565b73ffffffffffffffffffffffffffffffffffffffff166115be6110d6565b73ffffffffffffffffffffffffffffffffffffffff1614611614576040517f08c379a000000000000000000000000000000000000000000000000000000000815260040161160b906125be565b60405180910390fd5b61161e8282611b7b565b5050565b61162a61171a565b73ffffffffffffffffffffffffffffffffffffffff166116486110d6565b73ffffffffffffffffffffffffffffffffffffffff161461169e576040517f08c379a0000000000000000000000000000000000000000000000000000000008152600401611695906125be565b60405180910390fd5b600073ffffffffffffffffffffffffffffffffffffffff168173ffffffffffffffffffffffffffffffffffffffff16141561170e576040517f08c379a00000000000000000000000000000000000000000000000000000000081526004016117059061251e565b60405180910390fd5b61171781611d8d565b50565b600033905090565b600080611756600354611748670de0b6b3a7640000600754611f0d90919063ffffffff16565b611f2390919063ffffffff16565b905080600754611766919061262a565b91505090565b60005b600560008373ffffffffffffffffffffffffffffffffffffffff1673ffffffffffffffffffffffffffffffffffffffff16815260200190815260200160002080549050811015611a21576000600560008473ffffffffffffffffffffffffffffffffffffffff1673ffffffffffffffffffffffffffffffffffffffff1681526020019081526020016000208281548110611832577f4e487b7100000000000000000000000000000000000000000000000000000000600052603260045260246000fd5b90600052602060002090600202016000015490506000600560008573ffffffffffffffffffffffffffffffffffffffff1673ffffffffffffffffffffffffffffffffffffffff16815260200190815260200160002083815481106118bf577f4e487b7100000000000000000000000000000000000000000000000000000000600052603260045260246000fd5b906000526020600020906002020160010154905060006118df8383611e51565b905061193381600860008873ffffffffffffffffffffffffffffffffffffffff1673ffffffffffffffffffffffffffffffffffffffff16815260200190815260200160002054611ef790919063ffffffff16565b600860008773ffffffffffffffffffffffffffffffffffffffff1673ffffffffffffffffffffffffffffffffffffffff1681526020019081526020016000208190555061197f83611f39565b600560008773ffffffffffffffffffffffffffffffffffffffff1673ffffffffffffffffffffffffffffffffffffffff16815260200190815260200160002085815481106119f6577f4e487b7100000000000000000000000000000000000000000000000000000000600052603260045260246000fd5b9060005260206000209060020201600001819055505050508080611a19906127e7565b91505061176f565b5050565b60008183611a33919061270b565b905092915050565b60005b600480549050811015611b785760006006600060048481548110611a8b577f4e487b7100000000000000000000000000000000000000000000000000000000600052603260045260246000fd5b9060005260206000200160009054906101000a900473ffffffffffffffffffffffffffffffffffffffff1673ffffffffffffffffffffffffffffffffffffffff1673ffffffffffffffffffffffffffffffffffffffff168152602001908152602001600020541115611b6557611b6460048281548110611b34577f4e487b7100000000000000000000000000000000000000000000000000000000600052603260045260246000fd5b9060005260206000200160009054906101000a900473ffffffffffffffffffffffffffffffffffffffff1661176c565b5b8080611b70906127e7565b915050611a3e565b50565b611b848261176c565b600860008373ffffffffffffffffffffffffffffffffffffffff1673ffffffffffffffffffffffffffffffffffffffff16815260200190815260200160002054811115611c06576040517f08c379a0000000000000000000000000000000000000000000000000000000008152600401611bfd9061259e565b60405180910390fd5b611c5881600860008573ffffffffffffffffffffffffffffffffffffffff1673ffffffffffffffffffffffffffffffffffffffff16815260200190815260200160002054611a2590919063ffffffff16565b600860008473ffffffffffffffffffffffffffffffffffffffff1673ffffffffffffffffffffffffffffffffffffffff16815260200190815260200160002081905550600160009054906101000a900473ffffffffffffffffffffffffffffffffffffffff1673ffffffffffffffffffffffffffffffffffffffff1663a9059cbb83836040518363ffffffff1660e01b8152600401611cf892919061247f565b602060405180830381600087803b158015611d1257600080fd5b505af1158015611d26573d6000803e3d6000fd5b505050506040513d601f19601f82011682018060405250810190611d4a9190612062565b611d89576040517f08c379a0000000000000000000000000000000000000000000000000000000008152600401611d80906125de565b60405180910390fd5b5050565b60008060009054906101000a900473ffffffffffffffffffffffffffffffffffffffff169050816000806101000a81548173ffffffffffffffffffffffffffffffffffffffff021916908373ffffffffffffffffffffffffffffffffffffffff1602179055508173ffffffffffffffffffffffffffffffffffffffff168173ffffffffffffffffffffffffffffffffffffffff167f8be0079c531659141344cd1fd0a4f28419497f9722a3daafe3b4186f6b6457e060405160405180910390a35050565b600080611e7b600254611e6d8642611a2590919063ffffffff16565b611f0d90919063ffffffff16565b90506000611eac6301e13380611e9e600254600354611f2390919063ffffffff16565b611f0d90919063ffffffff16565b9050611eed670de0b6b3a7640000611edf86611ed18587611f2390919063ffffffff16565b611f2390919063ffffffff16565b611f0d90919063ffffffff16565b9250505092915050565b60008183611f05919061262a565b905092915050565b60008183611f1b9190612680565b905092915050565b60008183611f3191906126b1565b905092915050565b600080611f63600254611f558542611a2590919063ffffffff16565b611f0d90919063ffffffff16565b9050611f8c611f7d60025483611f2390919063ffffffff16565b84611ef790919063ffffffff16565b915050919050565b600081359050611fa38161288e565b92915050565b600081519050611fb8816128a5565b92915050565b600081359050611fcd816128bc565b92915050565b600081359050611fe2816128d3565b92915050565b600081519050611ff7816128d3565b92915050565b60006020828403121561200f57600080fd5b600061201d84828501611f94565b91505092915050565b6000806040838503121561203957600080fd5b600061204785828601611f94565b925050602061205885828601611fd3565b9150509250929050565b60006020828403121561207457600080fd5b600061208284828501611fa9565b91505092915050565b6000806040838503121561209e57600080fd5b60006120ac85828601611fbe565b92505060206120bd85828601611fd3565b9150509250929050565b6000602082840312156120d957600080fd5b60006120e784828501611fd3565b91505092915050565b60006020828403121561210257600080fd5b600061211084828501611fe8565b91505092915050565b6121228161273f565b82525050565b61213181612751565b82525050565b61214081612799565b82525050565b6000612153601f83612619565b91507f4d6178207769746864726177616c20616d6f756e742065786365656465642e006000830152602082019050919050565b6000612193601683612619565b91507f444546582063616e6e6f7420626520647261696e6564000000000000000000006000830152602082019050919050565b60006121d3602683612619565b91507f4f776e61626c653a206e6577206f776e657220697320746865207a65726f206160008301527f64647265737300000000000000000000000000000000000000000000000000006020830152604082019050919050565b6000612239603183612619565b91507f506f6f6c27732062616c616e636520746f6f206c6f7720666f7220636f76657260008301527f696e6720616e6e75616c207265776172640000000000000000000000000000006020830152604082019050919050565b600061229f600f83612619565b91507f5472616e73666572206661696c656400000000000000000000000000000000006000830152602082019050919050565b60006122df602283612619565b91507f4d6178696d756d207374616b656420616d6f756e74206973206578636565646560008301527f642e0000000000000000000000000000000000000000000000000000000000006020830152604082019050919050565b6000612345602683612619565b91507f4d6178696d756d2072656465656d61626c65207265776172642069732065786360008301527f65656465642e00000000000000000000000000000000000000000000000000006020830152604082019050919050565b60006123ab602083612619565b91507f4f776e61626c653a2063616c6c6572206973206e6f7420746865206f776e65726000830152602082019050919050565b60006123eb601083612619565b91507f5472616e73666572206661696c65642e000000000000000000000000000000006000830152602082019050919050565b6124278161278f565b82525050565b60006020820190506124426000830184612119565b92915050565b600060608201905061245d6000830186612119565b61246a6020830185612119565b612477604083018461241e565b949350505050565b60006040820190506124946000830185612119565b6124a1602083018461241e565b9392505050565b60006020820190506124bd6000830184612128565b92915050565b60006020820190506124d86000830184612137565b92915050565b600060208201905081810360008301526124f781612146565b9050919050565b6000602082019050818103600083015261251781612186565b9050919050565b60006020820190508181036000830152612537816121c6565b9050919050565b600060208201905081810360008301526125578161222c565b9050919050565b6000602082019050818103600083015261257781612292565b9050919050565b60006020820190508181036000830152612597816122d2565b9050919050565b600060208201905081810360008301526125b781612338565b9050919050565b600060208201905081810360008301526125d78161239e565b9050919050565b600060208201905081810360008301526125f7816123de565b9050919050565b6000602082019050612613600083018461241e565b92915050565b600082825260208201905092915050565b60006126358261278f565b91506126408361278f565b9250827fffffffffffffffffffffffffffffffffffffffffffffffffffffffffffffffff0382111561267557612674612830565b5b828201905092915050565b600061268b8261278f565b91506126968361278f565b9250826126a6576126a561285f565b5b828204905092915050565b60006126bc8261278f565b91506126c78361278f565b9250817fffffffffffffffffffffffffffffffffffffffffffffffffffffffffffffffff0483118215151615612700576126ff612830565b5b828202905092915050565b60006127168261278f565b91506127218361278f565b92508282101561273457612733612830565b5b828203905092915050565b600061274a8261276f565b9050919050565b60008115159050919050565b60006127688261273f565b9050919050565b600073ffffffffffffffffffffffffffffffffffffffff82169050919050565b6000819050919050565b60006127a4826127ab565b9050919050565b60006127b68261276f565b9050919050565b60006127c88261278f565b915060008214156127dc576127db612830565b5b600182039050919050565b60006127f28261278f565b91507fffffffffffffffffffffffffffffffffffffffffffffffffffffffffffffffff82141561282557612824612830565b5b600182019050919050565b7f4e487b7100000000000000000000000000000000000000000000000000000000600052601160045260246000fd5b7f4e487b7100000000000000000000000000000000000000000000000000000000600052601260045260246000fd5b6128978161273f565b81146128a257600080fd5b50565b6128ae81612751565b81146128b957600080fd5b50565b6128c58161275d565b81146128d057600080fd5b50565b6128dc8161278f565b81146128e757600080fd5b5056fea2646970667358221220d4db66d18be7a1eb23018313bb24cc5af2a9394d06b7106097293c5b6e2c11a664736f6c63430008000033",
  "immutableReferences": {},
  "source": "// SPDX-License-Identifier: MIT\r\npragma solidity 0.8.0;\r\n\r\nimport '@openzeppelin/contracts/access/Ownable.sol';\r\nimport '@openzeppelin/contracts/utils/math/SafeMath.sol';\r\nimport './DEFXToken.sol';\r\n\r\ncontract DEFXStakingPool is Ownable {\r\n    using SafeMath for uint;\r\n    struct StakedBalance { uint time; uint amount; }\r\n\r\n    DEFX public defxToken;\r\n    uint public rewardTimeSpan;\r\n    uint public annualInterestRate;\r\n    \r\n    address[] private stakers;\r\n    mapping (address => StakedBalance[]) private stakedBalances;\r\n    mapping (address => uint) private totalStakedBalances;\r\n    uint public totalStakedAmount;\r\n    mapping (address => uint) private earnedRewards;\r\n\r\n    constructor(address _tokenContractAddress, uint _annualInterestRate, uint _rewardTimeSpan)\r\n        public\r\n    {\r\n        defxToken = DEFX(_tokenContractAddress);\r\n        annualInterestRate = _annualInterestRate;\r\n        rewardTimeSpan = _rewardTimeSpan;\r\n\r\n        stakers = new address[](0);\r\n    }\r\n\r\n    ////////////////////////////////////////////////////////////////////////////////////////////////////\r\n    // Owner configuration\r\n    ////////////////////////////////////////////////////////////////////////////////////////////////////\r\n\r\n    /**\r\n     * @notice Allows contract owner to change annual interest rate. Reward earned up to that moment is calculated\r\n     * using previous interest rate.\r\n     */\r\n    function setAnnualInterestRate(uint _interestRate)\r\n        external\r\n        onlyOwner\r\n    {\r\n        collectRewardForAllStakers();\r\n        annualInterestRate = _interestRate;\r\n    }\r\n\r\n    /**\r\n     * @notice Allows contract owner to change reward time span. Reward earned up to that moment is calculated using\r\n     * previous timespan.\r\n     */\r\n    function setRewardTimeSpan(uint _timeSpan)\r\n        external\r\n        onlyOwner\r\n    {\r\n        collectRewardForAllStakers();\r\n        rewardTimeSpan = _timeSpan;\r\n    }\r\n\r\n    /**\r\n     * @notice Allows contract owner to withdraw any DEFX balance from the contract which exceeds minimum needed DEFX\r\n     * balance. Minimum DEFX balance is calculated as a sum of all staked DEFX and reward that would be earned in the\r\n     * next year with the current annual interest rate.\r\n     */\r\n    function withdrawUnusedBalance(uint _amount)\r\n        external\r\n        onlyOwner\r\n    {\r\n        require(defxToken.balanceOf(address(this)) - _amount >= getMinContractBalance(), \"Max withdrawal amount exceeded.\");\r\n        require(defxToken.transfer(owner(), _amount), \"Transfer failed\");\r\n    }\r\n\r\n    ////////////////////////////////////////////////////////////////////////////////////////////////////\r\n    // Staking\r\n    ////////////////////////////////////////////////////////////////////////////////////////////////////\r\n\r\n    /**\r\n     * @notice Allows any DEFX holder to stake certain amount of DEFX and earn reward. Reward is calculated based on\r\n     * the annual interest rate specified by annualInterestRate attribute and paid on basis specified by rewardTimeSpan\r\n     * attribute (daily, weekly, etc.). There is no automatic transfer of the reward, but stakers should redeem reward\r\n     * instead.\r\n     * Pre-condition for staking of DEFX is that the staker should approve address of this smart contract to spend\r\n     * their DEFX.\r\n     */\r\n    function stake(uint _amount) \r\n        external\r\n    {\r\n        totalStakedAmount = totalStakedAmount.add(_amount);\r\n        require(defxToken.balanceOf(address(this)) + _amount >= getMinContractBalance(), \"Pool's balance too low for covering annual reward\");\r\n\r\n        if(totalStakedBalances[_msgSender()] == 0)\r\n            stakers.push(_msgSender());\r\n        stakedBalances[_msgSender()].push(StakedBalance(block.timestamp, _amount));\r\n\r\n        totalStakedBalances[_msgSender()] = totalStakedBalances[_msgSender()].add(_amount);\r\n\r\n        require(defxToken.transferFrom(_msgSender(), address(this), _amount), \"Transfer failed\");\r\n    }\r\n\r\n    /**\r\n     * @notice Allows any DEFX holder who has previously staked DEFX to unstake it, up to the amount specified by input\r\n     * parameter. All reward earned up to that moment is calculated and needs to be redeemed sperately from unstaking.\r\n     * It can be done any time before or any time after unstaking.\r\n     */\r\n    function unstake(uint _amount) \r\n        external\r\n    {\r\n        require(_amount <= totalStakedBalances[_msgSender()], \"Maximum staked amount is exceeded.\");\r\n        collectReward(_msgSender());\r\n        uint amountToUnstake = _amount;\r\n\r\n        for(uint i = stakedBalances[_msgSender()].length; i > 0; i--) \r\n        {\r\n            uint amount = stakedBalances[_msgSender()][i-1].amount;\r\n\r\n            if (amountToUnstake >= amount) {\r\n                amountToUnstake = amountToUnstake.sub(amount);\r\n                delete stakedBalances[_msgSender()][i-1];\r\n            }\r\n            else { \r\n                stakedBalances[_msgSender()][i-1].amount = amount.sub(amountToUnstake);\r\n                amountToUnstake = 0;    \r\n            }\r\n\r\n            if (amountToUnstake == 0)\r\n                break;  \r\n        }\r\n\r\n        totalStakedBalances[_msgSender()] = totalStakedBalances[_msgSender()].sub(_amount);\r\n        totalStakedAmount = totalStakedAmount.sub(_amount);\r\n        require(defxToken.transfer(_msgSender(), _amount), \"Transfer failed\");\r\n    }\r\n\r\n    ////////////////////////////////////////////////////////////////////////////////////////////////////\r\n    // Redeeming reward\r\n    ////////////////////////////////////////////////////////////////////////////////////////////////////\r\n\r\n    /**\r\n     * @notice Allows token owner to transfer earned reward to the staker.\r\n     */\r\n    function redeemRewardToStaker(address _staker, uint _amount)\r\n        external\r\n        onlyOwner\r\n    {\r\n        redeemReward(_staker, _amount);\r\n    }\r\n\r\n    /**\r\n     * @notice Allows staker to transfer earned reward to themselves.\r\n     */\r\n    function redeemReward(uint _amount)\r\n        external\r\n    {\r\n        redeemReward(_msgSender(), _amount);\r\n    }\r\n\r\n    function redeemReward(address _staker, uint _amount) \r\n        private\r\n    {\r\n        collectReward(_staker);\r\n        require(_amount <= earnedRewards[_staker], \"Maximum redeemable reward is exceeded.\");\r\n\r\n        earnedRewards[_staker] = earnedRewards[_staker].sub(_amount);\r\n        require(defxToken.transfer(_staker, _amount), \"Transfer failed.\");\r\n    }\r\n\r\n    function collectReward(address _staker)\r\n        private \r\n    {\r\n        for (uint i = 0; i < stakedBalances[_staker].length; i++) \r\n        {\r\n            uint time = stakedBalances[_staker][i].time;\r\n            uint amount = stakedBalances[_staker][i].amount;\r\n\r\n            uint reward = calculateReward(time, amount);\r\n            earnedRewards[_staker] = earnedRewards[_staker].add(reward);\r\n\r\n            stakedBalances[_staker][i].time = getNewTime(time);\r\n        }\r\n    }\r\n\r\n    function collectRewardForAllStakers()\r\n        private \r\n    {\r\n         for (uint i = 0; i < stakers.length; i++) \r\n        {\r\n            if (totalStakedBalances[stakers[i]] > 0) \r\n            {\r\n                collectReward(stakers[i]);\r\n            }\r\n        }\r\n    }\r\n\r\n    ////////////////////////////////////////////////////////////////////////////////////////////////////\r\n    // Reading functions\r\n    ////////////////////////////////////////////////////////////////////////////////////////////////////\r\n\r\n    /**\r\n     * @return Earned reward for the staker up to that moment for specified staker's address\r\n     */\r\n    function getEarnedReward(address _staker)\r\n        external\r\n        view\r\n        returns (uint)\r\n    {\r\n        uint totalAmount = earnedRewards[_staker];\r\n\r\n        for (uint i = 0; i < stakedBalances[_staker].length; i++) \r\n        {\r\n            uint time = stakedBalances[_staker][i].time;\r\n            uint amount = stakedBalances[_staker][i].amount;\r\n\r\n            totalAmount = totalAmount.add(calculateReward(time, amount));\r\n        }\r\n\r\n        return totalAmount;\r\n    }\r\n\r\n    /**\r\n     * @return Staked amount of DEFX for specified staker's address\r\n     */\r\n    function getStakedAmount(address _staker)\r\n        external\r\n        view\r\n        returns (uint)\r\n    {\r\n        return totalStakedBalances[_staker];\r\n    }\r\n\r\n    ////////////////////////////////////////////////////////////////////////////////////////////////////\r\n    // Helper functions\r\n    ////////////////////////////////////////////////////////////////////////////////////////////////////\r\n\r\n    /**\r\n     * @dev Calculates reward based on the DEFX amount that is staked and the moment in time when it is staked.\r\n     * It first calculates number of periods (i.e weeks) passed between now and time when DEFX amount is staked \r\n     * (timeSpanUnits). Then, it calculates interest rate for that period (i.e. weekly interest rate) as \r\n     * unitInterestRate. Finally reward is equal to period interest rate x staked amount x number of periods.\r\n     */\r\n    function calculateReward(uint _time, uint _amount) \r\n        private\r\n        view\r\n        returns (uint)\r\n    {\r\n        uint timeSpanUnits = (block.timestamp.sub(_time)).div(rewardTimeSpan);\r\n        uint unitInterestRate = annualInterestRate.mul(rewardTimeSpan).div(365 days);\r\n        return timeSpanUnits.mul(unitInterestRate).mul(_amount).div(10**18);\r\n    }\r\n\r\n    function getMinContractBalance() \r\n        private\r\n        view\r\n        returns(uint)\r\n    {\r\n        uint expectedAnnualRewards = totalStakedAmount.div(10**18).mul(annualInterestRate);\r\n        return totalStakedAmount + expectedAnnualRewards;\r\n    }\r\n\r\n    /**\r\n     * @dev Calculates beginning of the current period for which reward is still not calculated.\r\n     */\r\n    function getNewTime(uint _time)\r\n        private\r\n        view\r\n        returns (uint)\r\n    {\r\n        uint timeSpanUnits = (block.timestamp.sub(_time)).div(rewardTimeSpan);\r\n        return _time.add(timeSpanUnits.mul(rewardTimeSpan));\r\n    }\r\n\r\n    ////////////////////////////////////////////////////////////////////////////////////////////////////\r\n    // Miscellaneous\r\n    ////////////////////////////////////////////////////////////////////////////////////////////////////\r\n\r\n    /**\r\n     * @notice Enable recovery of ether sent by mistake to this contract's address.\r\n     */\r\n    function drainStrayEther(uint _amount)\r\n        external\r\n        onlyOwner\r\n        returns (bool)\r\n    {\r\n        payable(owner()).transfer(_amount);\r\n        return true;\r\n    }\r\n\r\n    /**\r\n     * @notice Enable recovery of any ERC20 compatible token sent by mistake to this contract's address.\r\n     * The only token that cannot be drained is DEFX.\r\n     */\r\n    function drainStrayTokens(IERC20 _token, uint _amount)\r\n        external\r\n        onlyOwner\r\n        returns (bool)\r\n    {\r\n        require(address(_token) != address(defxToken), \"DEFX cannot be drained\");\r\n        return _token.transfer(owner(), _amount);\r\n    }\r\n}\r\n",
  "sourcePath": "C:/Users/User/Source/Repos/SmartContracts-1/src/contracts/DEFXStakingPool.sol",
  "compiler": {
    "name": "solc",
    "version": "0.8.0+commit.c7dfd78e.Emscripten.clang"
  },
  "schemaVersion": "3.3.3",
  "updatedAt": "2022-01-26T14:26:29.181Z",
  "devdoc": {
    "kind": "dev",
    "methods": {
      "getEarnedReward(address)": {
        "returns": {
          "_0": "Earned reward for the staker up to that moment for specified staker's address"
        }
      },
      "getStakedAmount(address)": {
        "returns": {
          "_0": "Staked amount of DEFX for specified staker's address"
        }
      },
      "owner()": {
        "details": "Returns the address of the current owner."
      },
      "renounceOwnership()": {
        "details": "Leaves the contract without owner. It will not be possible to call `onlyOwner` functions anymore. Can only be called by the current owner. NOTE: Renouncing ownership will leave the contract without an owner, thereby removing any functionality that is only available to the owner."
      },
      "transferOwnership(address)": {
        "details": "Transfers ownership of the contract to a new account (`newOwner`). Can only be called by the current owner."
      }
    },
    "version": 1
  },
  "userdoc": {
    "kind": "user",
    "methods": {
      "drainStrayEther(uint256)": {
        "notice": "Enable recovery of ether sent by mistake to this contract's address."
      },
      "drainStrayTokens(address,uint256)": {
        "notice": "Enable recovery of any ERC20 compatible token sent by mistake to this contract's address. The only token that cannot be drained is DEFX."
      },
      "redeemReward(uint256)": {
        "notice": "Allows staker to transfer earned reward to themselves."
      },
      "redeemRewardToStaker(address,uint256)": {
        "notice": "Allows token owner to transfer earned reward to the staker."
      },
      "setAnnualInterestRate(uint256)": {
        "notice": "Allows contract owner to change annual interest rate. Reward earned up to that moment is calculated using previous interest rate."
      },
      "setRewardTimeSpan(uint256)": {
        "notice": "Allows contract owner to change reward time span. Reward earned up to that moment is calculated using previous timespan."
      },
      "stake(uint256)": {
        "notice": "Allows any DEFX holder to stake certain amount of DEFX and earn reward. Reward is calculated based on the annual interest rate specified by annualInterestRate attribute and paid on basis specified by rewardTimeSpan attribute (daily, weekly, etc.). There is no automatic transfer of the reward, but stakers should redeem reward instead. Pre-condition for staking of DEFX is that the staker should approve address of this smart contract to spend their DEFX."
      },
      "unstake(uint256)": {
        "notice": "Allows any DEFX holder who has previously staked DEFX to unstake it, up to the amount specified by input parameter. All reward earned up to that moment is calculated and needs to be redeemed sperately from unstaking. It can be done any time before or any time after unstaking."
      },
      "withdrawUnusedBalance(uint256)": {
        "notice": "Allows contract owner to withdraw any DEFX balance from the contract which exceeds minimum needed DEFX balance. Minimum DEFX balance is calculated as a sum of all staked DEFX and reward that would be earned in the next year with the current annual interest rate."
      }
    },
    "version": 1
  }
}