{
  "contractName": "DEFXVestingSchedule",
  "abi": [
    {
      "inputs": [
        {
          "internalType": "address",
          "name": "_tokenContractAddress",
          "type": "address"
        },
        {
          "internalType": "uint256[]",
          "name": "_seedScheduleEvents",
          "type": "uint256[]"
        },
        {
          "internalType": "uint256[]",
          "name": "_seedSchedulePercentages",
          "type": "uint256[]"
        },
        {
          "internalType": "uint256[]",
          "name": "_privateScheduleEvents",
          "type": "uint256[]"
        },
        {
          "internalType": "uint256[]",
          "name": "_privateSchedulePercentages",
          "type": "uint256[]"
        },
        {
          "internalType": "address[]",
          "name": "_investors",
          "type": "address[]"
        },
        {
          "internalType": "uint256[]",
          "name": "_seedInvestments",
          "type": "uint256[]"
        },
        {
          "internalType": "uint256[]",
          "name": "_privateInvestments",
          "type": "uint256[]"
        },
        {
          "internalType": "uint256[]",
          "name": "_withdrawnTokens",
          "type": "uint256[]"
        }
      ],
      "stateMutability": "nonpayable",
      "type": "constructor"
    },
    {
      "anonymous": false,
      "inputs": [
        {
          "indexed": true,
          "internalType": "address",
          "name": "previousOwner",
          "type": "address"
        },
        {
          "indexed": true,
          "internalType": "address",
          "name": "newOwner",
          "type": "address"
        }
      ],
      "name": "OwnershipTransferred",
      "type": "event"
    },
    {
      "inputs": [],
      "name": "defxToken",
      "outputs": [
        {
          "internalType": "contract DEFX",
          "name": "",
          "type": "address"
        }
      ],
      "stateMutability": "view",
      "type": "function"
    },
    {
      "inputs": [],
      "name": "owner",
      "outputs": [
        {
          "internalType": "address",
          "name": "",
          "type": "address"
        }
      ],
      "stateMutability": "view",
      "type": "function"
    },
    {
      "inputs": [
        {
          "internalType": "address",
          "name": "",
          "type": "address"
        }
      ],
      "name": "privateInvestments",
      "outputs": [
        {
          "internalType": "uint256",
          "name": "",
          "type": "uint256"
        }
      ],
      "stateMutability": "view",
      "type": "function"
    },
    {
      "inputs": [
        {
          "internalType": "uint256",
          "name": "",
          "type": "uint256"
        }
      ],
      "name": "privateSchedule",
      "outputs": [
        {
          "internalType": "uint256",
          "name": "time",
          "type": "uint256"
        },
        {
          "internalType": "uint256",
          "name": "percentage",
          "type": "uint256"
        }
      ],
      "stateMutability": "view",
      "type": "function"
    },
    {
      "inputs": [],
      "name": "renounceOwnership",
      "outputs": [],
      "stateMutability": "nonpayable",
      "type": "function"
    },
    {
      "inputs": [
        {
          "internalType": "address",
          "name": "",
          "type": "address"
        }
      ],
      "name": "seedInvestments",
      "outputs": [
        {
          "internalType": "uint256",
          "name": "",
          "type": "uint256"
        }
      ],
      "stateMutability": "view",
      "type": "function"
    },
    {
      "inputs": [
        {
          "internalType": "uint256",
          "name": "",
          "type": "uint256"
        }
      ],
      "name": "seedSchedule",
      "outputs": [
        {
          "internalType": "uint256",
          "name": "time",
          "type": "uint256"
        },
        {
          "internalType": "uint256",
          "name": "percentage",
          "type": "uint256"
        }
      ],
      "stateMutability": "view",
      "type": "function"
    },
    {
      "inputs": [
        {
          "internalType": "address",
          "name": "newOwner",
          "type": "address"
        }
      ],
      "name": "transferOwnership",
      "outputs": [],
      "stateMutability": "nonpayable",
      "type": "function"
    },
    {
      "inputs": [
        {
          "internalType": "address",
          "name": "",
          "type": "address"
        }
      ],
      "name": "withdrawnTokens",
      "outputs": [
        {
          "internalType": "uint256",
          "name": "",
          "type": "uint256"
        }
      ],
      "stateMutability": "view",
      "type": "function"
    },
    {
      "inputs": [
        {
          "internalType": "address",
          "name": "_investor",
          "type": "address"
        }
      ],
      "name": "getAvailableTokens",
      "outputs": [
        {
          "internalType": "uint256",
          "name": "",
          "type": "uint256"
        }
      ],
      "stateMutability": "view",
      "type": "function"
    },
    {
      "inputs": [
        {
          "internalType": "address",
          "name": "_investor",
          "type": "address"
        },
        {
          "internalType": "uint256",
          "name": "_amount",
          "type": "uint256"
        }
      ],
      "name": "withdrawTokensToInvestor",
      "outputs": [],
      "stateMutability": "nonpayable",
      "type": "function"
    },
    {
      "inputs": [
        {
          "internalType": "uint256",
          "name": "_amount",
          "type": "uint256"
        }
      ],
      "name": "withdrawTokens",
      "outputs": [],
      "stateMutability": "nonpayable",
      "type": "function"
    },
    {
      "inputs": [
        {
          "internalType": "uint256",
          "name": "_amount",
          "type": "uint256"
        }
      ],
      "name": "drainStrayEther",
      "outputs": [
        {
          "internalType": "bool",
          "name": "",
          "type": "bool"
        }
      ],
      "stateMutability": "nonpayable",
      "type": "function"
    },
    {
      "inputs": [
        {
          "internalType": "contract IERC20",
          "name": "_token",
          "type": "address"
        },
        {
          "internalType": "uint256",
          "name": "_amount",
          "type": "uint256"
        }
      ],
      "name": "drainStrayTokens",
      "outputs": [
        {
          "internalType": "bool",
          "name": "",
          "type": "bool"
        }
      ],
      "stateMutability": "nonpayable",
      "type": "function"
    }
  ],
  "bytecode": "0x60806040523480156200001157600080fd5b50604051620025aa380380620025aa83398181016040526101208110156200003857600080fd5b8101908080519060200190929190805160405193929190846401000000008211156200006357600080fd5b838201915060208201858111156200007a57600080fd5b82518660208202830111640100000000821117156200009857600080fd5b8083526020830192505050908051906020019060200280838360005b83811015620000d1578082015181840152602081019050620000b4565b5050505090500160405260200180516040519392919084640100000000821115620000fb57600080fd5b838201915060208201858111156200011257600080fd5b82518660208202830111640100000000821117156200013057600080fd5b8083526020830192505050908051906020019060200280838360005b83811015620001695780820151818401526020810190506200014c565b50505050905001604052602001805160405193929190846401000000008211156200019357600080fd5b83820191506020820185811115620001aa57600080fd5b8251866020820283011164010000000082111715620001c857600080fd5b8083526020830192505050908051906020019060200280838360005b8381101562000201578082015181840152602081019050620001e4565b50505050905001604052602001805160405193929190846401000000008211156200022b57600080fd5b838201915060208201858111156200024257600080fd5b82518660208202830111640100000000821117156200026057600080fd5b8083526020830192505050908051906020019060200280838360005b83811015620002995780820151818401526020810190506200027c565b5050505090500160405260200180516040519392919084640100000000821115620002c357600080fd5b83820191506020820185811115620002da57600080fd5b8251866020820283011164010000000082111715620002f857600080fd5b8083526020830192505050908051906020019060200280838360005b838110156200033157808201518184015260208101905062000314565b50505050905001604052602001805160405193929190846401000000008211156200035b57600080fd5b838201915060208201858111156200037257600080fd5b82518660208202830111640100000000821117156200039057600080fd5b8083526020830192505050908051906020019060200280838360005b83811015620003c9578082015181840152602081019050620003ac565b5050505090500160405260200180516040519392919084640100000000821115620003f357600080fd5b838201915060208201858111156200040a57600080fd5b82518660208202830111640100000000821117156200042857600080fd5b8083526020830192505050908051906020019060200280838360005b838110156200046157808201518184015260208101905062000444565b50505050905001604052602001805160405193929190846401000000008211156200048b57600080fd5b83820191506020820185811115620004a257600080fd5b8251866020820283011164010000000082111715620004c057600080fd5b8083526020830192505050908051906020019060200280838360005b83811015620004f9578082015181840152602081019050620004dc565b5050505090500160405250505060006200051862000c3060201b60201c565b9050806000806101000a81548173ffffffffffffffffffffffffffffffffffffffff021916908373ffffffffffffffffffffffffffffffffffffffff1602179055508073ffffffffffffffffffffffffffffffffffffffff16600073ffffffffffffffffffffffffffffffffffffffff167f8be0079c531659141344cd1fd0a4f28419497f9722a3daafe3b4186f6b6457e060405160405180910390a350865188511462000612576040517f08c379a000000000000000000000000000000000000000000000000000000000815260040180806020018281038252602f8152602001806200257b602f913960400191505060405180910390fd5b84518651146200066e576040517f08c379a0000000000000000000000000000000000000000000000000000000008152600401808060200182810382526032815260200180620025276032913960400191505060405180910390fd5b8251845114620006ca576040517f08c379a0000000000000000000000000000000000000000000000000000000008152600401808060200182810382526027815260200180620024576027913960400191505060405180910390fd5b815184511462000726576040517f08c379a000000000000000000000000000000000000000000000000000000000815260040180806020018281038252602a815260200180620024fd602a913960400191505060405180910390fd5b805184511462000782576040517f08c379a00000000000000000000000000000000000000000000000000000000081526004018080602001828103825260288152602001806200247e6028913960400191505060405180910390fd5b88600160006101000a81548173ffffffffffffffffffffffffffffffffffffffff021916908373ffffffffffffffffffffffffffffffffffffffff1602179055506000805b89518110156200088d57620007ff898281518110620007e257fe5b60200260200101518362000c3860201b6200103e1790919060201c565b9150600260405180604001604052808c84815181106200081b57fe5b602002602001015181526020018b84815181106200083557fe5b60200260200101518152509080600181540180825580915050600190039060005260206000209060020201600090919091909150600082015181600001556020820151816001015550508080600101915050620007c7565b506000805b88518110156200095857620008ca888281518110620008ad57fe5b60200260200101518362000c3860201b6200103e1790919060201c565b9150600360405180604001604052808b8481518110620008e657fe5b602002602001015181526020018a84815181106200090057fe5b6020026020010151815250908060018154018082558091505060019003906000526020600020906002020160009091909190915060008201518160000155602082015181600101555050808060010191505062000892565b5060648214620009b4576040517f08c379a0000000000000000000000000000000000000000000000000000000008152600401808060200182810382526022815260200180620025596022913960400191505060405180910390fd5b6064811462000a0f576040517f08c379a0000000000000000000000000000000000000000000000000000000008152600401808060200182810382526025815260200180620024d86025913960400191505060405180910390fd5b60005b865181101562000c1e5783818151811062000a2957fe5b602002602001015162000a7386838151811062000a4257fe5b602002602001015188848151811062000a5757fe5b602002602001015162000c3860201b6200103e1790919060201c565b101562000acc576040517f08c379a0000000000000000000000000000000000000000000000000000000008152600401808060200182810382526032815260200180620024a66032913960400191505060405180910390fd5b85818151811062000ad957fe5b60200260200101516004600089848151811062000af257fe5b602002602001015173ffffffffffffffffffffffffffffffffffffffff1673ffffffffffffffffffffffffffffffffffffffff1681526020019081526020016000208190555084818151811062000b4557fe5b60200260200101516005600089848151811062000b5e57fe5b602002602001015173ffffffffffffffffffffffffffffffffffffffff1673ffffffffffffffffffffffffffffffffffffffff1681526020019081526020016000208190555083818151811062000bb157fe5b60200260200101516006600089848151811062000bca57fe5b602002602001015173ffffffffffffffffffffffffffffffffffffffff1673ffffffffffffffffffffffffffffffffffffffff16815260200190815260200160002081905550808060010191505062000a12565b50505050505050505050505062000cc1565b600033905090565b60008082840190508381101562000cb7576040517f08c379a000000000000000000000000000000000000000000000000000000000815260040180806020018281038252601b8152602001807f536166654d6174683a206164646974696f6e206f766572666c6f77000000000081525060200191505060405180910390fd5b8091505092915050565b6117868062000cd16000396000f3fe608060405234801561001057600080fd5b50600436106100ea5760003560e01c806380f22ae11161008c578063abd2171c11610066578063abd2171c14610388578063e8c9a3e5146103d1578063ecf8ade414610429578063f2fde38b14610477576100ea565b806380f22ae1146102a45780638da5cb5b146102fc578063a2ca5f9e14610330576100ea565b8063315a095d116100c8578063315a095d146101d057806342bf41ae146101fe5780635aba37c714610242578063715018a61461029a576100ea565b8063050b8c66146100ef57806309d0cc001461015357806320967cf114610187575b600080fd5b61013b6004803603604081101561010557600080fd5b81019080803573ffffffffffffffffffffffffffffffffffffffff169060200190929190803590602001909291905050506104bb565b60405180821515815260200191505060405180910390f35b61015b610704565b604051808273ffffffffffffffffffffffffffffffffffffffff16815260200191505060405180910390f35b6101b36004803603602081101561019d57600080fd5b810190808035906020019092919050505061072a565b604051808381526020018281526020019250505060405180910390f35b6101fc600480360360208110156101e657600080fd5b810190808035906020019092919050505061075b565b005b61022a6004803603602081101561021457600080fd5b810190808035906020019092919050505061076f565b60405180821515815260200191505060405180910390f35b6102846004803603602081101561025857600080fd5b81019080803573ffffffffffffffffffffffffffffffffffffffff169060200190929190505050610890565b6040518082815260200191505060405180910390f35b6102a26108a8565b005b6102e6600480360360208110156102ba57600080fd5b81019080803573ffffffffffffffffffffffffffffffffffffffff169060200190929190505050610a2e565b6040518082815260200191505060405180910390f35b610304610cd3565b604051808273ffffffffffffffffffffffffffffffffffffffff16815260200191505060405180910390f35b6103726004803603602081101561034657600080fd5b81019080803573ffffffffffffffffffffffffffffffffffffffff169060200190929190505050610cfc565b6040518082815260200191505060405180910390f35b6103b46004803603602081101561039e57600080fd5b8101908080359060200190929190505050610d14565b604051808381526020018281526020019250505060405180910390f35b610413600480360360208110156103e757600080fd5b81019080803573ffffffffffffffffffffffffffffffffffffffff169060200190929190505050610d45565b6040518082815260200191505060405180910390f35b6104756004803603604081101561043f57600080fd5b81019080803573ffffffffffffffffffffffffffffffffffffffff16906020019092919080359060200190929190505050610d5d565b005b6104b96004803603602081101561048d57600080fd5b81019080803573ffffffffffffffffffffffffffffffffffffffff169060200190929190505050610e33565b005b60006104c56110c6565b73ffffffffffffffffffffffffffffffffffffffff1660008054906101000a900473ffffffffffffffffffffffffffffffffffffffff1673ffffffffffffffffffffffffffffffffffffffff1614610585576040517f08c379a00000000000000000000000000000000000000000000000000000000081526004018080602001828103825260208152602001807f4f776e61626c653a2063616c6c6572206973206e6f7420746865206f776e657281525060200191505060405180910390fd5b600160009054906101000a900473ffffffffffffffffffffffffffffffffffffffff1673ffffffffffffffffffffffffffffffffffffffff168373ffffffffffffffffffffffffffffffffffffffff161415610649576040517f08c379a00000000000000000000000000000000000000000000000000000000081526004018080602001828103825260168152602001807f444546582063616e6e6f7420626520647261696e65640000000000000000000081525060200191505060405180910390fd5b8273ffffffffffffffffffffffffffffffffffffffff1663a9059cbb61066d610cd3565b846040518363ffffffff1660e01b8152600401808373ffffffffffffffffffffffffffffffffffffffff16815260200182815260200192505050602060405180830381600087803b1580156106c157600080fd5b505af11580156106d5573d6000803e3d6000fd5b505050506040513d60208110156106eb57600080fd5b8101908080519060200190929190505050905092915050565b600160009054906101000a900473ffffffffffffffffffffffffffffffffffffffff1681565b6003818154811061073757fe5b90600052602060002090600202016000915090508060000154908060010154905082565b61076c6107666110c6565b826110ce565b50565b60006107796110c6565b73ffffffffffffffffffffffffffffffffffffffff1660008054906101000a900473ffffffffffffffffffffffffffffffffffffffff1673ffffffffffffffffffffffffffffffffffffffff1614610839576040517f08c379a00000000000000000000000000000000000000000000000000000000081526004018080602001828103825260208152602001807f4f776e61626c653a2063616c6c6572206973206e6f7420746865206f776e657281525060200191505060405180910390fd5b610841610cd3565b73ffffffffffffffffffffffffffffffffffffffff166108fc839081150290604051600060405180830381858888f19350505050158015610886573d6000803e3d6000fd5b5060019050919050565b60046020528060005260406000206000915090505481565b6108b06110c6565b73ffffffffffffffffffffffffffffffffffffffff1660008054906101000a900473ffffffffffffffffffffffffffffffffffffffff1673ffffffffffffffffffffffffffffffffffffffff1614610970576040517f08c379a00000000000000000000000000000000000000000000000000000000081526004018080602001828103825260208152602001807f4f776e61626c653a2063616c6c6572206973206e6f7420746865206f776e657281525060200191505060405180910390fd5b600073ffffffffffffffffffffffffffffffffffffffff1660008054906101000a900473ffffffffffffffffffffffffffffffffffffffff1673ffffffffffffffffffffffffffffffffffffffff167f8be0079c531659141344cd1fd0a4f28419497f9722a3daafe3b4186f6b6457e060405160405180910390a360008060006101000a81548173ffffffffffffffffffffffffffffffffffffffff021916908373ffffffffffffffffffffffffffffffffffffffff160217905550565b6000806000905060005b600280549050811015610ab45760028181548110610a5257fe5b9060005260206000209060020201600001544210610aa257610a9b60028281548110610a7a57fe5b9060005260206000209060020201600101548361103e90919063ffffffff16565b9150610aa7565b610ab4565b8080600101915050610a38565b506000610b1c6064610b0e84600460008973ffffffffffffffffffffffffffffffffffffffff1673ffffffffffffffffffffffffffffffffffffffff1681526020019081526020016000205461144190919063ffffffff16565b6114c790919063ffffffff16565b90506000805b600380549050811015610b9e5760038181548110610b3c57fe5b9060005260206000209060020201600001544210610b8c57610b8560038281548110610b6457fe5b9060005260206000209060020201600101548361103e90919063ffffffff16565b9150610b91565b610b9e565b8080600101915050610b22565b506000610c066064610bf884600560008b73ffffffffffffffffffffffffffffffffffffffff1673ffffffffffffffffffffffffffffffffffffffff1681526020019081526020016000205461144190919063ffffffff16565b6114c790919063ffffffff16565b90506000610c1d828561103e90919063ffffffff16565b9050600660008873ffffffffffffffffffffffffffffffffffffffff1673ffffffffffffffffffffffffffffffffffffffff16815260200190815260200160002054811115610cc457610cb8600660008973ffffffffffffffffffffffffffffffffffffffff1673ffffffffffffffffffffffffffffffffffffffff168152602001908152602001600020548261151190919063ffffffff16565b95505050505050610cce565b6000955050505050505b919050565b60008060009054906101000a900473ffffffffffffffffffffffffffffffffffffffff16905090565b60056020528060005260406000206000915090505481565b60028181548110610d2157fe5b90600052602060002090600202016000915090508060000154908060010154905082565b60066020528060005260406000206000915090505481565b610d656110c6565b73ffffffffffffffffffffffffffffffffffffffff1660008054906101000a900473ffffffffffffffffffffffffffffffffffffffff1673ffffffffffffffffffffffffffffffffffffffff1614610e25576040517f08c379a00000000000000000000000000000000000000000000000000000000081526004018080602001828103825260208152602001807f4f776e61626c653a2063616c6c6572206973206e6f7420746865206f776e657281525060200191505060405180910390fd5b610e2f82826110ce565b5050565b610e3b6110c6565b73ffffffffffffffffffffffffffffffffffffffff1660008054906101000a900473ffffffffffffffffffffffffffffffffffffffff1673ffffffffffffffffffffffffffffffffffffffff1614610efb576040517f08c379a00000000000000000000000000000000000000000000000000000000081526004018080602001828103825260208152602001807f4f776e61626c653a2063616c6c6572206973206e6f7420746865206f776e657281525060200191505060405180910390fd5b600073ffffffffffffffffffffffffffffffffffffffff168173ffffffffffffffffffffffffffffffffffffffff161415610f81576040517f08c379a00000000000000000000000000000000000000000000000000000000081526004018080602001828103825260268152602001806116e26026913960400191505060405180910390fd5b8073ffffffffffffffffffffffffffffffffffffffff1660008054906101000a900473ffffffffffffffffffffffffffffffffffffffff1673ffffffffffffffffffffffffffffffffffffffff167f8be0079c531659141344cd1fd0a4f28419497f9722a3daafe3b4186f6b6457e060405160405180910390a3806000806101000a81548173ffffffffffffffffffffffffffffffffffffffff021916908373ffffffffffffffffffffffffffffffffffffffff16021790555050565b6000808284019050838110156110bc576040517f08c379a000000000000000000000000000000000000000000000000000000000815260040180806020018281038252601b8152602001807f536166654d6174683a206164646974696f6e206f766572666c6f77000000000081525060200191505060405180910390fd5b8091505092915050565b600033905090565b6110d782610a2e565b81111561112f576040517f08c379a00000000000000000000000000000000000000000000000000000000081526004018080602001828103825260288152602001806117296028913960400191505060405180910390fd5b600160009054906101000a900473ffffffffffffffffffffffffffffffffffffffff1673ffffffffffffffffffffffffffffffffffffffff166370a08231306040518263ffffffff1660e01b8152600401808273ffffffffffffffffffffffffffffffffffffffff16815260200191505060206040518083038186803b1580156111b857600080fd5b505afa1580156111cc573d6000803e3d6000fd5b505050506040513d60208110156111e257600080fd5b8101908080519060200190929190505050811115611268576040517f08c379a000000000000000000000000000000000000000000000000000000000815260040180806020018281038252601e8152602001807f496e73756666696369656e7420636f6e74726163742062616c616e63652e000081525060200191505060405180910390fd5b6112ba81600660008573ffffffffffffffffffffffffffffffffffffffff1673ffffffffffffffffffffffffffffffffffffffff1681526020019081526020016000205461103e90919063ffffffff16565b600660008473ffffffffffffffffffffffffffffffffffffffff1673ffffffffffffffffffffffffffffffffffffffff16815260200190815260200160002081905550600160009054906101000a900473ffffffffffffffffffffffffffffffffffffffff1673ffffffffffffffffffffffffffffffffffffffff1663a9059cbb83836040518363ffffffff1660e01b8152600401808373ffffffffffffffffffffffffffffffffffffffff16815260200182815260200192505050602060405180830381600087803b15801561139057600080fd5b505af11580156113a4573d6000803e3d6000fd5b505050506040513d60208110156113ba57600080fd5b810190808051906020019092919050505061143d576040517f08c379a00000000000000000000000000000000000000000000000000000000081526004018080602001828103825260108152602001807f5472616e73666572206661696c65642e0000000000000000000000000000000081525060200191505060405180910390fd5b5050565b60008083141561145457600090506114c1565b600082840290508284828161146557fe5b04146114bc576040517f08c379a00000000000000000000000000000000000000000000000000000000081526004018080602001828103825260218152602001806117086021913960400191505060405180910390fd5b809150505b92915050565b600061150983836040518060400160405280601a81526020017f536166654d6174683a206469766973696f6e206279207a65726f00000000000081525061155b565b905092915050565b600061155383836040518060400160405280601e81526020017f536166654d6174683a207375627472616374696f6e206f766572666c6f770000815250611621565b905092915050565b60008083118290611607576040517f08c379a00000000000000000000000000000000000000000000000000000000081526004018080602001828103825283818151815260200191508051906020019080838360005b838110156115cc5780820151818401526020810190506115b1565b50505050905090810190601f1680156115f95780820380516001836020036101000a031916815260200191505b509250505060405180910390fd5b50600083858161161357fe5b049050809150509392505050565b60008383111582906116ce576040517f08c379a00000000000000000000000000000000000000000000000000000000081526004018080602001828103825283818151815260200191508051906020019080838360005b83811015611693578082015181840152602081019050611678565b50505050905090810190601f1680156116c05780820380516001836020036101000a031916815260200191505b509250505060405180910390fd5b506000838503905080915050939250505056fe4f776e61626c653a206e6577206f776e657220697320746865207a65726f2061646472657373536166654d6174683a206d756c7469706c69636174696f6e206f766572666c6f774d6178696d756d20776974686472617761626c6520616d6f756e742069732065786365656465642ea2646970667358221220c65f45887095fadc467706ec0c9baed67696a32eb669f181d9d2d9d5337e15cc64736f6c634300060c00335365656420696e766573746d656e74206172726179206861732077726f6e67206c656e6774682e57697468647261776e20746f6b656e73206172726179206861732077726f6e67206c656e6774682e496e766573746d656e742073686f756c642062652067726561746572207468616e2077697468647261776e20616d6f756e74496e636f727265637420707269766174652072656c656173652070657263656e74616765735072697661746520696e766573746d656e74206172726179206861732077726f6e67206c656e6774682e50726976617465207363686564756c6520617272617973206861766520696e636f6e73697374656e74206c656e677468732e496e636f727265637420736565642072656c656173652070657263656e746167657353656564207363686564756c6520617272617973206861766520696e636f6e73697374656e74206c656e677468732e",
  "immutableReferences": {},
  "source": "// SPDX-License-Identifier: MIT\r\npragma solidity 0.6.12;\r\n\r\nimport '@openzeppelin/contracts/access/Ownable.sol';\r\nimport '@openzeppelin/contracts/math/SafeMath.sol';\r\nimport './DEFXToken.sol';\r\n\r\ncontract DEFXVestingSchedule is Ownable {\r\n    using SafeMath for uint;\r\n    struct ReleaseEvent { uint time; uint percentage; }\r\n\r\n    DEFX public defxToken;\r\n\r\n    ReleaseEvent[] public seedSchedule;\r\n    ReleaseEvent[] public privateSchedule;\r\n\r\n    mapping (address => uint) public seedInvestments;\r\n    mapping (address => uint) public privateInvestments;\r\n    mapping (address => uint) public withdrawnTokens;\r\n\r\n    constructor(\r\n        address _tokenContractAddress, \r\n        uint[] memory _seedScheduleEvents,\r\n        uint[] memory _seedSchedulePercentages,\r\n        uint[] memory _privateScheduleEvents,\r\n        uint[] memory _privateSchedulePercentages,\r\n        address[] memory _investors, \r\n        uint[] memory _seedInvestments, \r\n        uint[] memory _privateInvestments, \r\n        uint[] memory _withdrawnTokens)\r\n        public\r\n    {\r\n        require(_seedScheduleEvents.length == _seedSchedulePercentages.length, \"Seed schedule arrays have inconsistent lengths.\");\r\n        require(_privateScheduleEvents.length == _privateSchedulePercentages.length, \"Private schedule arrays have inconsistent lengths.\");\r\n\r\n        require(_investors.length == _seedInvestments.length, \"Seed investment array has wrong length.\");\r\n        require(_investors.length == _privateInvestments.length, \"Private investment array has wrong length.\");\r\n        require(_investors.length == _withdrawnTokens.length, \"Withdrawn tokens array has wrong length.\");\r\n\r\n        defxToken = DEFX(_tokenContractAddress);\r\n\r\n        uint totalSeedPercentage = 0;\r\n        for (uint i = 0; i < _seedScheduleEvents.length; i++) {\r\n            totalSeedPercentage = totalSeedPercentage.add(_seedSchedulePercentages[i]);\r\n            seedSchedule.push(ReleaseEvent(_seedScheduleEvents[i], _seedSchedulePercentages[i]));\r\n        }\r\n\r\n        uint totalPrivatePercentage = 0;\r\n        for (uint i = 0; i < _privateScheduleEvents.length; i++) {\r\n            totalPrivatePercentage = totalPrivatePercentage.add(_privateSchedulePercentages[i]);\r\n            privateSchedule.push(ReleaseEvent(_privateScheduleEvents[i], _privateSchedulePercentages[i]));\r\n        }\r\n\r\n        require(totalSeedPercentage == 100, \"Incorrect seed release percentages\");\r\n        require(totalPrivatePercentage == 100, \"Incorrect private release percentages\");\r\n\r\n        for (uint i = 0; i < _investors.length; i++) {\r\n            require(_seedInvestments[i].add(_privateInvestments[i]) >= _withdrawnTokens[i], \"Investment should be greater than withdrawn amount\");\r\n\r\n            seedInvestments[_investors[i]] = _seedInvestments[i];\r\n            privateInvestments[_investors[i]] = _privateInvestments[i];\r\n            withdrawnTokens[_investors[i]] = _withdrawnTokens[i];\r\n        }\r\n    }\r\n\r\n    ////////////////////////////////////////////////////////////////////////////////////////////////////\r\n    // Withdrawing\r\n    ////////////////////////////////////////////////////////////////////////////////////////////////////\r\n\r\n    /**\r\n     * @return DEFX amount available for withdrawal to specified investor's address\r\n     */\r\n    function getAvailableTokens(address _investor)\r\n        public\r\n        view\r\n        returns(uint)\r\n    {\r\n        uint seedPercentage = 0;\r\n        for(uint i = 0; i < seedSchedule.length; i++) \r\n        {\r\n            if (block.timestamp >= seedSchedule[i].time)\r\n                seedPercentage = seedPercentage.add(seedSchedule[i].percentage);\r\n            else\r\n                break;\r\n        }\r\n        uint earnedSeedAmount = seedInvestments[_investor].mul(seedPercentage).div(100);\r\n\r\n        uint privatePercentage = 0;\r\n        for(uint i = 0; i < privateSchedule.length; i++) \r\n        {\r\n            if (block.timestamp >= privateSchedule[i].time)\r\n                privatePercentage = privatePercentage.add(privateSchedule[i].percentage);\r\n            else\r\n                break;\r\n        }\r\n        uint earnedPrivateAmount = privateInvestments[_investor].mul(privatePercentage).div(100);\r\n        uint totalEarnedAmount = earnedSeedAmount.add(earnedPrivateAmount);\r\n\r\n        if (totalEarnedAmount > withdrawnTokens[_investor])\r\n            return totalEarnedAmount.sub(withdrawnTokens[_investor]);\r\n        else\r\n            return 0;\r\n    }\r\n\r\n    /**\r\n     * @notice Allows investors to transfer available DEFX amount to themselves.\r\n     */\r\n    function withdrawTokens(uint _amount)\r\n        external\r\n    {\r\n        withdrawTokens(_msgSender(), _amount);\r\n    }\r\n\r\n    /**\r\n     * @notice Allows contract owner to transfer available DEFX amount to the investor.\r\n     */\r\n    function withdrawTokensToInvestor(address _investor, uint _amount)\r\n        external\r\n        onlyOwner\r\n    {\r\n        withdrawTokens(_investor, _amount);\r\n    }\r\n\r\n    function withdrawTokens(address _investor, uint _amount)\r\n        private\r\n    {\r\n        require(_amount <= getAvailableTokens(_investor), \"Maximum withdrawable amount is exceeded.\");\r\n        require(_amount <= defxToken.balanceOf(address(this)), \"Insufficient contract balance.\");\r\n\r\n        withdrawnTokens[_investor] = withdrawnTokens[_investor].add(_amount);\r\n\r\n        require(defxToken.transfer(_investor, _amount), \"Transfer failed.\");\r\n    }\r\n\r\n    ////////////////////////////////////////////////////////////////////////////////////////////////////\r\n    // Miscellaneous\r\n    ////////////////////////////////////////////////////////////////////////////////////////////////////\r\n\r\n    /**\r\n     * @notice Enable recovery of ether sent by mistake to this contract's address.\r\n     */\r\n    function drainStrayEther(uint _amount)\r\n        external\r\n        onlyOwner\r\n        returns (bool)\r\n    {\r\n        payable(owner()).transfer(_amount);\r\n        return true;\r\n    }\r\n\r\n    /**\r\n     * @notice Enable recovery of any ERC20 compatible token sent by mistake to this contract's address.\r\n     * The only token that cannot be drained is DEFX.\r\n     */\r\n    function drainStrayTokens(IERC20 _token, uint _amount)\r\n        external\r\n        onlyOwner\r\n        returns (bool)\r\n    {\r\n        require(address(_token) != address(defxToken), \"DEFX cannot be drained\");\r\n        return _token.transfer(owner(), _amount);\r\n    }\r\n}\r\n",
  "sourcePath": "C:/Users/User/Source/Repos/SmartContracts-1/src/contracts/DEFXVestingSchedule.sol",
  "compiler": {
    "name": "solc",
    "version": "0.6.12+commit.27d51765.Emscripten.clang"
  },
  "schemaVersion": "3.3.3",
  "updatedAt": "2021-07-19T09:47:17.924Z",
  "devdoc": {
    "kind": "dev",
    "methods": {
      "getAvailableTokens(address)": {
        "returns": {
          "_0": "DEFX amount available for withdrawal to specified investor's address"
        }
      },
      "owner()": {
        "details": "Returns the address of the current owner."
      },
      "renounceOwnership()": {
        "details": "Leaves the contract without owner. It will not be possible to call `onlyOwner` functions anymore. Can only be called by the current owner. NOTE: Renouncing ownership will leave the contract without an owner, thereby removing any functionality that is only available to the owner."
      },
      "transferOwnership(address)": {
        "details": "Transfers ownership of the contract to a new account (`newOwner`). Can only be called by the current owner."
      }
    },
    "version": 1
  },
  "userdoc": {
    "kind": "user",
    "methods": {
      "drainStrayEther(uint256)": {
        "notice": "Enable recovery of ether sent by mistake to this contract's address."
      },
      "drainStrayTokens(address,uint256)": {
        "notice": "Enable recovery of any ERC20 compatible token sent by mistake to this contract's address. The only token that cannot be drained is DEFX."
      },
      "withdrawTokens(uint256)": {
        "notice": "Allows investors to transfer available DEFX amount to themselves."
      },
      "withdrawTokensToInvestor(address,uint256)": {
        "notice": "Allows contract owner to transfer available DEFX amount to the investor."
      }
    },
    "version": 1
  }
}